:020000040800F2
:10000000008000205D5C0008AD5C0008AD5C00086D
:10001000AD5C0008AD5C0008AD5C000800000000AD
:10002000000000000000000000000000AD5C0008BF
:10003000AD5C000800000000AD5C0008AD5C00088D
:10004000AD5C0008AD5C0008AD5C0008AD5C00086C
:10005000AD5C0008AD5C0008AD5C0008AD5C00085C
:10006000AD5C0008AD5C0008AD5C0008AD5C00084C
:10007000AD5C0008AD5C0008AD5C0008AD5C00083C
:10008000AD5C0008AD5C0008AD5C0008AD5C00082C
:10009000AD5C0008AD5C0008AD5C0008AD5C00081C
:1000A00000000000AD5C0008AD5C0008AD5C00081D
:1000B000AD5C0008AD5C0008AD5C0008AD5C0008FC
:1000C000AD5C0008AD5C0008AD5C0008AD5C0008EC
:1000D000AD5C0008AD5C0008AD5C0008AD5C0008DC
:1000E000AD5C0008AD5C0008AD5C0008AD5C0008CC
:1000F000AD5C000800000000AD5C0008AD5C0008CD
:100100000000000000000000AD5C0008AD5C0008CD
:10011000AD5C0008AD5C0008AD5C000800000000AC
:10012000AD5C0008000000000000000000000000BE
:1001300000000000000000005FF808F110B5054C59
:10014000237833B9044B13B10448AFF30080012383
:10015000237010BDC40100200000000044AD000861
:1001600008B5064B1BB106480649AFF300800648A8
:10017000036813B1054B03B1984708BD00000000A8
:1001800044AD0008C8010020C001002000000000AC
:1001900010B50446002839D090F851300BB904F05E
:1001A0009BFD022384F8513023681A6822F0400234
:1001B0001A60A1686268236841EA0200E26810439D
:1001C0002269104362691043E2691043226A1043B6
:1001D000A26A1043A26902F4007140EA01021A60A7
:1001E000618B626A236801F004010A435A60236844
:1001F000E26A00201A612368DA6922F40062DA6197
:10020000012384F8520084F8513010BD012010BD44
:1002100070474FF0FF3070472DE9F74F1E46BDF98C
:1002200030301546C2EB0309721AB9F1000FB8BF9E
:10023000C9F10009002AB8BF52429145D4BF4FF01E
:1002400000094FF0010980460C46BDF834B0B9F101
:10025000000F04D032462C461E460D461346B442CB
:1002600005DD2A461D461346224634461646C4EB93
:10027000060A5A1B1FFA8AFA82EAE271A1EBE271BE
:100280000FFA8AF7022297FBF2F74FF6FF729D42B0
:10029000B8BF01220091BFB20192B4421DDCD8F870
:1002A00000304046D3F82CC0B9F1000F02D02946E7
:1002B000224601E021462A465B46E047009ABF1AE3
:1002C000BBB29FB23A0405D5019903EB0A070D446E
:1002D0002DB2BFB2013424B2DFE703B0BDE8F08F26
:1002E00013B5013B13441BB20093BDF810300468F2
:1002F0000193246C0B46A04702B010BD2DE9F347D3
:10030000BDF928A0BDF82C7006460D4691469846CA
:100310000C4605EB08039C420BDA31680097D1F8D4
:1003200044C0304621464A4653460134E04724B291
:10033000EFE702B0BDE8F0872DE9F347BDF82C5098
:100340000768BDF92860009504467F6B9046894692
:100350009A46B8472368721E009542445F6B204658
:100360004946534612B2B847236800955F6C204651
:10037000494642463346B8470AF1FF3A236800959A
:100380000AEB09015D6C204609B242463346A84794
:1003900002B0BDE8F08737B5BDF818500468013BDE
:1003A0000B4400920195246C1BB2A04703B030BDF2
:1003B00013B5B0F91E200468009201910021B0F934
:1003C0001C30A46C0A46A04702B010BD10B5054B06
:1003D000044603F108025C330260436005F096FCBA
:1003E000204610BDD0960008A0F10400FFF7EEBF34
:1003F00010B50446FFF7EAFF204606F053F8204602
:1004000010BDA0F10400F3E72DE9F04F8DB0924646
:10041000BDF85C2089460792B0F91C20BDF8581041
:100420004A45054606919DF860407FDDB0F91E20E3
:1004300052457BDD04EB84024A44002A76DD0AEB58
:10044000C402002A72DD03EB83030A930021062312
:1004500008930591059A53B2052B05D0354A0A99A0
:100460000A4412F8038001E04FF000081FFA89F2F5
:100470009BB2049304FB03231FFA8AF69BB20993F1
:1004800006F108039BB203920B933746B34618F06C
:10049000010F17D0012C2A6809D1039B0499D2F8C7
:1004A0002CC01944284609B23AB2069B1AE00699B4
:1004B00023B201910093D2F848C0099A284611B29C
:1004C00032B21CE0079B06998B4219D0012C2A6896
:1004D0000AD1039B0499D2F82CC01944079B2846E3
:1004E00009B23AB2E0470BE0079923B201910093B9
:1004F000D2F848C0099A284611B20FFA8BF2E047A9
:1005000001370B9BBFB22644A3449F424FEA5808D1
:10051000B6B21FFA8BFBBAD10599089A4B1CDBB215
:100520000593531E13F0FF03089393D10DB0BDE85C
:10053000F08F00BF3897000830B50A2985B004460F
:100540000B4605D190F82820438C03EBC20326E02C
:100550000D2925D0858CB0F92010B0F92220009506
:10056000C58C019590F828500295FFF74DFF94F83F
:100570002830228C03EB430102EB410294F82A104D
:1005800092B2228471B1B4F91C106FF0050000FB27
:10059000031112B28A4205DD628C02EBC30363844D
:1005A00000232384012005B030BDC9B2FFF7C4BFCA
:1005B00002680E4B1A6082685A60C2689A600269CB
:1005C000DA6042691A6100229A6190F919200132B9
:1005D00001D1082205E090F9182001320CBF042255
:1005E0000C2202485A6100F074BE00BFE4010020F2
:1005F000F8B504460E4608463549154600F0D0FECB
:1006000034490746284600F0CBFE0146384600F044
:10061000A9FE2060013004D12F483049502205F056
:10062000DDFE23682E4A934206D12E4B1A6A42F40D
:1006300080421A620023636023682B4A934206D1EA
:10064000284B5A6A42F400325A62012363602368DD
:10065000264A934206D1234B5A6A42F480225A62B8
:100660000223636030461A4900F05EFE28461949AD
:1006700000F05AFE721C03D03046012100F0F0FF5A
:100680006B1C03D02846012100F0EAFF4FF4E13350
:10069000A3600023E36023616361267665762046CC
:1006A000FFF786FF2368114A93420FD1104B0122B6
:1006B0001A60104B04F11805206861681A4603C2DD
:1006C0000834AC421346F7D120681060F8BD00BF73
:1006D000ECA8000874A80008339C00084D9C000892
:1006E000003801400038024000440040004800400B
:1006F000E0010020200200200368034A136018680C
:10070000C0F34010704700BFE401002038B5056811
:1007100004462046FFF7F0FF0028FAD06868C0B210
:1007200038BD00000368034A13601868C0F3C010A6
:10073000704700BFE401002070B5056804460E460E
:100740002046FFF7EFFF0028FAD0F6B26E6070BDCA
:1007500070B5036800211B69012204469847431CB9
:1007600005460ED0236820461B69002102229847C7
:10077000236806461B6920462946002298473046D2
:1007800070BD70BD064B03600023064A9958814234
:1007900004BF002199500433B3F5807FF5D1704731
:1007A000F89C00083C02002010B50446FFF7EAFF61
:1007B000204605F077FE204610BD0000044B1B6864
:1007C00023B904481A211B22FFF712BF704700BF4C
:1007D000E0010020200200202DE9F3410F462D49C1
:1007E000054607F028FD044610B9FFF7E7FF4DE086
:1007F0002846294907F01FFD18B9FFF7DFFF01243C
:1008000044E02846254907F016FD18B9FFF7D6FF42
:1008100002243BE00024224B53F824201E4672B1F0
:100820000134402CF7D107E06846294605F086F8E8
:10083000684605F0C6F860B94FF0FF3426E02B7823
:100840003A2BF1D1284617496A4607F085FC0098F3
:1008500017E0684605F0A2F818B1684605F0A8F858
:100860000FE0684605F093F805460028E4D00368D9
:100870006846D3F8088005F07FF83A4601462846D6
:10088000C0470028D8D046F824000334204602B0E0
:10089000BDE8F081C49C0008E19C0008CB9C0008E6
:1008A0003C020020D39C0008022808B54FF000034A
:1008B0000ADD084AC11E52F8210042F8213028B151
:1008C00003685B68984708BD184608BD4FF0FF30C5
:1008D00008BD00BF3C020020022870B50C4615463A
:1008E0000FDC0E4B1B680BB9FFF768FF6619B442AB
:1008F00005D00B4814F8011BFFF71EFFF7E7284649
:1009000070BD084B033853F8200018B103681B680A
:10091000984770BD4FF0FF3070BD00BFE001002070
:10092000200200203C020020022810B50C460ADC00
:100930000B4B1B680BB9FFF741FF0A48FFF7E6FEB8
:100940002070012010BD084B033853F8200018B167
:1009500003689B68984710BD4FF0FF3010BD00BF83
:10096000E0010020200200203C020020022808B5FF
:1009700008DD074B033853F8200028B10368DB6813
:10098000984708BD012008BD4FF0FF3008BD00BFEB
:100990003C020020022808B508DD074B033853F855
:1009A000200028B103681B69984708BD002008BDD6
:1009B0004FF0FF3008BD00BF3C020020022808B500
:1009C00004D84FF400534B60002008BD06F0EEFD44
:1009D000092303604FF0FF3008BD08B5012006F081
:1009E000EBFD704708B505F023F8FFF7FAFFBDE807
:1009F000084003F057BB0000074A13681844EFF3A0
:100A00000881884205D3054B0C221A604FF0FF3055
:100A100070471060184670474001002060080020B1
:100A2000002107F0A1BA90F86D02704710B5036875
:100A30000446D3F888309847236820465B6F984770
:100A400010BD000070B5054600242B68074E5B6999
:100A5000315D284698472B6826441B6D28467178DF
:100A6000B278033498472D2CEFD170BD209D00083B
:100A7000704790F86D32022B0CBF80200020704729
:100A80007047704790F80C338B4218BF80F80C13F6
:100A900070470120704713B502AB03F8012D0268BF
:100AA000946D1A460123A04702B010BD13B5036828
:100AB0000DF10702DC6D0123A0479DF8070002B08D
:100AC00010BD38B504680D461346A46D00212A46B2
:100AD000A04738BD38B504680D461346E46D0021C3
:100AE0002A46A04738BD000010B5034B04460360FA
:100AF00002F0D2FC204610BD589D000810B50446F7
:100B0000FFF7F2FF204605F0CDFC204610BD07B5EB
:100B10000246086849686B4603C311F0010F4FEAAB
:100B2000610018BF1158009B104418BFCB5898475C
:100B300003B05DF804FB90F86C2208B58A4209D036
:100B400080F86C12036811B9D3F8883001E0D3F84B
:100B50008C30984708BD000038B590F90030044645
:100B600001330D4604D105480549352205F036FC10
:100B7000E368626805B912041A6038BD109E000867
:100B8000289E000810B50446203450300121FFF79C
:100B9000E3FF20460821002200F086F920460449A0
:100BA00000F08CF9BDE81040024804F01BBF00BF04
:100BB00040420F00CDCCCC3D2DE9F041064600F17E
:100BC00050050C4628460021203690461F46FFF768
:100BD000C3FF44F08001304600F078F90024E3B20E
:100BE000BB4206D218F80410304600F06FF9013409
:100BF000F5E728460121BDE8F041FFF7ADBF2DE93B
:100C0000F041064600F150050C46284600212036EA
:100C100090461F46FFF7A0FF04F07F01304600F02A
:100C200055F90024E3B2BB4207D23046002100F060
:100C30004DF908F804000134F4E728460121BDE825
:100C4000F041FFF789BF10B500F16404204601218F
:100C500004F016F820460021FFF77EFF012004F083
:100C6000CDFE2046002104F00BF8BDE81040062020
:100C700004F0C4BE1FB5044602A880E80C008DE84D
:100C80000C000346E16203CB074B61630121206343
:100C9000236404F1180000230A46A36204B0BDE8EF
:100CA000104000F045BA00BF0F0B00082DE9F047D7
:100CB000044600F1780A0D46504604F1D809022195
:100CC00000F05CFC04F59C784846022100F056FCDC
:100CD00004F5CC774046022100F050FC04F5FC7688
:100CE0003846022100F04AFC3046022100F046FC62
:100CF00095E80C0050462146FFF7BCFF05F10803BC
:100D0000484621460CCBFFF7B5FF05F110034046DE
:100D100021460CCBFFF7AEFF05F1180338462146FC
:100D20000CCB2035FFF7A6FF95E80C003046214696
:100D3000FFF7A0FFBDE8F08770B590B0149D1326B3
:100D400000950696159D2826079609260195089672
:100D5000169D10260996112602950A96179D26269D
:100D60000B960A2603950C961525232604950D96B9
:100D700014252D260E960595044601F061FD1E4BA7
:100D800004F55A7623602A463046002106F0EEFF2D
:100D900030464FF0FF3104F55F7603F0FBFF2A4643
:100DA0003046002106F0E2FF4FF0FF31304603F0FD
:100DB000F1FF2046FFF747FF032384F86D322046FA
:100DC00001F0EAFD2046FFF731FE2046002101F048
:100DD00013F9D4F878122046FFF768FF2046FFF792
:100DE00031FE2046002101F02DF90123204684F830
:100DF000103310B070BD00BF589D0008014B036058
:100E0000704700BFA89E000810B5034B044603605E
:100E100005F048FB204610BDA89E00082DE9F743C9
:100E20009946144B054645F8043B04468846174648
:100E300028460021202206F099FF082363620E4B0A
:100E40000026E3624FF0FF330093284641463A46BE
:100E50004B46A66204F0F0FF2846616AA26A334658
:100E600005F07AF82846E16A05F09AF8204603B0C2
:100E7000BDE8F083A89E000840420F0070B5094D00
:100E800004462B6883420BD0061D3046616AA26A75
:100E9000002305F061F83046E16A05F081F82C6026
:100EA00070BD00BF3C030020034B82624162002200
:100EB0001A60FFF7E3BF00BF3C030020024B002293
:100EC000C1621A60FFF7DABF3C03002038B5044660
:100ED0000D46FFF7D3FF201D2946BDE8384005F039
:100EE000E7B8000010B5054B0446036003F0D3FBE0
:100EF000204605F0F9F8204610BD00BF88A500087F
:100F000010B5034B04460360FFF7ECFF204610BD0D
:100F1000C09E000810B50446FFF7E4FF204605F028
:100F2000C1FA204610BD10B50446FFF7E9FF204680
:100F300005F0B8FA204610BD143004F06DBD000075
:100F4000F8B5154B4C2606FB00360F4634460025F7
:100F5000BD4220D0012303FA05F13268114217D0B7
:100F6000626B0E4803FA02F2D0F814C0E16912EA8B
:100F70000C0F0DD04261606850B109690A42084AFD
:100F800003D113680221984702E01268194690477E
:100F900001350434DCE7F8BD4003002000040140C3
:100FA0005405002000200121FFF7CABF012001469F
:100FB000FFF7C6BF02200121FFF7C2BF03200121B6
:100FC000FFF7BEBF04200121FFF7BABF052001468D
:100FD000FFF7B6BF06200146FFF7B2BF2DE9F74F76
:100FE00001924A1C80460F4664D001F00F0909F1B6
:100FF000FF32C1F303100E2A09D8DFE802F00C100B
:1010000014181C1C1C1C1C202020202020002B4EEF
:101010000025062416E02A4E0125072412E0294E59
:10102000022508240EE0284E032509240AE0274E55
:1010300004250A2406E0264E0525172402E0254E45
:1010400006252824009300F09DFA4FFA84FA83467F
:101050000721384600F0D6FA3146504602F062FCCD
:10106000012604F01F0006FA00F01B494FEA5A124D
:1010700041F822004C21C8F804504D431749184A42
:1010800051F8291000208E4088F80C7088F8004034
:10109000C8F808005459571934435451009B07EBC2
:1010A00081014B60019A0F4BC1F81CB0C1F834901C
:1010B0001A6000E0084603B0BDE8F08FA50F0008F5
:1010C000AD0F0008B50F0008BD0F0008C50F0008E0
:1010D000CD0F0008D50F000800E100E0D09E000809
:1010E000400300205405002070B5436805464C229B
:1010F000007B5A430C4B00F00F0053F820300126C0
:101100009E400A4988588C1804EB830320EA0600A5
:10111000002488505C60DC615C6395F90C0021461A
:1011200000F070FAAC6070BDD09E00084003002053
:10113000A2B1012905D18368023B012B08D9816046
:101140001EE002291FD1836823F00203012B03D183
:1011500003238360082117E0816007E0012907D19C
:101160008368023B012B0DD80223836007210BE02B
:10117000022908D1836823F00203012B02D1836086
:10118000062101E082600C2190F90C0000F03ABACF
:101190002DE9F8430368C2681969044621F44051F7
:1011A0000A431A610268A1680069D368084361694B
:1011B00023F416430843E16923F00C0301430B4376
:1011C000D3602368A269596921F440710A435A61C6
:1011D000E3692568B3F5004F3C4B32D19D424FF097
:1011E000190615D104F092FB7043636864275B0015
:1011F000B0FBF3F804F08AFB70436368B8FBF7F8C0
:101200005B004FEA0818B0FBF3F904F07FFB14E031
:1012100004F064FB7043636864275B00B0FBF3F881
:1012200004F05CFB70436368B8FBF7F85B004FEABF
:101230000818B0FBF3F904F051FB636870435B00DE
:1012400031E09D424FF0190615D104F05FFB704369
:10125000636864279B00B0FBF3F804F057FB70430E
:101260006368B8FBF7F89B004FEA0818B0FBF3F986
:1012700004F04CFB14E004F031FB70436368642716
:101280009B00B0FBF3F804F029FB70436368B8FBE4
:10129000F7F89B004FEA0818B0FBF3F904F01EFBC7
:1012A000704363689B00B0FBF3F6B6FBF7F607FBF1
:1012B00016994FEA091909F13209B9FBF7F707F056
:1012C0000F0747EA0807AF60BDE8F8830038014020
:1012D000704710B5044628B390F839300BB9FFF7C2
:1012E000F7FF022384F8393023682046DA6822F4B5
:1012F0000052DA60FFF74CFF236800201A6922F4DD
:1013000090421A6123685A6922F02A025A612368BE
:10131000DA6842F40052DA60012384F83A0084F873
:10132000393010BD012010BD10B50446013001D187
:1013300010BD0C3191F900305A1C0BD0A342F8D1EA
:101340002046896800F05EF920460021BDE8104083
:1013500000F086B90248BDE8104000F0A5B900BF12
:10136000109F0008884208B50AD0431C07D00131FD
:1013700006D0044800F098F94FF0FF3008BD084649
:1013800008BD00BF219F000891F900305A1C05D00C
:10139000834201D1486870470C31F5E71846704721
:1013A000421C10B5044607D0FFF7EEFF431C04466D
:1013B00002D1024800F078F9204610BD329F0008A3
:1013C0007047000070B5044608B9012070BD90F860
:1013D00035300BB9FFF7F4FF04F080FA3D4B98422B
:1013E000F3D9022384F8353023683B4E1A6822F083
:1013F00001021A602268394B5168B0FBF3F321F007
:101400003F011943516061682268B14284BF4FF4C3
:1014100096714B43156A84BF4FF47A71B3FBF1F3B5
:1014200025F03F0501332B43136221686368CA69C5
:10143000294D22F44F42AB4222F0FF0208D85B0054
:10144000B0FBF3F0C0F30B03032B98BF042016E0AE
:10145000A5684DB903EB4303B0FBF3F0C0F30B03F6
:1014600063B140F400400AE019256B43B0FBF3F090
:10147000C0F30B0313B140F4404000E001201043DF
:10148000C8612368216A1868E26920F0C0000A4335
:1014900002431A602268E0689368216923F40343D9
:1014A000014323F0FF030B4393602368A169D868CD
:1014B000626920F0FF000A430243DA6023680020DB
:1014C0001A6842F001021A60012384F8360084F899
:1014D000353070BD7F841E00A086010040420F00A1
:1014E00010B5044A044640F8182BFFF7FDFD2046CE
:1014F00010BD00BF609F000810B50446FFF7F0FF65
:10150000204604F0CFFF204610BD012902D0022959
:1015100002D07047283000E0443004F07DBA00006B
:10152000F8B5144B054645F8043B04460E4604F155
:10153000180728460021142206F018FC102238460D
:10154000002106F013FC04F12800002104F05BFAEE
:1015500004F14400002104F056FA3146064A2346BD
:101560003846FFF73BFD2846314603F013FC204682
:10157000F8BD00BF609F00080B150008043003F0A1
:101580007BBB000008B5072828D8DFE800F0040B73
:10159000121927272720144B1448DA6942F0010258
:1015A000DA6108BD104B1248DA6942F00202DA61D2
:1015B00008BD0D4B0F48DA6942F00402DA6108BD3C
:1015C000094B0D48DA6942F00802DA6108BD064BA2
:1015D0000A48DA6942F02002DA6108BD084800F0E2
:1015E00063F8002008BD00BF003802400000024040
:1015F0000004024000080240000C024000140240B7
:10160000689F000830B5431C87B005460C4604D1DE
:1016100010481149592204F0E1FEC5F30310FFF709
:10162000B1FF05F00F05012303FA05F50B4B04F09C
:101630000F0253F8223001A90293C4F3021303935B
:10164000C4F3C314032301950493059401F066FFCA
:1016500007B030BD159E0008899F0008FC9F000858
:10166000431C70B504460D4604D10D480D497E2239
:1016700004F0B4FEC4F30310FFF784FF04F00F0678
:10168000730003229A40032D28BF002505FA03F3B7
:10169000C16821EA0202C260C2681343C36070BD20
:1016A000159E0008899F00080FB407B5054B04AAD2
:1016B0001B6852F8041BD868019207F043FA012016
:1016C00005F07AFFAC0100207047000070B50446B9
:1016D000002800F08A8090F8493033B9444B1A6AE8
:1016E00042F001021A62FFF7EFFF424B022284F838
:1016F00049205868616820F44030014359604FF434
:10170000007393FAA3F3B3FA83F3656A92FAA2F231
:10171000B2FA82F2E16BDBB29940D2B205FA02F280
:10172000E06866690643206A304340EA01031343D8
:10173000626B102A02D0A16B0A431343226811681E
:10174000490622D4A169E0690B43A16826690843D0
:10175000E16A012E14BF00264FF48076012940EA89
:1017600006000DD165B94FF4604191FAA1F1B1FACB
:1017700081F1256BC9B2013D8D4040F400602843E2
:1017800055681D4929400143516021681B4A8868FA
:1017900002401A438A602269012A22680ED1106B26
:1017A0004FF0F87595FAA5F5B5FA85F5A16AEDB291
:1017B0000139A94020F0F870014302E0116B21F0DB
:1017C000F8711163226891680D4A0A409A4205D166
:1017D00000200123E06484F8493070BD042384F8BC
:1017E0004930E36C43F00103E364012070BD00BFA6
:1017F0000038024000270140FF16FCFC89F1FFC0C1
:10180000FEFF80BF70B504460D4601F065FF064639
:1018100023681A68920710D4691CFAD03DB90323D3
:1018200084F84930002384F84830012070BD01F06D
:1018300053FF801BA842EBD9F1E7A26912B96FF000
:1018400012021A6094F84930042B0BD094F84930F6
:10185000352B07D094F84930252B0CBF35231523A1
:1018600084F84930002070BD0368986D704700000F
:1018700070B590F84830012B00F08D80012380F87E
:1018800048304A680368062A4FEA82050C680BD87C
:101890002A44053A1F25954094401E6C26EA05050A
:1018A00045EA04021A6434E00C2A0BD82A44233A8D
:1018B0001F2595409440DE6B26EA050545EA0402A3
:1018C000DA6326E0122A0BD82A44413A1F259540B4
:1018D00094409E6B26EA050545EA04029A6318E0E7
:1018E000182A0BD82A445F3A1F25954094405E6B16
:1018F00026EA050545EA04025A630AE02A447D3ACD
:101900001F25954094401E6B26EA050545EA040212
:101910001A630B68092B0DD803EB430307259D4081
:101920000268546924EA05058C6804FA03F32B4322
:10193000536122E0132B0ED803EB43031E3B072514
:101940009D400268146924EA05058C689C4045EABC
:101950000403136111E01A2B0ED803EB43033C3B45
:1019600007259D400268D46824EA05058C689C40E0
:1019700045EA0403D36000E000BF0B68103B012B75
:1019800004D8064B5A6842F400025A60002380F8DB
:101990004830184670BD022070BD00BF00270140CE
:1019A00070B5036804461A68520601D5002070BD60
:1019B0009A6842F001029A6001F08EFE06462368A2
:1019C0001B6813F04005F1D101F086FE801B022850
:1019D000F5D9042384F84930E36C84F8485043F087
:1019E0000103E364012070BD10B590F8483004464F
:1019F000012B21D0012380F84830FFF7D1FF0128C7
:101A000016D094F849306FF00202222B0CBF32231B
:101A1000122384F849300023E36423681A602368A2
:101A20009A6812F0405F03D19A6842F080429A604F
:101A3000002384F8483010BD022010BD10B5074BBC
:101A4000044603F108023433026040F8043F03F017
:101A5000C1F92046FEF796FE204610BD30A00008D2
:101A6000A0F10400FFF7EABF10B50446FFF7E6FF58
:101A7000204604F017FD204610BDA0F10400FFF73A
:101A8000F3BF0000074B10B50022044640F8043BAA
:101A900003F0C2F9044B204603F1080234332260FC
:101AA000636010BDF89C000830A0000838B5104BEA
:101AB0001A681C46D26812F0020F01D001F0D4FE61
:101AC0002368DA68520711D56FF00402094D1A61D4
:101AD0005C6A2B68E31AB3F57A7F07D301F0F4FD53
:101AE000034B04F57A721B682C609A6338BD00BF03
:101AF0005C0500205805002038B51F4B1F4C5A6A62
:101B0000002542F008025A629A6942F008029A617E
:101B10009A6922F008029A6103F08CFF184B204664
:101B200023604FF0FF33E360164B25611A68164BB4
:101B3000A560B2FBF3F3013B636002F015FE2E20BB
:101B4000124901F0EFFE124B4FF480425A602946D1
:101B5000204602F01FFE2046042102F01BFE2368EF
:101B60000C495A6A28460A6002F57A729A63DA6862
:101B700042F00402DA6038BD003802405C05002003
:101B8000000C00404801002040420F00AD1A000840
:101B900000E100E058050020002310B50360436019
:101BA000044B0446836004F0A5FB034B20461C60F5
:101BB00010BD00BFA08601009405002010B5816013
:101BC000044604F0C1FA014B1C6010BD94050020CE
:101BD00038B5054D04462B68834203D0816804F074
:101BE000B3FA2C6038BD00BF94050020F7B51C4641
:101BF00005460F461646FFF7EBFF9DF820302846B6
:101C000083F00103009339463246234604F006FB75
:101C1000201A18BF012003B0F0BD0000014B036083
:101C2000704700BF78A0000890F86D02704780F8F8
:101C30006D12704790F8100370470000000000001C
:101C400038B50446C0F81413084604F09BFE0EA3F2
:101C5000D3E9002305F036F805F0CCF923680546F2
:101C6000C5F3074220461B6D06219847236820468E
:101C7000C5F307221B6D07219847236820461B6D7B
:101C80000821EAB2984738BD0000000080844E4029
:101C90002DE9F04F87B002939DF848300446039336
:101CA0009DF85830019104939DF8603016460593D5
:101CB0000368109F5B69119DBDF84C809DF85090A2
:101CC0009DF854A09847236809215B6D20469847EA
:101CD000236802465B6D4D2100922046984721689B
:101CE0008346D1F880302046D4F814139847009AE0
:101CF00002F07F021043C2B242F07002110622D5F8
:101D0000112ECBBF4BF007030BF0F8035FFA83FBF8
:101D100043F0040B0BF00701072922F00F0208D152
:101D2000042E03DD142EA8BF142600E00526711F23
:101D300007E0012E03DD112EA8BF112600E00226C8
:101D4000B11E0A430AE0731C03DB0E2EA8BF0E2649
:101D500001E04FF0FF36721C42F070022168D2B2EF
:101D60000B6D20460921984722682046D2F850C0C2
:101D70004D215A46E047019B13B1012B69D02EE15A
:101D8000029B84F81863C4F81C33059BC4F82853DD
:101D900084F83133199B84F830A3C4F834330298A3
:101DA000C4F82073A4F82C8384F82E9304F0EAFD81
:101DB0008DA3D3E9002304F085FF05F01BF9236808
:101DC00086B2320A20461B6D042198472368F2B27E
:101DD0001B6D204605219847284604F0D3FD024696
:101DE0000B4683A1D1E9000104F06CFF05F002F974
:101DF000236885B22A0A20461B6D02219847236872
:101E00002046EAB21B6D03219847236820464FEA1B
:101E100018221B6D2521984723685FFA88F2204617
:101E20001B6D26219847236820461D6D30215B6D70
:101E30009847B9F1000F00F06F0040EA0A1A0CBF92
:101E4000802300234AEA030220463021D2B2A84769
:101E5000C5E0092F84F8486300D9FEE7039B0C2DE9
:101E600084F85533049BC4F84C7384F85B339DF8B5
:101E70005C30C4F8505384F85C33059BA4F8568357
:101E800084F85D33199B84F8589384F85AA3C4F8F6
:101E900060331DD8052D08D9082F02D10C2D1DD176
:101EA00019E0072F06D10A2D07E0082F15D0072FBC
:101EB00013D00625062F02D1092D0CD80EE0052FD0
:101EC000FAD0042F01D1082DF7E7032F06D802E03E
:101ED000082F7FD10C25012301E00625002384F87B
:101EE0005433049B93B1236844211E6D20465B6DDF
:101EF000984760F07F0244212046D2B2B047236861
:101F000020461B6D242194F85C23984723681D21EB
:101F10001E6D20465B6D9847039B204649EA4309A6
:101F200049EA0712D2B21D21B04723681E211E6D57
:101F300020465B6D98474FEA8A0A4AEA051A00F084
:101F40000B004AEA0002D2B220461E21B0472368A5
:101F500026211E6D20465B6D984794F8542320F08F
:101F6000080040EAC20226212046D2B2B0472368C8
:101F700020461B6D20214FEA1822984723682046EF
:101F80001B6D21215FFA88F298472368062D2046B1
:101F90001D6D4FF031015B6D0DD1984700F0F802D7
:101FA0003121204642F00502A847236820461B6DD8
:101FB00037210C220CE0984700F0F802312120462E
:101FC00042F00302A847236820461B6D37210A22EE
:101FD000984704E0072F3FF47DAF0C256AE707B070
:101FE000BDE8F08FAFF300800000000080844E4019
:101FF0000000000080847E4170B590F87432044681
:102000008B420D461DD084F874120368D3F88430D7
:1020100039B1002198472368032DD3F8903020462A
:1020200001D1012100E000219847236801211E6DA4
:1020300020465B6D984700F0F802012120462A43B4
:10204000B04770BD70B590F8113304468B420D4611
:102050004AD084F8111303680129D3F894304FF063
:10206000000117D09847236801211D6D20465B6D44
:102070009847012100F07F022046A84723682046A8
:102080001B6D402100229847236820461B6D41218B
:10209000302228E09847236829461E6D20465B6D54
:1020A000984760F07F0229462046D2B2B0472368A5
:1020B00000221B6D204630219847236831211D6D79
:1020C00020465B6D9847312100F07F022046A847EB
:1020D000236820461B6D4021002298472368204634
:1020E0001B6D41210022984770BD704710B5034B0E
:1020F0000446036004F0D6F9204610BD78A000081D
:1021000010B5044600F51F7002F0C5FA04F52B70F7
:1021100002F0C1FA23682046D3F894300021984792
:1021200010BD10B5044600F51F7002F0B4FA04F5B6
:102130002B7002F0B0FA23682046D3F894300121C6
:10214000984710BD70B590F810330446022B02D0AA
:10215000052B3BD070BD90F8115315B1012D2BD03C
:1021600070BDB0F842338BB9B0F8443373B990F80E
:102170002E2303682AB95B6E00F242310122984790
:1021800004E05B6D32219847A4F84203B4F842534F
:10219000B4F8443394F84623ED1A95422068D4F8F5
:1021A000701206DD456E19442046A84794F8462370
:1021B00020E0466E204622E000F52B7002F06BFA1C
:1021C000236984F810530BB3984770BD90F811330E
:1021D000E3B9B0F84253B0F8443390F84723ED1A0E
:1021E00095420668D0F8701208DD356E1944A8478C
:1021F00094F84723B4F84433134405E0366E194489
:10220000EAB2B047B4F84233A4F8443370BD0000DA
:1022100038B590F810230446022A02D0052A41D08E
:1022200038BD90F8113313B1012B34D038BDB0F85C
:102230003853012D4CD100F5377002F02CFA236889
:1022400084F839535B6D1121204698474010404275
:10225000236884F83A035B6D1B2120469847236866
:1022600005465B6D1C212046984740EA052004F096
:1022700099FB19A3D3E9002304F0FAFB04F092FEC2
:102280002368C4F83C035B6D20460C219847400945
:1022900084F8400338BD90F85B33CBB1036812215A
:1022A0001B6D0AE090F81133012B11D190F85B33CC
:1022B00073B1036812211B6D02229847A5693DB1D5
:1022C000236820465B6D1C21984700F03F00A8471B
:1022D00038BD00BFAFF300800000000080844E4096
:1022E0002DE9F0410568044698466B6917460E468D
:1022F000984725682046AB693946984722682046AA
:10230000D2F8943005219847012003F077FB22682A
:102310003146D36C2046984722680546936B204689
:1023200098474545CCBF00200120BDE8F08170B53D
:10233000036804465B6901219847236820461B6DAA
:102340001121FF22984723682046D3F894300521B5
:10235000984700252E46012003F050FB23682046B5
:102360005B6D2C21984700F00100A8400135202D1D
:1023700046EA0006EFD1236820469B6B984730461B
:1023800070BDF7B590F81153012704460E468DF83D
:10239000072080F81073036815B1BD422BD06CE0A4
:1023A0009DF8072090F82E13A0F84453A0F842237C
:1023B00029B91B6E0DF107013A46984702E01B6DE3
:1023C000322198479DF8073031465A1E3F2A88BF70
:1023D000202384F84733236894F847231B6E204654
:1023E0009847B4F8443394F84723D4F8341313448B
:1023F000A4F8443342E090F85D231D6D33215B6DFA
:102400002AB19847332100F0BE02204606E09847E3
:1024100000F0BE023321204642F00102A8479DF899
:102420000720236884F866231B6D204622219847E5
:10243000236820461B6D0E21002298472368204602
:102440001B6D0D2100229847236820465B6D0121FA
:10245000984730F0F80306D123682046DB6B984795
:10246000012003F0CBFA236831461B6E20469DF80D
:1024700007209847D4F8601300E000212368204625
:102480009B6C984703B0F0BD2DE9F84F8046164687
:1024900011B1012955D0DEE0036827215B6DB0F84A
:1024A0002C43984720F0F8000130204404F07AFAD9
:1024B00098F82E3300220BB1002300E06C4B04F09F
:1024C00025F9D8F8003004465B6D0D4640463021B2
:1024D000984730F0F90314BF654B002300222046D3
:1024E000294604F013F9044630460D4604F05AFA22
:1024F00002460B462046294604F008F998F8303386
:10250000002213B14FF0804300E0002304F0FEF8F6
:102510000022584B04F0ACFA0446D8F828030D46C4
:1025200004F030FA02460B462046294604F0CAFB66
:102530004BA3D3E9002304F09BFABDE8F84F03F066
:10254000BFBFD0F84C33092B05D84B4A02EBC3036D
:10255000D3E9004501E000240025D8F8507301209C
:10256000B84004F01FFA02460B462046294604F004
:10257000A9FB02460B4600203D4904F0A3FB04469C
:10258000B8F856030D4604F00DFA00223B4B04F058
:10259000BDF822462B4604F06BFA4FEA870998F8FB
:1025A00058338B4698F85A13C9F11C02002B02EBE2
:1025B000011202EBC60682460CBF00201420301A1E
:1025C00004F0E0F998F854330646002B0CBF0020C5
:1025D0000820C0EB09000F4604F0D4F902460B4670
:1025E0003046394604F06EFB03F06AFF064698F861
:1025F00055030F46043004F0D5F902460B46304629
:10260000394604F035FA0022002306460F4604F04E
:10261000BFFC30B1304639460022164B04F076F844
:1026200001E01449002022462B4604F021FA02461C
:102630000B465046594604F069F809A3D3E9002334
:1026400004F016FA08A3D3E9002304F05FF8BDE80C
:10265000F84F03F0C5BF00200021BDE8F88F00BF90
:102660000000000080842E412B8716D9CEF7EF3F63
:102670000000F03F00002040E8A0000800001140EA
:1026800007B50246086849686B4603C311F0010F9D
:102690004FEA610018BF1158009B104418BFCB5877
:1026A000984703B05DF804FB38B590F81133044641
:1026B000012B17D10368FA221B6D1121984723685B
:1026C00040211D6D20465B6D9847402100F03F0280
:1026D0002046A8470721236884F81013D3F89430C4
:1026E0002046984738BD000008B511B1012907D030
:1026F00021E0036811215B6D98474010404218E0CB
:102700001149D0F8142303688A425B6D4FF01B0116
:1027100006D9984704F046F909A3D3E9002304E059
:10272000984704F03FF9094B002203F0EDFF04F055
:1027300039FC80B201E04FF6FF7000B208BD00BF67
:102740000000000000A0634040DD4A1F008064409C
:1027500070B590F811530446012D17D1036812216A
:102760005B6D9847236810F001061B6D20464FF003
:10277000120105D005229847E3693BB1284604E0E1
:1027800004229847E3690BB13046984770BD90F832
:1027900011332BB990F8383313B9012380F838334B
:1027A000704738B590F810330446022B02D0052B41
:1027B0002FD038BD90F811334BBB80F8383380F8F8
:1027C0003933A0F84433A0F8423303683E211B6D2F
:1027D0000B229847236820461B6D3F211022984703
:1027E00094F8323363B1236820461D6D0D215B6D73
:1027F000984740F040020D212046D2B2A84706E09B
:10280000012384F8103304F5377001F044FF236985
:1028100003E0012380F81033836803B1984738BD83
:1028200010B5044603F076FC044A204640F8142B09
:10283000002103F0E8F8204610BD00BF88A500087D
:102840007FB5089D04460095099D04F15006019549
:102850000A9D02950B9D039500F00CFF4C4B204602
:1028600040F8203B4FF0FF33142500939DF93010C2
:102870009DF938309DF93420FEF7D0FA2A463046CB
:10288000002105F073FA30469DF93C1004F164060E
:1028900002F09CFA2A463046002105F067FA3046DD
:1028A0009DF9401002F076FA9DF9441004F1780089
:1028B000FEF736FE9DF9481004F1D800FEF730FE11
:1028C0009DF94C1004F59C70FEF72AFE9DF95010FE
:1028D00004F5CC70FEF724FE04F516769DF954102D
:1028E00004F5FC70FEF71CFE2A463046002105F078
:1028F0003DFA284D9DF958103046002602F04AFA5C
:1029000084F86C6204F51F70FFF78AFFC4F87C52EC
:1029100004F52B70FFF784FFC4F8AC5204F5377050
:10292000FFF77EFFC4F8DC520A2003F067F884F852
:102930000C634FF4807003F0BEFD0125C4F87002F3
:1029400084F87452302003F0B6FD9823C4F878025E
:1029500080E82800D4F878329C229A60DD60D4F8B0
:102960007832A0221A615D61D4F87832A4229A618B
:10297000DD61D4F87832A8221A625D62D4F8783228
:1029800020469E62DE6284F8105304B070BD00BF22
:10299000F0A10008C09E0008F8B5036809215B6D2E
:1029A00004469847236806215B6D064620469847F3
:1029B000236805465B6D072120469847236800027F
:1029C00040EA05455B6D082120469847284303F0FF
:1029D000D9FF21A3D3E9002304F04AF804F00AFB4D
:1029E000236800221B6D092105462046984723686D
:1029F0003B211F6D20465B6D984740F040023B2114
:102A00002046D2B2B847236820465B6D3B219847E9
:102A10008206F8D4124B3B21C4F8143323682046B5
:102A20001F6D5B6D984740F040023B212046D2B2BB
:102A3000B847236820465B6D3B2198478306F8D44E
:102A4000236820461B6D092132469847236820469B
:102A50009B6929469847F8BD0000000080844E40DD
:102A600000A1BC33AFF3008010B50023074ADC009F
:102A700052F83310884205D322449168884201D22B
:102A8000107910BD0133152BF0D1FEE738A10008F5
:102A90002DE9F04F85B01D469DF838309DF860C097
:102AA0000393164603689DF85C205B6902910192CE
:102AB000CDF800C00446BDF84080BDF844B09DF894
:102AC00048709DF84C909DF850A098470299019A43
:102AD000DDF800C011B1012969D03FE10F9B84F8F6
:102AE00032C3C4F82853C4F8243384F830A384F8DC
:102AF00031232846C4F8206384F82E7384F82F937A
:102B0000A4F82C8303F03EFF02460B4696A1D1E9C0
:102B1000000104F0D7F804F06DFA236885B22A0AA0
:102B20001B6D2046022198472368EAB21B6D0321E2
:102B3000204698473046FFF797FF236802461B6DF3
:102B40001221204698470F98FFF78EFF2368024610
:102B50001B6D204613219847236820461B6D2521B5
:102B60004FEA1822984723685FFA88F21B6D2046C7
:102B700026219847236830211D6D20465B6D9847BC
:102B8000002F00F06F000CBF8023002340EA0A1AD8
:102B90004AEA030220463021D2B2A847002F00F0B3
:102BA000DD80236820461B6D32214A46CFE0092E86
:102BB00000D9FEE7039B0C2D84F855339DF8543063
:102BC000C4F84C6384F85B339DF85830C4F8505314
:102BD00084F8587384F8599384F85AA384F85C33C2
:102BE00084F85D2384F85EC31ED8052D08D9082E0D
:102BF00002D10C2D1ED11BE0072E07D10A2D08E0B3
:102C0000082E4FF0060515D0072E13D0062E02D140
:102C1000092D0DD80EE0052EFAD0042E01D1082D75
:102C2000F7E7032E06D803E0082E40F092800C252B
:102C3000012300E00023226884F85433136D1D2122
:102C4000526D2046019390470399204647EA41027E
:102C500042EA0612D2B21D21019B984723681E2129
:102C60001E6D20465B6D9847CBF3012242EA8A0A2B
:102C700000F008004AEA000A4AEA0512D2B22046E9
:102C80001E21B047236826211E6D20465B6D9847A4
:102C900094F8542320F0080040EAC202262120467E
:102CA000D2B2B047236820461B6D1F215FFA8BF21A
:102CB0009847236820461B6D20214FEA1822984729
:102CC000236820461B6D21215FFA88F298472FB1B7
:102CD000236820461B6D22214A46984794F85B33AF
:102CE00093B1236844211E6D20465B6D984760F0C8
:102CF0007F0244212046D2B2B047236820461B6D94
:102D0000242194F85C2398472368062D20461D6DE6
:102D10004FF031015B6D0DD1984700F0F802312181
:102D2000204642F00502A847236820461B6D372144
:102D30000C220CE0984700F0F8023121204642F0C6
:102D40000302A847236820461B6D37210A229847B3
:102D500004E0072E3FF46BAF0C2557E705B0BDE844
:102D6000F08F00BFAFF300800000000080847E4140
:102D70001FB5044602A880E80C008DE80C0003464D
:102D8000A16103CB064B21620699E061E362204614
:102D90000023636104B0BDE8104001F087BC00BFB0
:102DA00081260008000000002DE9F04190F8114351
:102DB00086B006460F4614B1012C2ED071E0036890
:102DC0004021D3F850805B6D90F83253984700F063
:102DD000030242F00C0230464021C04733684121D3
:102DE000D3F8508030465B6D984760F03E02412139
:102DF0003046D2B2C047336830465B6D35219847C4
:102E000000F03F0086F8460386F8384386F83943D9
:102E1000A6F84443A6F8424344E0036890F85D23D3
:102E20001C6D33215B6D32B1984740F04102332174
:102E30003046D2B206E0984700F0BE023321304659
:102E400042F00102A047336896F85B2396F85E5380
:102E50001B6D3046112152B11D2298473368304610
:102E60001C6D40215B6D984700F0330209E01F2282
:102E70009847336830461C6D40215B6D984700F0E1
:102E80003F0230464021A047336830461B6D0F217A
:102E900000229847336830461B6D0D210022984769
:102EA00000E00025D6F8700200214FF4807204F093
:102EB0005DFF022386F8103367B1354A02AB92E812
:102EC000030083E80300009706F52B7031460CCB16
:102ED000FFF74EFF336896F81123D3F8943030464D
:102EE000002A47D105219847002D48D1284B04AF2F
:102EF00093E8030087E80300B6F82C0303F052FDC3
:102F0000336804460D465B6D30462721984720F014
:102F1000F80003F047FD00221E4B03F0F7FB0246CA
:102F20000B462046294603F0F1FB0022194B03F023
:102F3000EDFB0022184B03F09BFD0446D6F8280356
:102F40000D4603F01FFD02460B462046294603F0BE
:102F5000B9FE0DA3D3E9002303F08AFD04F04AF87B
:102F600006F5377800903146404697E80C00FFF7A9
:102F7000FFFE04E00DB1052100E00621984706B0F0
:102F8000BDE8F081AFF300800000000080842E4196
:102F9000E0A000080000F03F00002040AFF30080F8
:102FA0007FB590F8113304460D4613B1012B1FD0A5
:102FB0004BE0036840211E6D5B6D9847402100F097
:102FC00003022046B047236841211E6D20465B6DF9
:102FD0009847412100F03E022046B0472368204632
:102FE0005B6D3521984700F03F0084F846032CE0E4
:102FF000036890F85B231B6D1121C2B1F52298473D
:10300000236840211E6D20465B6D9847402100F0EB
:103010003F020A432046B047236840211E6D2046E8
:103020005B6D9847402100F0F30220460CE0F72248
:103030009847236840211E6D20465B6D98474021CC
:1030400000F03F020A432046B04705230B4A84F8AC
:10305000103302AB92E8030083E8030000950CCB29
:1030600004F51F702146FFF783FE23682046D3F83E
:1030700094300321984704B070BD00BFE0A0000861
:103080002DE9F043002389B08DF80F3090F810330C
:103090000646022B03D0052B00F0DF81F1E190F80A
:1030A00011431CB1012C00F02081EAE103683F21AB
:1030B0005B6D98478DF80F009DF80F3006F52B7764
:1030C00013F0020F33686ED11B6D30463E210B2288
:1030D0009847336830461B6D3F211022984796F879
:1030E0003233D6F80090002B47D1012386F81033F5
:1030F000AB4B0DF1100893E8030088E80300B6F825
:103100002C0303F04FFCD9F8543004460D463046EA
:103110002721984720F0F80003F044FC0022A14B3F
:1031200003F0F4FA02460B462046294603F0EEFA75
:1031300000229C4B03F0EAFA00229B4B03F098FC20
:103140000446D6F828030D4603F01CFC02460B4645
:103150002046294603F0B6FD8DA3D3E9002303F0F2
:1031600087FC03F047FF06F5377900903146484663
:1031700098E80C00FFF7FCFD0CE00D21D9F8543065
:103180003046D9F85040984740F040020D21304673
:10319000D2B2A047384601F07EFA7369002B00F0E6
:1031A0009A80984797E0B6F84223B6F84413F2B9EC
:1031B000E9B996F82E2332B95B6E304606F24231F9
:1031C0000122984705E05B6D304632219847A6F80A
:1031D0004203B6F8443396F842233068D6F87012AA
:1031E000D21A446E19443046D2B2A04707E0D6F84E
:1031F0007042521A5B6E30462144D2B29847B6F8FC
:103200004233D6F80090A6F8443396F83233002BB8
:1032100047D1012386F81033614B0DF1180893E86C
:10322000030088E80300B6F82C0303F0BBFBD9F8D1
:10323000543004460D4630462721984720F0F800C8
:1032400003F0B0FB0022574B03F060FA02460B4636
:103250002046294603F05AFA0022524B03F056FA50
:103260000022514B03F004FC0446D6F828030D4617
:1032700003F088FB02460B462046294603F022FD58
:1032800043A3D3E9002303F0F3FB03F0B3FE06F5F9
:10329000377900903146484698E80C00FFF768FD02
:1032A0000CE00D21D9F854303046D9F850409847F9
:1032B00040F040020D213046D2B2A047384601F01E
:1032C000EAF9F4683CB1D6F87002B6F8421396F900
:1032D0003A230023A047002386F8383386F8393391
:1032E000A6F84433A6F84233CBE0036812211B6DE5
:1032F00040229847336830465B6D122198478DF81D
:103300000F009DF80F3006F52B7813F0200F33686F
:103310000ED01B6D304612212022984796F85E335E
:103320000BB986F81043404601F0B5F97369A6E081
:103330005B6D304619219847C0B24FFA80F9B9F158
:10334000000F86F8640308DAC9F10009C9F3870998
:10335000C9F100095FFA89F901E0C9F38709336807
:1033600030465B6D1A21984796F964330746002B67
:10337000D6F814230D4B00B24FEA27172DDA9A42E4
:1033800016D903F00FFB04A3D3E9002314E000BF18
:103390000000000080842E410000000000A0634077
:1033A000E0A000080000F03F0000204040DD4A1F80
:1033B00003F0F8FA364B002203F0A6F9044638462B
:1033C0000D4603F0EFFA02460B462046294603F06D
:1033D0009DF904460D46484610E09A4205D903F08F
:1033E000E1FA29A3D3E9002303E003F0DBFA284B39
:1033F000002203F089F904460D46384603F0D2FA5C
:1034000002460B462046294603F080F903F0CAFD28
:10341000336886F865035B6D13213046984733683F
:1034200086F8660302465B6E3046D6F870129847FF
:1034300096F85E3313B9012386F81033404601F045
:103440002AF9F468ECB1D6F8700296F8661396F98A
:10345000652396F96433A04713E000F51F7001F06F
:103460001AF996F81133012B05D1336830461B6DDC
:10347000122108229847012386F81033736803B19C
:10348000984709B0BDE8F0830000000000A0634049
:1034900000806440AFF3008010B5184B0446036011
:1034A000D0F8700202F0FEFFD4F8780202F0FAFFC2
:1034B00004F53770FDF724FD04F52B70FDF720FDB2
:1034C00004F51F70FDF71CFD04F5FC70FEF708F80D
:1034D00004F5CC70FEF704F804F59C70FEF700F8D4
:1034E00004F1D800FDF7FCFF04F17800FDF7F8FFC8
:1034F000034B20462362034B236010BDF0A100085C
:10350000A89E000878A0000810B50446FFF7C4FF85
:10351000204602F0C7FF204610BD0000F0B5002392
:1035200001229A400C681440944240F098804A6806
:1035300022F01002022A0FD103F00705AD000F2779
:10354000AF40DA0800EB8202166A26EA07070E6926
:10355000AE4047EA060515625A004E6803259540BD
:1035600006F0030696400768ED432F403E43066091
:103570004E6826F01006013E012E0ED8CE688768F0
:1035800096402F403E4386604E684768C6F300165B
:103590009E4027EA04073E434660C66835408E6871
:1035A000964045EA0602C2604A68D20057D503F049
:1035B0000306B6000F27B7402B4A156A45F00105F0
:1035C000156223F0030505F1804505F58035AA68ED
:1035D00022EA0707254A904216D002F580629042FF
:1035E00014D002F58062904212D002F580629042BF
:1035F00010D002F5806290420ED002F580629042B7
:1036000014BF0822072208E0002206E0012204E09D
:10361000022202E0032200E00422B2403A43AA6000
:10362000134A4F681668E543FF034CBF26432E40FC
:1036300016604F685668BF034CBF26432E40566045
:103640004F689668FF024CBF26432E4096604F6835
:10365000D668BF0254BF05EA06043443D460013380
:10366000102B7FF45DAFF0BD003802400000024037
:103670000004014030B5C360039B064D0361049B09
:1036800005604361059B41608361069B8260C36165
:1036900030BD00BF78A000087047000008B5094B96
:1036A00003201A6842F004021A601A6842F002020B
:1036B0001A6001F0FFFA0F20FEF71EFAFFF7ECFF89
:1036C000002008BD003C0240024B1A6801321A601B
:1036D000704700BF98050020014B1868704700BF75
:1036E000980500201FB52E4A0368136090F9043036
:1036F000252B51D8DFE803F0131517191B1D1F21C7
:103700005050505050505050232550505050505011
:10371000505050503335373927292B2D2F31002366
:1037200024E0012322E0022320E003231EE00423FF
:103730001CE005231AE0062318E0072316E00823FF
:1037400014E0092312E00A2310E00B230EE00C23FF
:103750000CE00D230AE00E2308E00F2306E01223FD
:1037600004E0132302E0142300E015230193012356
:1037700001A902930A4802230393FEF779F8084847
:10378000FEF732F906480A21FEF73CF820B9044852
:10379000FEF76AF880B200E0002005B05DF804FB97
:1037A0009C05002070B506468EB008460C461E49A2
:1037B000FDF7F6FD3060013004D11C481C49312270
:1037C00002F00CFE20461849FDF7AEFD194B34718E
:1037D0001C68002C26D101251D6001A8022301933D
:1037E00004950A9401F044FB326813480260134ABE
:1037F000116A41F4007111624FF480614FF400329C
:103800004161102142608460C46004618161C261D1
:10381000046244628562C462056344638463C46372
:10382000FDF754FF0EB070BD7CA90008A8A20008E7
:10383000C0A20008EC0500209C05002000380240D2
:1038400008B5FFF74FFFC0F3032343EA001080B22F
:1038500008BD000010B5044602F0D4FD014B1C6009
:1038600010BD00BFF405002038B502F0FFFD0E4C7E
:1038700023681BB9BDE8384002F0EEBD1D6802F0B8
:10388000D3FD281A002809DC226893682360074BBF
:103890001B68002BEBD050689847E8E7236818684E
:1038A000BDE8384002F0CEBDF0050020F405002050
:1038B00038B5054672B680E806000A4A0023146847
:1038C00034B12068081A002802DB2346A468F7E711
:1038D00023B90846156002F0B5FD00E09D60AC60BC
:1038E00062B638BDF005002008B572B60C4A136800
:1038F00083420DD19B68136013B902F0ADFD0CE05B
:10390000186802F09FFD08E09A68824203D01346CF
:10391000002BF9D101E082689A6062B608BD00BF51
:10392000F005002010B50C4A946892682346B2F165
:10393000006F0DD1094B04F160420432D25843F8B4
:10394000042F074A9342F6D1034A4FF00053936085
:10395000103043F8201010BD00ED00E0FCFFFF1F09
:103960002001002008B5044B186803689B6B98473A
:10397000024B05221A7008BD600600206406002074
:1039800008B5044B186803689B6B9847024B0622E6
:103990001A7008BD600600206406002008B5074BB9
:1039A000186803689B6B9847054B064A1B880021E3
:1039B000D154054B03221A7008BD00BF60060020D9
:1039C00044010020600700206406002008B5044B75
:1039D000186803689B6B9847024B04221A7008BD55
:1039E000600600206406002010B50446FDF77AFA50
:1039F000204610BD1FB500238DF80D1090F8501013
:103A000000938DF80C3003AA0223C06CFEF7EEF889
:103A100005B05DF804FB1FB540238DF80C30002382
:103A20008DF80D1090F85010009303AA0223C06C7B
:103A3000FEF7DCF805B05DF804FB70B5402388B0F4
:103A40008DF80C30426C036C0446D31A9EB20025EC
:103A5000B54215D2226C00235119C85C03A9194440
:103A60000133102B4870F7D10023009394F85010C5
:103A7000E06C03AA11231035FEF7B8F8ADB2E7E702
:103A800008B070BD0EB403B538B1064B04AA1B686C
:103A90000399D868019205F055F802B05DF804EB7F
:103AA00003B07047AC0100202DE9F04198460C4B63
:103AB000074618680C4605681646AB6B9847094BD5
:103AC0003946224608481C8004F02CF90749084B67
:103AD00002224E8181F80E801A70BDE8F08100BF8D
:103AE00060060020440100206007002074060020CA
:103AF0006406002038B590F90030044601330D46C5
:103B000004D105480549352202F068FCE368626883
:103B100005B912041A6038BD109E0008289E0008DE
:103B200010B5094C94F90030013304D10748084915
:103B3000432202F053FCA3681A6863681A420CBF60
:103B40000020012010BD00BF2C070020109E00089F
:103B5000289E000810B5074B044603606433436099
:103B6000006C08B102F09EFC2046FCF72FFC2046BA
:103B700010BD00BFA0A50008A0F10400FFF7EABF38
:103B800010B50446FFF7E6FF204602F08BFC204606
:103B900010BDA0F10400F3E710B5044B0446036028
:103BA00064334360FFF7D6FF204610BD48A30008EA
:103BB000A0F10400FFF7F0BF10B50446FFF7ECFFDB
:103BC000204602F06FFC204610BDA0F10400F3E790
:103BD00038B5142204460D46002104F0C7F82046EB
:103BE000294601F0F3F8204638BD00002DE9F341E5
:103BF000954A964C1388C3F30B07002F40F01381AE
:103C00001E0470D4924D6FEA43436FEA5343286811
:103C1000138000F00EFF2868022380F82830E37B31
:103C2000078447840BB98B4903E0012B0CBF8A49F9
:103C30008A4902F0BDF828680027102307844384CE
:103C4000874902F0B5F828680126242380F8286007
:103C500007844384834902F0ABF828682E23078445
:103C60004384814902F0A4F82868382307844384F8
:103C70007E4902F09DF82868022203688DE844001E
:103C80005E219F6C32460423B847286803270368E7
:103C900001960097D3F848C05C2104220823E0472E
:103CA00028680822036801960097D3F848C05C2171
:103CB0001346E04728680C220368009701969E6C23
:103CC0005C210823B04728686823038405234384C4
:103CD000674902F06DF82378642043F004032370F1
:103CE00001F08CFE9FE0634800F094FF00283BD079
:103CF0002378574EDD4305F00105306865F3000376
:103D00000122DBB280F8282043F004033822078424
:103D100042842370374685B1574B1B7853B15749BE
:103D2000574804F092FA574B554918680522036822
:103D30005B6B98473868544914E0544902F038F8EE
:103D400030681027036800970195D3F848C07821A0
:103D500008233A46E04730680223414980F828307A
:103D60000584478402F024F8B4F90A2040F6FF7372
:103D70009A42364E23D1DFF8D8804FF48053D8F8DA
:103D8000000010257381002703688DE8A0007821CA
:103D9000D3F848C02A460823E047D8F80000022399
:103DA00080F8283033784584DD0707844CBF3849D4
:103DB0002B4901F0FDFF237843F0040323702278A0
:103DC000224B91072FD56FF341021A70204A02212E
:103DD0001068154680F828100021018410214184C4
:103DE0001989B3F90A2011F0010F0CBF29492A499A
:103DF000002AB8BF524201F0DBFF28684423038445
:103E0000102343842389B4F90C2013F0010F0CBF55
:103E100022492349002AB8BF524201F0C9FF237842
:103E200043F00403237023785A070AD5074A6FF337
:103E300082031370064B186802B0BDE8F04100F031
:103E4000E3BD02B0BDE8F081380600207406002012
:103E50009C060020BDA30008C4A30008CBA3000853
:103E6000D3A30008DEA30008F3A3000809A40008F8
:103E700017A40008A00600204601002075A5000830
:103E800060070020600600201DA400082CA4000884
:103E90003BA4000846A400084EA4000856A400084D
:103EA0005DA4000838B533480021FFF723FE012147
:103EB000304800F0E5FE962001F0A0FD2E4B2F4883
:103EC0001C78621C1A70FFF7BBFC2D4B2D4A197829
:103ED00004F01F0422F8140011B100231C460AE06C
:103EE00001211970134602F13E01108823F8020FD8
:103EF0008B42FAD1F1E7995A0233402B0C44FAD1A4
:103F000000211C4800F0BCFE600903F049F91E497D
:103F100003F09EF903F012FB80B2B0F5486F09D3AD
:103F2000A0F548640A2394FBF3F4A4B2652C28BFDF
:103F3000642400E00024154D01232868144980F80A
:103F400028306823038405234384224601F030FF90
:103F5000642C09D02868202101F01EFF092C03D809
:103F60002868202101F018FF2868BDE8384000F0DB
:103F70004BBD00BF4C0700208406002058060020DF
:103F800070060020F8050020CE40CE3D9C060020A3
:103F900064A4000838B50C1A0346154604D0104630
:103FA0001946224603F0C7FE281938BD2DE9F0470F
:103FB00004460E4699461546002A6ED04768836827
:103FC000DB1B934232D3C1EB0708904599F8009070
:103FD00014D9C2EB070840463A463946FFF7DAFFE4
:103FE0006368B8EB06022B44636003D0B81A31460D
:103FF00003F0A1FE304649462A4613E0C8EB02050D
:1040000049462A46384603F0B1FE626839462A44DA
:1040100062603046FFF7BEFF63683046434463602A
:1040200049464246BDE8F04703F0A0BE00683F1A8B
:10403000FB43934202D21A4802F03FFABA422CBF25
:1040400007EB020807EB0708B84538BF4FF0FF3809
:10405000C0EB010AB8F1000F04D0404602F00EFA9E
:10406000074600E047462A4699F8001007EB0A0089
:1040700003F07CFE31463A462068FFF78BFF61680B
:1040800042193046FFF786FF0546206808B102F066
:1040900009FA276047446560A760BDE8F08700BF64
:1040A00069A400082DE9F04FA548A64C8FB0002167
:1040B000FFF720FD00211022A34803F057FE204601
:1040C0000021102203F052FEA04BA14F23600923D0
:1040D000A3720C23E3720E23237308236373052357
:1040E000E3730423A3733B78012020710BB199493A
:1040F00000E09949FFF7C6FC00219848FFF7FAFC59
:10410000974800F00BFE964800F0E7FD642001F0B0
:1041100075FC542002F0B2F90021044601F01AFEA9
:1041200040236383E3830123A38484F8283084F845
:104130002A308C4B0025802204F12C062360643346
:104140002283A283636025846584E58484F82950F2
:1041500030460821FFF73CFD30462946FFF7CAFCF0
:104160000EAB4FF4806204F1400025646564A564E1
:1041700003F8015D2946FFF719FF7B4B20462360BA
:1041800064336360794B0221E364782384F8503010
:1041900000F074FB204600F013FB204600F034FCD6
:1041A000734BA9461C602E462C469A460A2001F005
:1041B00025FC6B4800F0AAFD484503DD09F57A7936
:1041C000FFF770FE6B4DFFF711FDD5F80080AB4691
:1041D000B8F1000F1CD14FF4647002F04FF9664B38
:1041E00004460093654B66490193664A664BCDF8D9
:1041F0000880CDF80C80FCF79FFD2C602368524AA4
:104200002046DB68D17B98470A2001F0F7FB444643
:104210002868422103685B6D98478046002873D167
:1042200001205A494246FFF72DFCDAF8000002222D
:1042300080F82820102242845549A0F8208001F0FF
:10424000B7FDDAF8000000F0DFFB642001F0D6FBD8
:10425000DBF80000422103685B6D984708B9C8206D
:10426000F4E7002C43D128683849036800249B698F
:10427000984700204749FFF705FC01204649FFF712
:1042800001FC28680C220368019208220392042290
:104290000792424A4FF001084FF0090B049405942D
:1042A000069408940992CDF800B0CDF80880D3F8B0
:1042B00028C0414623460E22E047286808220368AA
:1042C0000525029204220892CDF8008001940395FE
:1042D00004940594069407940994CDF828805C6AA8
:1042E00041460C235A46A0473B787BB91EE0214B40
:1042F000186810B103685B689847002364202B603E
:1043000001F07CFB012451E7B4B9ACE7244825490E
:1043100003F09BFF0C4B1B78D8070DD5154B20499C
:1043200018682A4603685B6B984705E0114A1E49E6
:10433000106803685B6C9847C6BB002648E000BF66
:104340002C0700204806002074060020A0BCD919C4
:104350004601002080A40008A3A4000888060020CD
:104360003C060020A0A5000848A300084007002044
:104370009C060020600600209D390008CD39000809
:104380006539000881390008A93A0008C5A4000869
:10439000E4A40008EFA4000804A5000880841E001F
:1043A0006007002075A5000840420F00013EB6B22C
:1043B00076B97249724803F048FF724B1B78D907EF
:1043C000BBD5714B6E491868052203685B6B984733
:1043D0006E4C2378062B00F2CE8001A252F823F017
:1043E0000543000877450008FD430008D544000850
:1043F00023450008C944000863450008614D3A7828
:104400002B89DFF884B101332B812B7843F0020331
:104410002B705F4B1B882AB3002B00F0AC80DFF8B9
:1044200060815C494046042203F01FFF002848D108
:10443000FFF776FBD0F1010138BF00215648FFF7A6
:1044400059FB98F8062098F80530012003EB022369
:104450009BB2AB815149B5F90A201BB2FFF712FBA1
:10446000642688E0002B00F08680DFF81481434941
:104470004046042203F0F9FE18BBFFF751FBD0F1D0
:10448000010138BF00214448FFF734FBB5F90A2089
:1044900001204349FFF7F6FA3E49404603F0D5FEB6
:1044A0006B890A2088F8053043F3072388F8063023
:1044B00001F0A4FADBF800004146036807225B6BB9
:1044C0004DE0DBF8000052E03B78002B4DD101209D
:1044D000344948E001203449FFF7D4FA3D78DFF849
:1044E000A880B5B1FFF71CFBD0F1010138BF002156
:1044F0002948244DFFF7FEFA40F6FF7320481F4974
:104500006B8103F0A2FE2B78DA0734D5D8F80000CF
:1045100021E0D8F80000254903685B6C98472570B6
:10452000F0E601202249FFF7ADFA3B78164D14481A
:1045300053B1124903F089FE0A2001F05FFA114BD2
:104540001B78DB0717D505E0124903F07EFE0A2031
:1045500001F054FA2868036809495B6B0522984703
:1045600009E014490120FFF78DFA074B186803682A
:104570000E495B6C984700232370C3E675A50008BD
:1045800060070020740600206006002064060020FA
:1045900044010020B8A300082C07002014A500083F
:1045A0002CA5000840A500084AA5000840420F00BD
:1045B00059A5000866A5000813B512211B48FFF78E
:1045C00007FB1B4C0E211B48FFF702FB2A2300931D
:1045D0002046222321212C2200F0BEFA164A204632
:1045E000164901F063FF164C16481C21FFF7DAF854
:1045F00015482521FFF7D6F814222046002103F0A4
:10460000B5FB20460D21114C00F0C4FB104800F012
:104610008DFB204619211822FDF7BEFA0D492046D0
:1046200002B0BDE81040FDF7C9BA00BF2C0700205A
:10463000A0060020880600203C010020E93900087F
:104640004C07002068060020580600204007002084
:104650003C060020400D030008B5074C05462368C2
:10466000986803F0C5F82368D86803F0C1F805B965
:10467000FEE701F0B1FBFBE7AC01002010B50169DA
:1046800043680446194401F057FD04F11400BDE8E5
:10469000104001F0C1B910B5044601F051FD04F11C
:1046A00014000021BDE8104001F0B2B938B504464D
:1046B0000D4601F045FD256101F0B6FE4119204689
:1046C000BDE8384001F038BDB0F1804F03680ED02E
:1046D0001C4A90420BD002F58062904207D002F54E
:1046E0008062904203D002F57C42904216D14A6823
:1046F00023F07003B0F1804F43EA020315D0114A52
:10470000904212D002F5806290420ED002F5806293
:1047100090420AD002F57C42904206D00A4A90426A
:1047200003D002F58062904203D1CA6823F440733B
:10473000134303608B68C3620B6883620123436188
:10474000704700BF00040040000C014001238B4073
:104750008A4010B5046A9BB224EA03030362036A29
:104760001343036210BD704710B5044680B190F842
:1047700035300BB9FFF7F7FF022384F83530206896
:10478000211DFFF7A1FF012384F83530002010BD63
:10479000012010BD10B5012204460068FFF7D6FFC6
:1047A000236800201A6842F001021A6010BD08B5A3
:1047B00003680029DB6C0CBFA621A721984708BD20
:1047C00070470000002930B554DBB0F91C408C4222
:1047D00050DD002A4EDBB0F91E4094424ADD90F8CD
:1047E000294004F00304022C80F829403AD1048BBC
:1047F000013C611A448B09B2013CA21A12B206E0D4
:10480000012C04D1048B013CA41A0A4621B2012BCD
:10481000194B4FF00805B0F9184002EA030392FB68
:10482000F5F212B2006C04FB02110CD1002B03DA7A
:10483000013B63F00703013301221BB202FA03F3C9
:10484000425C13430CE0002B03DA013B63F00703E7
:10485000013301221BB202FA03F3425C22EA030392
:10486000435430BD032CCBD1448B013C641A114618
:1048700022B2CCE730BD00BF0700008038B590F908
:104880002C30044601330D4604D15D485D49352284
:1048900001F0A4FDA36B226B01201A6001F0AEF8B9
:1048A00094F92C30013304D155485649352201F092
:1048B00095FD226BA36B12041A600A2001F09EF88A
:1048C00094F92C30013304D14D484E49352201F082
:1048D00085FD226BA36B20461A602368AE21DB6C3A
:1048E000984723682046DB6CD521984723682046EB
:1048F000DB6C8021984723682046DB6CA821984711
:10490000A17E23680139DB6C2046C9B29847236831
:104910002046DB6CD321984723682046DB6C0021BE
:10492000984723682046DB6C40219847236820463F
:10493000DB6C8D2198472368012D14BF14211021B1
:10494000DB6C2046984723682046DB6C2021984783
:1049500023682046DB6C0021984723682046DB6CE7
:10496000A121984723682046DB6CC821984723681B
:104970002046DB6CDA219847B4F91A202368202AF4
:1049800014BF12210221DB6C204698472368204681
:10499000DB6C81219847B4F91A202368202ADB6C4C
:1049A00004D0012D14BFCF219F2100E08F2120468C
:1049B000984723682046DB6CD92198472368012D4E
:1049C00014BFF12122212046DB6C98472368204642
:1049D000DB6CDB21984723682046DB6C402198473D
:1049E00023682046DB6CA421984723682046DB6CB3
:1049F000A621984723682046DB6CAF21984738BD35
:104A0000109E0008289E000810B503680446DB6C61
:104A10000021984723682046DB6C102198472368C3
:104A20002046DB6C40219847236820469B6D9847C1
:104A300010BD036C426C934203D0002103F8011BAC
:104A4000F9E7704707B50246086849686B4603C333
:104A500011F0010F4FEA610018BF1158009B10447C
:104A600018BFCB58984703B05DF804FB10B590F918
:104A700000300446013304D106480749432201F0BF
:104A8000ADFCA3681A6863681A420CBF00200120BD
:104A900010BD00BF109E0008289E000837B50446D0
:104AA0003030FFF7E3FF8DF8040004F14400FFF716
:104AB000DDFF8DF8050004F15800FFF7D7FF8DF8F2
:104AC000060004F16C00FFF7D1FF23468DF80700C4
:104AD000002201A9515CC9B993F8801003299CBF39
:104AE000013183F8801093F8801004291ED1A11899
:104AF00091F88800C50719D440F0010081F88800BA
:104B000093F88410013183F884100FE093F880103B
:104B100011B1013983F8801093F8805035B9A1188C
:104B200091F8880065F3000081F888000132042ABA
:104B300003F10103CDD103B030BD70B504460E467C
:104B400015460021142203F011F9204631462A4669
:104B500000F023F9204670BDF7B5044615460E4611
:104B60001F4601F0D7FA234B204640F8143B0021A2
:104B700000F049FF314604F130000122FFF7DDFF6C
:104B8000294604F144000122FFF7D7FF394604F11A
:104B900058000122FFF7D1FF04259DF9201004F1F0
:104BA0006C000122FFF7C9FF2A4604F180000021B2
:104BB00003F0DCF82A4604F18400002103F0D6F863
:104BC0002A4604F18800002103F0D0F80A4B0022A5
:104BD000009301926B4603CB084BE06121622046B3
:104BE000A461E362626142F21071FFF75FFD20464B
:104BF00003B0F0BD88A500089D4A0008454A00089A
:104C0000014491F8840020B10138C0B281F88400D9
:104C1000013070470121FFF7F3BF0000431C10B5BE
:104C2000044604D106480749272201F0D7FB204655
:104C30000021FCF7E7FC04F00F040120A04010BDA8
:104C4000159E000810A6000870B54B1C04460D46C2
:104C5000217010D0C1F30310FCF794FC06462846DF
:104C6000FFF7DCFF06F11003A36006F118032836F6
:104C70006060E360266170BD90F90000FCF7F0BC55
:104C800038B590F90030054601330C4604D1074889
:104C90000749472201F0A2FB012C95F900000CBF47
:104CA00021460021BDE83840FCF7ACBC109E00084E
:104CB00010A60008074A00F00700D36823F4E06359
:104CC0001B041B0C43F0BF6343F4003343EA00238F
:104CD000D360704700ED00E0704710B503680446EC
:104CE00023B901F0A1FB01236060236010BD10B562
:104CF0000446006818B101F097FB6368C01A10BD44
:104D000010B58468FFF7F3FF204410BD08B5FFF726
:104D1000F7FF4FF47A7390FBF3F008BD10B504462B
:104D200001F082FB00236060A36010BD10B500237A
:104D30000446036043608360FFF7F0FF204610BD28
:104D400070B50E4604461546FFF77EFF013609D0C2
:104D500020460021FFF794FF20462946BDE8704019
:104D6000FFF78ABF70BD000038B590F900300446E7
:104D700001330D4604D105480549352201F02EFBCB
:104D8000E368626805B912041A6038BD109E000815
:104D9000289E00080022FFF7D3BFFFF7D1BF70B5F0
:104DA0000D4604461646FFF74FFF01350DD020464D
:104DB0003146FFF7D9FF20460121FFF761FF20466A
:104DC0000021BDE87040FFF757BF70BD0022FFF71C
:104DD000E6BF0000094B036083686BB1084A1368A3
:104DE000834202D14368136070475A68824201D0FF
:104DF0001346FAE742685A60704700BF90A6000861
:104E00008007002010B50446FFF7E4FF204601F0BC
:104E100049FB204610BD0000054B81600360002364
:104E20004360027319B1034B1A68186042607047FF
:104E300090A6000880070020F8B50B4B07461C68B9
:104E40000E4674B1A56855B128463946324603F07E
:104E50000CFA20B9284603F000FAB04201D0646889
:104E6000EFE72046F8BD00BF80070020007B7047B9
:104E700070B503680446DD0704D42368980700F181
:104E80009B802DE1AC4B9A6802F00C02082A07D0F7
:104E90009A6802F00C020C2A1FD19B68D9031CD51A
:104EA0004FF4003292FAA2F3B3FA83F343F02003F3
:104EB000C3F34213012BA04B0CBF1B685B6B92FA30
:104EC000A2F2B2FA82F202F01F02D340DA07D4D57E
:104ED0006368012BD1D0012070BD984D00232B7049
:104EE000FEF7FAFB06464FF4003292FAA2F3B3FA49
:104EF00083F343F02003C3F34213012B8E4B0CBF0B
:104F00001B685B6B92FAA2F2B2FA82F202F01F0205
:104F1000D340DB0707D5FEF7DFFB801BB0F5FA7F38
:104F2000E1D9032070BD23792B7063680BB3FEF7C2
:104F3000D3FB05464FF4003292FAA2F3B3FA83F39F
:104F400043F02003C3F34213012B7B4B0CBF1B68C0
:104F50005B6B92FAA2F2B2FA82F202F01F02D34025
:104F6000D8078AD4FEF7B8FB401BB0F5FA7FE1D929
:104F7000D7E7FEF7B1FB05464FF4003292FAA2F3F1
:104F8000B3FA83F343F02003C3F34213012B6A4BBC
:104F90000CBF1B685B6B92FAA2F2B2FA82F202F0CB
:104FA0001F02D340D9077FF568AFFEF795FB401B82
:104FB000B0F5FA7FE0D9B4E75F4B9A6802F00C02D3
:104FC000042A07D09A6802F00C020C2A1ED19B68B2
:104FD000DA031BD4022292FAA2F3B3FA83F343F06A
:104FE0002003C3F34213012B534B0CBF1B685B6BB5
:104FF00092FAA2F2B2FA82F202F01F02D340DB0769
:1050000033D5E368012B7FF466AF2EE0E26801231D
:10501000002A3AD093FAA3F2B2FA82F2D2B2920004
:1050200002F1844202F58E021360FEF755FB05463D
:10503000022292FAA2F3B3FA83F343F02003C3F3FC
:105040004213012B3C4B0CBF1B685B6B92FAA2F224
:10505000B2FA82F202F01F02D340DE0705D4FEF757
:105060003BFB401B6428E3D95BE7334B4FF4F8501C
:10507000596890FAA0F0B0FA80F02269C0B282407C
:1050800021F4F8510A435A602AE093FAA3F3B3FAE1
:1050900083F3DBB29B0003F1844303F58E031A60B4
:1050A000FEF71AFB0546022292FAA2F3B3FA83F343
:1050B00043F02003C3F34213012B1F4B0CBF1B68AB
:1050C0005B6B92FAA2F2B2FA82F202F01F02D340B4
:1050D000D80705D5FEF700FB401B6428E3D920E77D
:1050E0002368D90640F19A80134B226A596821F44B
:1050F00060410A435A609A6812F00C0F20D14FF4B5
:10510000007292FAA2F1B1FA81F141F02001C1F3EB
:10511000421101290CBF1B685B6B92FAA2F2B2FA32
:1051200082F202F01F02D340DA073BD5A369012BBC
:105130007FF4D1AE36E000BF0038024002380240B2
:10514000A2694FF48073002A3CD093FAA3F3B3FA18
:1051500083F3DBB29B0003F1844303F58E0301224A
:105160001A60FEF7B9FA05464FF4007292FAA2F3FC
:10517000B3FA83F343F02003C3F34213012BAC4B88
:105180000CBF1B685B6B92FAA2F2B2FA82F202F0D9
:105190001F02D340DB0705D4FEF79EFA401B6428AC
:1051A000E2D9BEE6A24B4FF07F40596890FAA0F0DA
:1051B000B0FA80F0E269C0B2824021F07F410A4338
:1051C0005A602BE093FAA3F3B3FA83F3DBB29B00AC
:1051D00003F1844303F58E031A60FEF77DFA05465A
:1051E0004FF4007292FAA2F3B3FA83F343F0200370
:1051F000C3F34213012B8E4B0CBF1B685B6B92FAFF
:10520000A2F2B2FA82F202F01F02D340DE0705D505
:10521000FEF762FA401B6428E2D982E623681D0784
:1052200004D42368580740F1B08045E06169012348
:10523000804A01B393FAA3F1B1FA81F1C9B242F8FD
:105240002130FEF749FA0546022393FAA3F2B2FA97
:1052500082F2774A526B93FAA3F3B3FA83F303F023
:105260001F0322FA03F3D907DBD4FEF735FA401BFC
:105270006428E9D955E693FAA3F3B3FA83F3DBB2D2
:1052800042F82310FEF728FA0546022393FAA3F208
:10529000B2FA82F2664A526B93FAA3F3B3FA83F33B
:1052A00003F01F0322FA03F3DA07BAD5FEF714FA64
:1052B000401B6428E9D934E65D4B5A6A42F08052BB
:1052C0005A62A3F5E4331A6842F480721A60FEF75A
:1052D00003FA0546584B1B68DB055AD54FF480721C
:1052E00092FAA2F2B2FA82F2524DD2B2002345F8FB
:1052F00022304FF4806292FAA2F2B2FA82F2D2B273
:1053000045F82230FEF7E8F906464FF4007393FAA9
:10531000A3F2B2FA82F2464A526B93FAA3F1B1FABF
:1053200081F101F01F0122FA01F111F0010136D1E2
:10533000A3684FF48072002B38D192FAA2F2B2FA2D
:1053400082F2D2B245F822304FF4806292FAA2F291
:10535000B2FA82F2D2B245F82230A368012B4AD1C8
:10536000FEF7BAF905464FF4007393FAA3F2B2FAC6
:1053700082F22F4A526B93FAA3F3B3FA83F303F04A
:105380001F0322FA03F3DE072ED5636A002B55D1E3
:10539000BAE0FEF7A1F9401B64289BD9C1E5FEF7EE
:1053A0009BF9801BB0F5FA7FAFD9BAE5012B09D183
:1053B0004FF4806090FAA0F0B0FA80F0C0B245F8E7
:1053C0002010C3E792FAA2F2B2FA82F2D2B245F802
:1053D00022104FF4806393FAA3F3B3FA83F301220C
:1053E000DBB245F82320B8E7FEF776F9401BB0F5AD
:1053F000FA7FB8D995E5FEF76FF905464FF40073CB
:1054000093FAA3F2B2FA82F2094A526B93FAA3F327
:10541000B3FA83F303F01F0322FA03F3D807B4D5DA
:10542000FEF75AF9401BB0F5FA7FE7D979E500BFDE
:10543000003802408006474200700040504A92689F
:1054400002F00C020C2A3FF446AD022B4FF08073A1
:1054500068D193FAA3F3B3FA83F3DBB29B0003F1B1
:10546000844303F58E0300221A60FEF735F90546E2
:105470004FF0007292FAA2F3B3FA83F343F02003E1
:10548000C3F34213012B3E4B0CBF1B685B6B92FABC
:10549000A2F2B2FA82F202F01F02D340D90735D449
:1054A000374BE16AA26A9868246B0A43224320F4CE
:1054B0007D0002439A604FF0807393FAA3F3B3FA2E
:1054C00083F3DBB29B0003F1844303F58E030122D7
:1054D0001A60FEF701F904464FF0007292FAA2F347
:1054E000B3FA83F343F02003C3F34213012B244B9D
:1054F0000CBF1B685B6B92FAA2F2B2FA82F202F066
:105500001F02D340DA0707D5002070BDFEF7E4F88C
:10551000401B6428ACD904E5FEF7DEF8001B6428C4
:10552000DAD9FEE493FAA3F3B3FA83F3DBB29B0078
:1055300003F1844303F58E0300221A60FEF7CCF8D2
:1055400004464FF0007292FAA2F3B3FA83F343F0E9
:105550002003C3F34213012B094B0CBF1B685B6B89
:1055600092FAA2F2B2FA82F202F01F02D340DB07F3
:10557000CAD5FEF7B1F8001B6428E2D9D1E400BF18
:105580000038024070B5A24B04461A680D4602F07E
:105590000102914240F29A80012903D11A6842F037
:1055A00004021A601A6822F001022A431A601B687A
:1055B00003F00103AB4201D0012070BD23689A07BC
:1055C00006D5944BA268996821F0F0010A439A60CD
:1055D0002368DB070BD423685E0740F108818D4BFD
:1055E000E268996821F4E0610A439A60FFE0636829
:1055F000022B02D14FF4003109E0032B02D14FF00E
:10560000007104E0012B0CBF02214FF4007191FAEC
:10561000A1F2B2FA82F242F02002C2F34212012A4F
:105620007C4A0CBF1268526B91FAA1F1B1FA81F178
:1056300001F01F01CA40D507BED5764A916821F016
:1056400003010B439360FEF747F863680546022B9E
:105650000ED1704B9B6803F00C03082BBBD0FEF7F8
:105660003BF841F28833401B9842F2D9032070BDC9
:10567000032B0DD1674B9B6803F00C030C2BAAD0B6
:10568000FEF72AF841F28833401B9842F2D9EDE741
:10569000012B0CD05F4B9B6813F00C0F0ED19AE7D7
:1056A000FEF71AF841F28833401B9842DED8594B76
:1056B0009B6803F00C03042BF2D18CE7FEF70CF887
:1056C00041F28833401B9842E4D9CFE7036898073A
:1056D00006D5504BA268996821F0F0010A439A6000
:1056E0002368D90707D4012D494B74D11A6842F0B9
:1056F00004021A606FE06368022B02D14FF400319C
:1057000009E0032B02D14FF0007104E0012B0CBF24
:1057100002214FF4007191FAA1F2B2FA82F242F042
:105720002002C2F34212012A3A4A0CBF1268526B9D
:1057300091FAA1F1B1FA81F101F01F01CA40D2073B
:105740007FF53AAF334A916821F003010B43936030
:10575000FDF7C2FF63680646022B0DD12D4B9B68F7
:1057600003F00C03082BBED0FDF7B6FF41F28833DF
:10577000801B9842F2D979E7032B0DD1254B9B680A
:1057800003F00C030C2BAED0FDF7A6FF41F28833DB
:10579000801B9842F2D969E7012B0DD01D4B9B6805
:1057A00013F00C0F0FD19EE7FDF796FF41F28833FF
:1057B000801B98423FF65AAF164B9B6803F00C03D0
:1057C000042BF1D18FE7FDF787FF41F28833801B6F
:1057D0009842E3D94AE71A6822F001022A431A6084
:1057E0001B6803F00103AB427FF4E6AEF3E62368E7
:1057F0001B0707D5074B21699A6822F4605242EAD9
:10580000C1029A600F20FCF777F9002070BD00BF3D
:10581000003C02400038024010B51E4B9A6802F06E
:105820000C01082933D00C2912D004292FD0586834
:105830004FF4604393FAA3F3B3FA83F3DBB200F4BB
:105840006040D8404FF40043013003FA00F010BD2F
:105850004FF4701494FAA4F4B4FA84F44FF44001B1
:1058600091FAA1F1B1FA81F102F470109B68E3B2F0
:1058700020FA03F3084802F44002C05CCBB2DA40DD
:10588000064B9B5CB0FBF3F0054B584310BD04483E
:1058900010BD00BF0038024098A60008B1A600085D
:1058A0000024F40008B5FFF7B7FF094B9A68F0230E
:1058B00093FAA3F3B3FA83F302F0F002DBB222FA15
:1058C00003F3044AD35CD840034B186008BD00BF03
:1058D00000380240A1A600084801002008B5FFF7E3
:1058E000E1FF084B9A684FF4E06393FAA3F3B3FA2D
:1058F00083F302F4E062DBB222FA03F3024AD35CE0
:10590000D84008BD00380240A1A6000808B5FFF73E
:10591000C9FF084B9A684FF4605393FAA3F3B3FAA4
:1059200083F302F46052DBB222FA03F3024AD35C3F
:10593000D84008BD00380240A1A6000810B50023D9
:10594000036043600A7804462F2A13D14A788AB14B
:10595000481C2060194623681A782F2A02D1013387
:10596000236004E01AB1013301312360F3E7FFF74C
:1059700063FA6060204610BD0068704708B5406853
:1059800020B1FFF773FA431E5842584108BD10B5C5
:105990000446FFF7F3FF00B1606810BD08B540682A
:1059A00028B1FFF763FAD0F1010038BF002008BD2D
:1059B00010B50446FFF7F2FF10B1606800B104387B
:1059C00010BD4068003018BF0120704738B504464C
:1059D00000F02AFD054600F027FD401BA042FAD347
:1059E00038BD000008B5044901F032FC01F080FD2B
:1059F000BDE80840FFF7EABF002474494FF47A730A
:105A00005843FFF7E3BF00224260826101607047A4
:105A1000002301604360704708B5036801460BB17D
:105A2000984708BD406810B18B690831984708BD98
:105A300000F000B810B51A4A1A4B916801F00C0139
:105A40000C2919D8DFE801F01818181807181818C9
:105A5000071818180900144A16E09068134CC0F390
:105A600083409168205C92680F4AC1F381514243A0
:105A70000131B2FBF1F207E052684FF40041C2F38A
:105A80004232013201FA02F21A60054A084992686C
:105A9000C2F30312895C1A68CA401A6010BD00BFC5
:105AA00000380240480100200024F400C5A6000888
:105AB000B5A6000800B5022393B093FAA3F2B2FA98
:105AC00082F242F02002C2F34212012A1A46234B0C
:105AD0000CBF1B685B6B92FAA2F2B2FA82F202F080
