:020000040800F2
:1000000000800020615C0008B15C0008B15C000861
:10001000B15C0008B15C0008B15C000800000000A1
:10002000000000000000000000000000B15C0008BB
:10003000B15C000800000000B15C0008B15C000881
:10004000B15C0008B15C0008B15C0008B15C00085C
:10005000B15C0008B15C0008B15C0008B15C00084C
:10006000B15C0008B15C0008B15C0008B15C00083C
:10007000B15C0008B15C0008B15C0008B15C00082C
:10008000B15C0008B15C0008B15C0008B15C00081C
:10009000B15C0008B15C0008B15C0008B15C00080C
:1000A00000000000B15C0008B15C0008B15C000811
:1000B000B15C0008B15C0008B15C0008B15C0008EC
:1000C000B15C0008B15C0008B15C0008B15C0008DC
:1000D000B15C0008B15C0008B15C0008B15C0008CC
:1000E000B15C0008B15C0008B15C0008B15C0008BC
:1000F000B15C000800000000B15C0008B15C0008C1
:100100000000000000000000B15C0008B15C0008C5
:10011000B15C0008B15C0008B15C000800000000A0
:10012000B15C0008000000000000000000000000BA
:1001300000000000000000005FF808F110B5054C59
:10014000237833B9044B13B10448AFF30080012383
:10015000237010BDC4010020000000004CAD000859
:1001600008B5064B1BB106480649AFF300800648A8
:10017000036813B1054B03B1984708BD00000000A8
:100180004CAD0008C8010020C001002000000000A4
:1001900010B50446002839D090F851300BB904F05E
:1001A0009DFD022384F8513023681A6822F0400232
:1001B0001A60A1686268236841EA0200E26810439D
:1001C0002269104362691043E2691043226A1043B6
:1001D000A26A1043A26902F4007140EA01021A60A7
:1001E000618B626A236801F004010A435A60236844
:1001F000E26A00201A612368DA6922F40062DA6197
:10020000012384F8520084F8513010BD012010BD44
:1002100070474FF0FF3070472DE9F74F1E46BDF98C
:1002200030301546C2EB0309721AB9F1000FB8BF9E
:10023000C9F10009002AB8BF52429145D4BF4FF01E
:1002400000094FF0010980460C46BDF834B0B9F101
:10025000000F04D032462C461E460D461346B442CB
:1002600005DD2A461D461346224634461646C4EB93
:10027000060A5A1B1FFA8AFA82EAE271A1EBE271BE
:100280000FFA8AF7022297FBF2F74FF6FF729D42B0
:10029000B8BF01220091BFB20192B4421DDCD8F870
:1002A00000304046D3F82CC0B9F1000F02D02946E7
:1002B000224601E021462A465B46E047009ABF1AE3
:1002C000BBB29FB23A0405D5019903EB0A070D446E
:1002D0002DB2BFB2013424B2DFE703B0BDE8F08F26
:1002E00013B5013B13441BB20093BDF810300468F2
:1002F0000193246C0B46A04702B010BD2DE9F347D3
:10030000BDF928A0BDF82C7006460D4691469846CA
:100310000C4605EB08039C420BDA31680097D1F8D4
:1003200044C0304621464A4653460134E04724B291
:10033000EFE702B0BDE8F0872DE9F347BDF82C5098
:100340000768BDF92860009504467F6B9046894692
:100350009A46B8472368721E009542445F6B204658
:100360004946534612B2B847236800955F6C204651
:10037000494642463346B8470AF1FF3A236800959A
:100380000AEB09015D6C204609B242463346A84794
:1003900002B0BDE8F08737B5BDF818500468013BDE
:1003A0000B4400920195246C1BB2A04703B030BDF2
:1003B00013B5B0F91E200468009201910021B0F934
:1003C0001C30A46C0A46A04702B010BD10B5054B06
:1003D000044603F108025C330260436005F098FCB8
:1003E000204610BDD8960008A0F10400FFF7EEBF2C
:1003F00010B50446FFF7EAFF204606F055F8204600
:1004000010BDA0F10400F3E72DE9F04F8DB0924646
:10041000BDF85C2089460792B0F91C20BDF8581041
:100420004A45054606919DF860407FDDB0F91E20E3
:1004300052457BDD04EB84024A44002A76DD0AEB58
:10044000C402002A72DD03EB83030A930021062312
:1004500008930591059A53B2052B05D0354A0A99A0
:100460000A4412F8038001E04FF000081FFA89F2F5
:100470009BB2049304FB03231FFA8AF69BB20993F1
:1004800006F108039BB203920B933746B34618F06C
:10049000010F17D0012C2A6809D1039B0499D2F8C7
:1004A0002CC01944284609B23AB2069B1AE00699B4
:1004B00023B201910093D2F848C0099A284611B29C
:1004C00032B21CE0079B06998B4219D0012C2A6896
:1004D0000AD1039B0499D2F82CC01944079B2846E3
:1004E00009B23AB2E0470BE0079923B201910093B9
:1004F000D2F848C0099A284611B20FFA8BF2E047A9
:1005000001370B9BBFB22644A3449F424FEA5808D1
:10051000B6B21FFA8BFBBAD10599089A4B1CDBB215
:100520000593531E13F0FF03089393D10DB0BDE85C
:10053000F08F00BF4097000830B50A2985B0044607
:100540000B4605D190F82820438C03EBC20326E02C
:100550000D2925D0858CB0F92010B0F92220009506
:10056000C58C019590F828500295FFF74DFF94F83F
:100570002830228C03EB430102EB410294F82A104D
:1005800092B2228471B1B4F91C106FF0050000FB27
:10059000031112B28A4205DD628C02EBC30363844D
:1005A00000232384012005B030BDC9B2FFF7C4BFCA
:1005B00002680E4B1A6082685A60C2689A600269CB
:1005C000DA6042691A6100229A6190F919200132B9
:1005D00001D1082205E090F9182001320CBF042255
:1005E0000C2202485A6100F074BE00BFE4010020F2
:1005F000F8B504460E4608463549154600F0D0FECB
:1006000034490746284600F0CBFE0146384600F044
:10061000A9FE2060013004D12F483049502205F056
:10062000DFFE23682E4A934206D12E4B1A6A42F40B
:1006300080421A620023636023682B4A934206D1EA
:10064000284B5A6A42F400325A62012363602368DD
:10065000264A934206D1234B5A6A42F480225A62B8
:100660000223636030461A4900F05EFE28461949AD
:1006700000F05AFE721C03D03046012100F0F0FF5A
:100680006B1C03D02846012100F0EAFF4FF4E13350
:10069000A3600023E36023616361267665762046CC
:1006A000FFF786FF2368114A93420FD1104B0122B6
:1006B0001A60104B04F11805206861681A4603C2DD
:1006C0000834AC421346F7D120681060F8BD00BF73
:1006D000F4A800087CA800083B9C0008559C000872
:1006E000003801400038024000440040004800400B
:1006F000E0010020200200200368034A136018680C
:10070000C0F34010704700BFE401002038B5056811
:1007100004462046FFF7F0FF0028FAD06868C0B210
:1007200038BD00000368034A13601868C0F3C010A6
:10073000704700BFE401002070B5056804460E460E
:100740002046FFF7EFFF0028FAD0F6B26E6070BDCA
:1007500070B5036800211B69012204469847431CB9
:1007600005460ED0236820461B69002102229847C7
:10077000236806461B6920462946002298473046D2
:1007800070BD70BD064B03600023064A9958814234
:1007900004BF002199500433B3F5807FF5D1704731
:1007A000009D00083C02002010B50446FFF7EAFF58
:1007B000204605F079FE204610BD0000044B1B6862
:1007C00023B904481A211B22FFF712BF704700BF4C
:1007D000E0010020200200202DE9F3410F462D49C1
:1007E000054607F02CFD044610B9FFF7E7FF4DE082
:1007F0002846294907F023FD18B9FFF7DFFF012438
:1008000044E02846254907F01AFD18B9FFF7D6FF3E
:1008100002243BE00024224B53F824201E4672B1F0
:100820000134402CF7D107E06846294605F088F8E6
:10083000684605F0C8F860B94FF0FF3426E02B7821
:100840003A2BF1D1284617496A4607F089FC0098EF
:1008500017E0684605F0A4F818B1684605F0AAF854
:100860000FE0684605F095F805460028E4D00368D7
:100870006846D3F8088005F081F83A4601462846D4
:10088000C0470028D8D046F824000334204602B0E0
:10089000BDE8F081CC9C0008E99C0008D39C0008CE
:1008A0003C020020DB9C0008022808B54FF0000342
:1008B0000ADD084AC11E52F8210042F8213028B151
:1008C00003685B68984708BD184608BD4FF0FF30C5
:1008D00008BD00BF3C020020022870B50C4615463A
:1008E0000FDC0E4B1B680BB9FFF768FF6619B442AB
:1008F00005D00B4814F8011BFFF71EFFF7E7284649
:1009000070BD084B033853F8200018B103681B680A
:10091000984770BD4FF0FF3070BD00BFE001002070
:10092000200200203C020020022810B50C460ADC00
:100930000B4B1B680BB9FFF741FF0A48FFF7E6FEB8
:100940002070012010BD084B033853F8200018B167
:1009500003689B68984710BD4FF0FF3010BD00BF83
:10096000E0010020200200203C020020022808B5FF
:1009700008DD074B033853F8200028B10368DB6813
:10098000984708BD012008BD4FF0FF3008BD00BFEB
:100990003C020020022808B508DD074B033853F855
:1009A000200028B103681B69984708BD002008BDD6
:1009B0004FF0FF3008BD00BF3C020020022808B500
:1009C00004D84FF400534B60002008BD06F0F2FD40
:1009D000092303604FF0FF3008BD08B5012006F081
:1009E000EFFD704708B505F025F8FFF7FAFFBDE801
:1009F000084003F057BB0000074A13681844EFF3A0
:100A00000881884205D3054B0C221A604FF0FF3055
:100A100070471060184670474001002060080020B1
:100A2000002107F0A5BA90F86D02704710B5036871
:100A30000446D3F888309847236820465B6F984770
:100A400010BD000070B5054600242B68074E5B6999
:100A5000315D284698472B6826441B6D28467178DF
:100A6000B278033498472D2CEFD170BD289D000833
:100A7000704790F86D32022B0CBF80200020704729
:100A80007047704790F80C338B4218BF80F80C13F6
:100A900070470120704713B502AB03F8012D0268BF
:100AA000946D1A460123A04702B010BD13B5036828
:100AB0000DF10702DC6D0123A0479DF8070002B08D
:100AC00010BD38B504680D461346A46D00212A46B2
:100AD000A04738BD38B504680D461346E46D0021C3
:100AE0002A46A04738BD000010B5034B04460360FA
:100AF00002F0D2FC204610BD609D000810B50446EF
:100B0000FFF7F2FF204605F0CFFC204610BD07B5E9
:100B10000246086849686B4603C311F0010F4FEAAB
:100B2000610018BF1158009B104418BFCB5898475C
:100B300003B05DF804FB90F86C2208B58A4209D036
:100B400080F86C12036811B9D3F8883001E0D3F84B
:100B50008C30984708BD000038B590F90030044645
:100B600001330D4604D105480549352205F038FC0E
:100B7000E368626805B912041A6038BD189E00085F
:100B8000309E000810B50446203450300121FFF794
:100B9000E3FF20460821002200F086F920460449A0
:100BA00000F08CF9BDE81040024804F01DBF00BF02
:100BB00040420F00CDCCCC3D2DE9F041064600F17E
:100BC00050050C4628460021203690461F46FFF768
:100BD000C3FF44F08001304600F078F90024E3B20E
:100BE000BB4206D218F80410304600F06FF9013409
:100BF000F5E728460121BDE8F041FFF7ADBF2DE93B
:100C0000F041064600F150050C46284600212036EA
:100C100090461F46FFF7A0FF04F07F01304600F02A
:100C200055F90024E3B2BB4207D23046002100F060
:100C30004DF908F804000134F4E728460121BDE825
:100C4000F041FFF789BF10B500F16404204601218F
:100C500004F018F820460021FFF77EFF012004F081
:100C6000CFFE2046002104F00DF8BDE8104006201C
:100C700004F0C6BE1FB5044602A880E80C008DE84B
:100C80000C000346E16203CB074B61630121206343
:100C9000236404F1180000230A46A36204B0BDE8EF
:100CA000104000F045BA00BF0F0B00082DE9F047D7
:100CB000044600F1780A0D46504604F1D809022195
:100CC00000F05CFC04F59C784846022100F056FCDC
:100CD00004F5CC774046022100F050FC04F5FC7688
:100CE0003846022100F04AFC3046022100F046FC62
:100CF00095E80C0050462146FFF7BCFF05F10803BC
:100D0000484621460CCBFFF7B5FF05F110034046DE
:100D100021460CCBFFF7AEFF05F1180338462146FC
:100D20000CCB2035FFF7A6FF95E80C003046214696
:100D3000FFF7A0FFBDE8F08770B590B0149D1326B3
:100D400000950696159D2826079609260195089672
:100D5000169D10260996112602950A96179D26269D
:100D60000B960A2603950C961525232604950D96B9
:100D700014252D260E960595044601F061FD1E4BA7
:100D800004F55A7623602A463046002106F0F2FF29
:100D900030464FF0FF3104F55F7603F0FDFF2A4641
:100DA0003046002106F0E6FF4FF0FF31304603F0F9
:100DB000F3FF2046FFF747FF032384F86D322046F8
:100DC00001F0EAFD2046FFF731FE2046002101F048
:100DD00013F9D4F878122046FFF768FF2046FFF792
:100DE00031FE2046002101F02DF90123204684F830
:100DF000103310B070BD00BF609D0008014B036050
:100E0000704700BFB09E000810B5034B0446036056
:100E100005F04AFB204610BDB09E00082DE9F743BF
:100E20009946144B054645F8043B04468846174648
:100E300028460021202206F09DFF082363620E4B06
:100E40000026E3624FF0FF330093284641463A46BE
:100E50004B46A66204F0F2FF2846616AA26A334656
:100E600005F07CF82846E16A05F09CF8204603B0BE
:100E7000BDE8F083B09E000840420F0070B5094DF8
:100E800004462B6883420BD0061D3046616AA26A75
:100E9000002305F063F83046E16A05F083F82C6022
:100EA00070BD00BF3C030020034B82624162002200
:100EB0001A60FFF7E3BF00BF3C030020024B002293
:100EC000C1621A60FFF7DABF3C03002038B5044660
:100ED0000D46FFF7D3FF201D2946BDE8384005F039
:100EE000E9B8000010B5054B0446036003F0D5FBDC
:100EF000204605F0FBF8204610BD00BF90A5000875
:100F000010B5034B04460360FFF7ECFF204610BD0D
:100F1000C89E000810B50446FFF7E4FF204605F020
:100F2000C3FA204610BD10B50446FFF7E9FF20467E
:100F300005F0BAFA204610BD143004F06FBD000071
:100F4000F8B5154B4C2606FB00360F4634460025F7
:100F5000BD4220D0012303FA05F13268114217D0B7
:100F6000626B0E4803FA02F2D0F814C0E16912EA8B
:100F70000C0F0DD04261606850B109690A42084AFD
:100F800003D113680221984702E01268194690477E
:100F900001350434DCE7F8BD4003002000040140C3
:100FA0005405002000200121FFF7CABF012001469F
:100FB000FFF7C6BF02200121FFF7C2BF03200121B6
:100FC000FFF7BEBF04200121FFF7BABF052001468D
:100FD000FFF7B6BF06200146FFF7B2BF2DE9F74F76
:100FE00001924A1C80460F4664D001F00F0909F1B6
:100FF000FF32C1F303100E2A09D8DFE802F00C100B
:1010000014181C1C1C1C1C202020202020002B4EEF
:101010000025062416E02A4E0125072412E0294E59
:10102000022508240EE0284E032509240AE0274E55
:1010300004250A2406E0264E0525172402E0254E45
:1010400006252824009300F09DFA4FFA84FA83467F
:101050000721384600F0D6FA3146504602F062FCCD
:10106000012604F01F0006FA00F01B494FEA5A124D
:1010700041F822004C21C8F804504D431749184A42
:1010800051F8291000208E4088F80C7088F8004034
:10109000C8F808005459571934435451009B07EBC2
:1010A00081014B60019A0F4BC1F81CB0C1F834901C
:1010B0001A6000E0084603B0BDE8F08FA50F0008F5
:1010C000AD0F0008B50F0008BD0F0008C50F0008E0
:1010D000CD0F0008D50F000800E100E0D89E000801
:1010E000400300205405002070B5436805464C229B
:1010F000007B5A430C4B00F00F0053F820300126C0
:101100009E400A4988588C1804EB830320EA0600A5
:10111000002488505C60DC615C6395F90C0021461A
:1011200000F070FAAC6070BDD89E0008400300204B
:10113000A2B1012905D18368023B012B08D9816046
:101140001EE002291FD1836823F00203012B03D183
:1011500003238360082117E0816007E0012907D19C
:101160008368023B012B0DD80223836007210BE02B
:10117000022908D1836823F00203012B02D1836086
:10118000062101E082600C2190F90C0000F03ABACF
:101190002DE9F8430368C2681969044621F44051F7
:1011A0000A431A610268A1680069D368084361694B
:1011B00023F416430843E16923F00C0301430B4376
:1011C000D3602368A269596921F440710A435A61C6
:1011D000E3692568B3F5004F3C4B32D19D424FF097
:1011E000190615D104F094FB7043636864275B0013
:1011F000B0FBF3F804F08CFB70436368B8FBF7F8BE
:101200005B004FEA0818B0FBF3F904F081FB14E02F
:1012100004F066FB7043636864275B00B0FBF3F87F
:1012200004F05EFB70436368B8FBF7F85B004FEABD
:101230000818B0FBF3F904F053FB636870435B00DC
:1012400031E09D424FF0190615D104F061FB704367
:10125000636864279B00B0FBF3F804F059FB70430C
:101260006368B8FBF7F89B004FEA0818B0FBF3F986
:1012700004F04EFB14E004F033FB70436368642712
:101280009B00B0FBF3F804F02BFB70436368B8FBE2
:10129000F7F89B004FEA0818B0FBF3F904F020FBC5
:1012A000704363689B00B0FBF3F6B6FBF7F607FBF1
:1012B00016994FEA091909F13209B9FBF7F707F056
:1012C0000F0747EA0807AF60BDE8F8830038014020
:1012D000704710B5044628B390F839300BB9FFF7C2
:1012E000F7FF022384F8393023682046DA6822F4B5
:1012F0000052DA60FFF74CFF236800201A6922F4DD
:1013000090421A6123685A6922F02A025A612368BE
:10131000DA6842F40052DA60012384F83A0084F873
:10132000393010BD012010BD10B50446013001D187
:1013300010BD0C3191F900305A1C0BD0A342F8D1EA
:101340002046896800F05EF920460021BDE8104083
:1013500000F086B90248BDE8104000F0A5B900BF12
:10136000189F0008884208B50AD0431C07D00131F5
:1013700006D0044800F098F94FF0FF3008BD084649
:1013800008BD00BF299F000891F900305A1C05D004
:10139000834201D1486870470C31F5E71846704721
:1013A000421C10B5044607D0FFF7EEFF431C04466D
:1013B00002D1024800F078F9204610BD3A9F00089B
:1013C0007047000070B5044608B9012070BD90F860
:1013D00035300BB9FFF7F4FF04F082FA3D4B984229
:1013E000F3D9022384F8353023683B4E1A6822F083
:1013F00001021A602268394B5168B0FBF3F321F007
:101400003F011943516061682268B14284BF4FF4C3
:1014100096714B43156A84BF4FF47A71B3FBF1F3B5
:1014200025F03F0501332B43136221686368CA69C5
:10143000294D22F44F42AB4222F0FF0208D85B0054
:10144000B0FBF3F0C0F30B03032B98BF042016E0AE
:10145000A5684DB903EB4303B0FBF3F0C0F30B03F6
:1014600063B140F400400AE019256B43B0FBF3F090
:10147000C0F30B0313B140F4404000E001201043DF
:10148000C8612368216A1868E26920F0C0000A4335
:1014900002431A602268E0689368216923F40343D9
:1014A000014323F0FF030B4393602368A169D868CD
:1014B000626920F0FF000A430243DA6023680020DB
:1014C0001A6842F001021A60012384F8360084F899
:1014D000353070BD7F841E00A086010040420F00A1
:1014E00010B5044A044640F8182BFFF7FDFD2046CE
:1014F00010BD00BF689F000810B50446FFF7F0FF5D
:10150000204604F0D1FF204610BD012902D0022957
:1015100002D07047283000E0443004F07FBA000069
:10152000F8B5144B054645F8043B04460E4604F155
:10153000180728460021142206F01CFC1022384609
:10154000002106F017FC04F12800002104F05DFAE8
:1015500004F14400002104F058FA3146064A2346BB
:101560003846FFF73BFD2846314603F015FC204680
:10157000F8BD00BF689F00080B150008043003F099
:101580007DBB000008B5072828D8DFE800F0040B71
:10159000121927272720144B1448DA6942F0010258
:1015A000DA6108BD104B1248DA6942F00202DA61D2
:1015B00008BD0D4B0F48DA6942F00402DA6108BD3C
:1015C000094B0D48DA6942F00802DA6108BD064BA2
:1015D0000A48DA6942F02002DA6108BD084800F0E2
:1015E00063F8002008BD00BF003802400000024040
:1015F0000004024000080240000C024000140240B7
:10160000709F000830B5431C87B005460C4604D1D6
:1016100010481149592204F0E3FEC5F30310FFF707
:10162000B1FF05F00F05012303FA05F50B4B04F09C
:101630000F0253F8223001A90293C4F3021303935B
:10164000C4F3C314032301950493059401F066FFCA
:1016500007B030BD1D9E0008919F000804A000083F
:10166000431C70B504460D4604D10D480D497E2239
:1016700004F0B6FEC4F30310FFF784FF04F00F0676
:10168000730003229A40032D28BF002505FA03F3B7
:10169000C16821EA0202C260C2681343C36070BD20
:1016A0001D9E0008919F00080FB407B5054B04AAC2
:1016B0001B6852F8041BD868019207F047FA012012
:1016C00005F07EFFAC0100207047000070B50446B5
:1016D000002800F08A8090F8493033B9444B1A6AE8
:1016E00042F001021A62FFF7EFFF424B022284F838
:1016F00049205868616820F44030014359604FF434
:10170000007393FAA3F3B3FA83F3656A92FAA2F231
:10171000B2FA82F2E16BDBB29940D2B205FA02F280
:10172000E06866690643206A304340EA01031343D8
:10173000626B102A02D0A16B0A431343226811681E
:10174000490622D4A169E0690B43A16826690843D0
:10175000E16A012E14BF00264FF48076012940EA89
:1017600006000DD165B94FF4604191FAA1F1B1FACB
:1017700081F1256BC9B2013D8D4040F400602843E2
:1017800055681D4929400143516021681B4A8868FA
:1017900002401A438A602269012A22680ED1106B26
:1017A0004FF0F87595FAA5F5B5FA85F5A16AEDB291
:1017B0000139A94020F0F870014302E0116B21F0DB
:1017C000F8711163226891680D4A0A409A4205D166
:1017D00000200123E06484F8493070BD042384F8BC
:1017E0004930E36C43F00103E364012070BD00BFA6
:1017F0000038024000270140FF16FCFC89F1FFC0C1
:10180000FEFF80BF70B504460D4601F065FF064639
:1018100023681A68920710D4691CFAD03DB90323D3
:1018200084F84930002384F84830012070BD01F06D
:1018300053FF801BA842EBD9F1E7A26912B96FF000
:1018400012021A6094F84930042B0BD094F84930F6
:10185000352B07D094F84930252B0CBF35231523A1
:1018600084F84930002070BD0368986D704700000F
:1018700070B590F84830012B00F08D80012380F87E
:1018800048304A680368062A4FEA82050C680BD87C
:101890002A44053A1F25954094401E6C26EA05050A
:1018A00045EA04021A6434E00C2A0BD82A44233A8D
:1018B0001F2595409440DE6B26EA050545EA0402A3
:1018C000DA6326E0122A0BD82A44413A1F259540B4
:1018D00094409E6B26EA050545EA04029A6318E0E7
:1018E000182A0BD82A445F3A1F25954094405E6B16
:1018F00026EA050545EA04025A630AE02A447D3ACD
:101900001F25954094401E6B26EA050545EA040212
:101910001A630B68092B0DD803EB430307259D4081
:101920000268546924EA05058C6804FA03F32B4322
:10193000536122E0132B0ED803EB43031E3B072514
:101940009D400268146924EA05058C689C4045EABC
:101950000403136111E01A2B0ED803EB43033C3B45
:1019600007259D400268D46824EA05058C689C40E0
:1019700045EA0403D36000E000BF0B68103B012B75
:1019800004D8064B5A6842F400025A60002380F8DB
:101990004830184670BD022070BD00BF00270140CE
:1019A00070B5036804461A68520601D5002070BD60
:1019B0009A6842F001029A6001F08EFE06462368A2
:1019C0001B6813F04005F1D101F086FE801B022850
:1019D000F5D9042384F84930E36C84F8485043F087
:1019E0000103E364012070BD10B590F8483004464F
:1019F000012B21D0012380F84830FFF7D1FF0128C7
:101A000016D094F849306FF00202222B0CBF32231B
:101A1000122384F849300023E36423681A602368A2
:101A20009A6812F0405F03D19A6842F080429A604F
:101A3000002384F8483010BD022010BD10B5074BBC
:101A4000044603F108023433026040F8043F03F017
:101A5000C3F92046FEF796FE204610BD38A00008C8
:101A6000A0F10400FFF7EABF10B50446FFF7E6FF58
:101A7000204604F019FD204610BDA0F10400FFF738
:101A8000F3BF0000074B10B50022044640F8043BAA
:101A900003F0C4F9044B204603F1080234332260FA
:101AA000636010BD009D000838A0000838B5104BD9
:101AB0001A681C46D26812F0020F01D001F0D4FE61
:101AC0002368DA68520711D56FF00402094D1A61D4
:101AD0005C6A2B68E31AB3F57A7F07D301F0F4FD53
:101AE000034B04F57A721B682C609A6338BD00BF03
:101AF0005C0500205805002038B51F4B1F4C5A6A62
:101B0000002542F008025A629A6942F008029A617E
:101B10009A6922F008029A6103F08EFF184B204662
:101B200023604FF0FF33E360164B25611A68164BB4
:101B3000A560B2FBF3F3013B636002F017FE2E20B9
:101B4000124901F0EFFE124B4FF480425A602946D1
:101B5000204602F021FE2046042102F01DFE2368EB
:101B60000C495A6A28460A6002F57A729A63DA6862
:101B700042F00402DA6038BD003802405C05002003
:101B8000000C00404801002040420F00AD1A000840
:101B900000E100E058050020002310B50360436019
:101BA000044B0446836004F0A7FB034B20461C60F3
:101BB00010BD00BFA08601009405002010B5816013
:101BC000044604F0C3FA014B1C6010BD94050020CC
:101BD00038B5054D04462B68834203D0816804F074
:101BE000B5FA2C6038BD00BF94050020F7B51C463F
:101BF00005460F461646FFF7EBFF9DF820302846B6
:101C000083F00103009339463246234604F008FB73
:101C1000201A18BF012003B0F0BD0000014B036083
:101C2000704700BF80A0000890F86D02704780F8F0
:101C30006D12704790F8100370470000000000001C
:101C400038B50446C0F81413084604F09FFE0EA3EE
:101C5000D3E9002305F03AF805F0D0F923680546EA
:101C6000C5F3074220461B6D06219847236820468E
:101C7000C5F307221B6D07219847236820461B6D7B
:101C80000821EAB2984738BD0000000080844E4029
:101C90002DE9F04F87B002939DF848300446039336
:101CA0009DF85830019104939DF8603016460593D5
:101CB0000368109F5B69119DBDF84C809DF85090A2
:101CC0009DF854A09847236809215B6D20469847EA
:101CD000236802465B6D4D2100922046984721689B
:101CE0008346D1F880302046D4F814139847009AE0
:101CF00002F07F021043C2B242F07002110622D5F8
:101D0000112ECBBF4BF007030BF0F8035FFA83FBF8
:101D100043F0040B0BF00701072922F00F0208D152
:101D2000042E03DD142EA8BF142600E00526711F23
:101D300007E0012E03DD112EA8BF112600E00226C8
:101D4000B11E0A430AE0731C03DB0E2EA8BF0E2649
:101D500001E04FF0FF36721C42F070022168D2B2EF
:101D60000B6D20460921984722682046D2F850C0C2
:101D70004D215A46E047019B13B1012B69D02EE15A
:101D8000029B84F81863C4F81C33059BC4F82853DD
:101D900084F83133199B84F830A3C4F834330298A3
:101DA000C4F82073A4F82C8384F82E9304F0EEFD7D
:101DB0008DA3D3E9002304F089FF05F01FF9236800
:101DC00086B2320A20461B6D042198472368F2B27E
:101DD0001B6D204605219847284604F0D7FD024692
:101DE0000B4683A1D1E9000104F070FF05F006F96C
:101DF000236885B22A0A20461B6D02219847236872
:101E00002046EAB21B6D03219847236820464FEA1B
:101E100018221B6D2521984723685FFA88F2204617
:101E20001B6D26219847236820461D6D30215B6D70
:101E30009847B9F1000F00F06F0040EA0A1A0CBF92
:101E4000802300234AEA030220463021D2B2A84769
:101E5000C5E0092F84F8486300D9FEE7039B0C2DE9
:101E600084F85533049BC4F84C7384F85B339DF8B5
:101E70005C30C4F8505384F85C33059BA4F8568357
:101E800084F85D33199B84F8589384F85AA3C4F8F6
:101E900060331DD8052D08D9082F02D10C2D1DD176
:101EA00019E0072F06D10A2D07E0082F15D0072FBC
:101EB00013D00625062F02D1092D0CD80EE0052FD0
:101EC000FAD0042F01D1082DF7E7032F06D802E03E
:101ED000082F7FD10C25012301E00625002384F87B
:101EE0005433049B93B1236844211E6D20465B6DDF
:101EF000984760F07F0244212046D2B2B047236861
:101F000020461B6D242194F85C23984723681D21EB
:101F10001E6D20465B6D9847039B204649EA4309A6
:101F200049EA0712D2B21D21B04723681E211E6D57
:101F300020465B6D98474FEA8A0A4AEA051A00F084
:101F40000B004AEA0002D2B220461E21B0472368A5
:101F500026211E6D20465B6D984794F8542320F08F
:101F6000080040EAC20226212046D2B2B0472368C8
:101F700020461B6D20214FEA1822984723682046EF
:101F80001B6D21215FFA88F298472368062D2046B1
:101F90001D6D4FF031015B6D0DD1984700F0F802D7
:101FA0003121204642F00502A847236820461B6DD8
:101FB00037210C220CE0984700F0F802312120462E
:101FC00042F00302A847236820461B6D37210A22EE
:101FD000984704E0072F3FF47DAF0C256AE707B070
:101FE000BDE8F08FAFF300800000000080844E4019
:101FF0000000000080847E4170B590F87432044681
:102000008B420D461DD084F874120368D3F88430D7
:1020100039B1002198472368032DD3F8903020462A
:1020200001D1012100E000219847236801211E6DA4
:1020300020465B6D984700F0F802012120462A43B4
:10204000B04770BD70B590F8113304468B420D4611
:102050004AD084F8111303680129D3F894304FF063
:10206000000117D09847236801211D6D20465B6D44
:102070009847012100F07F022046A84723682046A8
:102080001B6D402100229847236820461B6D41218B
:10209000302228E09847236829461E6D20465B6D54
:1020A000984760F07F0229462046D2B2B0472368A5
:1020B00000221B6D204630219847236831211D6D79
:1020C00020465B6D9847312100F07F022046A847EB
:1020D000236820461B6D4021002298472368204634
:1020E0001B6D41210022984770BD704710B5034B0E
:1020F0000446036004F0D8F9204610BD80A0000813
:1021000010B5044600F51F7002F0C7FA04F52B70F5
:1021100002F0C3FA23682046D3F894300021984790
:1021200010BD10B5044600F51F7002F0B6FA04F5B4
:102130002B7002F0B2FA23682046D3F894300121C4
:10214000984710BD70B590F810330446022B02D0AA
:10215000052B3BD070BD90F8115315B1012D2BD03C
:1021600070BDB0F842338BB9B0F8443373B990F80E
:102170002E2303682AB95B6E00F242310122984790
:1021800004E05B6D32219847A4F84203B4F842534F
:10219000B4F8443394F84623ED1A95422068D4F8F5
:1021A000701206DD456E19442046A84794F8462370
:1021B00020E0466E204622E000F52B7002F06DFA1A
:1021C000236984F810530BB3984770BD90F811330E
:1021D000E3B9B0F84253B0F8443390F84723ED1A0E
:1021E00095420668D0F8701208DD356E1944A8478C
:1021F00094F84723B4F84433134405E0366E194489
:10220000EAB2B047B4F84233A4F8443370BD0000DA
:1022100038B590F810230446022A02D0052A41D08E
:1022200038BD90F8113313B1012B34D038BDB0F85C
:102230003853012D4CD100F5377002F02EFA236887
:1022400084F839535B6D1121204698474010404275
:10225000236884F83A035B6D1B2120469847236866
:1022600005465B6D1C212046984740EA052004F096
:102270009DFB19A3D3E9002304F0FEFB04F096FEB6
:102280002368C4F83C035B6D20460C219847400945
:1022900084F8400338BD90F85B33CBB1036812215A
:1022A0001B6D0AE090F81133012B11D190F85B33CC
:1022B00073B1036812211B6D02229847A5693DB1D5
:1022C000236820465B6D1C21984700F03F00A8471B
:1022D00038BD00BFAFF300800000000080844E4096
:1022E0002DE9F0410568044698466B6917460E468D
:1022F000984725682046AB693946984722682046AA
:10230000D2F8943005219847012003F079FB226828
:102310003146D36C2046984722680546936B204689
:1023200098474545CCBF00200120BDE8F08170B53D
:10233000036804465B6901219847236820461B6DAA
:102340001121FF22984723682046D3F894300521B5
:10235000984700252E46012003F052FB23682046B3
:102360005B6D2C21984700F00100A8400135202D1D
:1023700046EA0006EFD1236820469B6B984730461B
:1023800070BDF7B590F81153012704460E468DF83D
:10239000072080F81073036815B1BD422BD06CE0A4
:1023A0009DF8072090F82E13A0F84453A0F842237C
:1023B00029B91B6E0DF107013A46984702E01B6DE3
:1023C000322198479DF8073031465A1E3F2A88BF70
:1023D000202384F84733236894F847231B6E204654
:1023E0009847B4F8443394F84723D4F8341313448B
:1023F000A4F8443342E090F85D231D6D33215B6DFA
:102400002AB19847332100F0BE02204606E09847E3
:1024100000F0BE023321204642F00102A8479DF899
:102420000720236884F866231B6D204622219847E5
:10243000236820461B6D0E21002298472368204602
:102440001B6D0D2100229847236820465B6D0121FA
:10245000984730F0F80306D123682046DB6B984795
:10246000012003F0CDFA236831461B6E20469DF80B
:1024700007209847D4F8601300E000212368204625
:102480009B6C984703B0F0BD2DE9F84F8046164687
:1024900011B1012955D0DEE0036827215B6DB0F84A
:1024A0002C43984720F0F8000130204404F07EFAD5
:1024B00098F82E3300220BB1002300E06C4B04F09F
:1024C00029F9D8F8003004465B6D0D4640463021AE
:1024D000984730F0F90314BF654B002300222046D3
:1024E000294604F017F9044630460D4604F05EFA1A
:1024F00002460B462046294604F00CF998F8303382
:10250000002213B14FF0804300E0002304F002F9F1
:102510000022584B04F0B0FA0446D8F828030D46C0
:1025200004F034FA02460B462046294604F0CEFB5E
:102530004BA3D3E9002304F09FFABDE8F84F03F062
:10254000C3BFD0F84C33092B05D84B4A02EBC30369
:10255000D3E9004501E000240025D8F8507301209C
:10256000B84004F023FA02460B462046294604F000
:10257000ADFB02460B4600203D4904F0A7FB044694
:10258000B8F856030D4604F011FA00223B4B04F054
:10259000C1F822462B4604F06FFA4FEA870998F8F3
:1025A00058338B4698F85A13C9F11C02002B02EBE2
:1025B000011202EBC60682460CBF00201420301A1E
:1025C00004F0E4F998F854330646002B0CBF0020C1
:1025D0000820C0EB09000F4604F0D8F902460B466C
:1025E0003046394604F072FB03F06EFF064698F859
:1025F00055030F46043004F0D9F902460B46304625
:10260000394604F039FA0022002306460F4604F04A
:10261000C3FC30B1304639460022164B04F07AF83C
:1026200001E01449002022462B4604F025FA024618
:102630000B465046594604F06DF809A3D3E9002330
:1026400004F01AFA08A3D3E9002304F063F8BDE804
:10265000F84F03F0C9BF00200021BDE8F88F00BF8C
:102660000000000080842E412B8716D9CEF7EF3F63
:102670000000F03F00002040F0A0000800001140E2
:1026800007B50246086849686B4603C311F0010F9D
:102690004FEA610018BF1158009B104418BFCB5877
:1026A000984703B05DF804FB38B590F81133044641
:1026B000012B17D10368FA221B6D1121984723685B
:1026C00040211D6D20465B6D9847402100F03F0280
:1026D0002046A8470721236884F81013D3F89430C4
:1026E0002046984738BD000008B511B1012907D030
:1026F00021E0036811215B6D98474010404218E0CB
:102700001149D0F8142303688A425B6D4FF01B0116
:1027100006D9984704F04AF909A3D3E9002304E055
:10272000984704F043F9094B002203F0F1FF04F04D
:102730003DFC80B201E04FF6FF7000B208BD00BF63
:102740000000000000A0634040DD4A1F008064409C
:1027500070B590F811530446012D17D1036812216A
:102760005B6D9847236810F001061B6D20464FF003
:10277000120105D005229847E3693BB1284604E0E1
:1027800004229847E3690BB13046984770BD90F832
:1027900011332BB990F8383313B9012380F838334B
:1027A000704738B590F810330446022B02D0052B41
:1027B0002FD038BD90F811334BBB80F8383380F8F8
:1027C0003933A0F84433A0F8423303683E211B6D2F
:1027D0000B229847236820461B6D3F211022984703
:1027E00094F8323363B1236820461D6D0D215B6D73
:1027F000984740F040020D212046D2B2A84706E09B
:10280000012384F8103304F5377001F046FF236983
:1028100003E0012380F81033836803B1984738BD83
:1028200010B5044603F078FC044A204640F8142B07
:10283000002103F0EAF8204610BD00BF90A5000873
:102840007FB5089D04460095099D04F15006019549
:102850000A9D02950B9D039500F00CFF4C4B204602
:1028600040F8203B4FF0FF33142500939DF93010C2
:102870009DF938309DF93420FEF7D0FA2A463046CB
:10288000002105F077FA30469DF93C1004F164060A
:1028900002F09EFA2A463046002105F06BFA3046D7
:1028A0009DF9401002F078FA9DF9441004F1780087
:1028B000FEF736FE9DF9481004F1D800FEF730FE11
:1028C0009DF94C1004F59C70FEF72AFE9DF95010FE
:1028D00004F5CC70FEF724FE04F516769DF954102D
:1028E00004F5FC70FEF71CFE2A463046002105F078
:1028F00041FA284D9DF958103046002602F04CFA56
:1029000084F86C6204F51F70FFF78AFFC4F87C52EC
:1029100004F52B70FFF784FFC4F8AC5204F5377050
:10292000FFF77EFFC4F8DC520A2003F069F884F850
:102930000C634FF4807003F0C0FD0125C4F87002F1
:1029400084F87452302003F0B8FD9823C4F878025C
:1029500080E82800D4F878329C229A60DD60D4F8B0
:102960007832A0221A615D61D4F87832A4229A618B
:10297000DD61D4F87832A8221A625D62D4F8783228
:1029800020469E62DE6284F8105304B070BD00BF22
:10299000F8A10008C89E0008F8B5036809215B6D1E
:1029A00004469847236806215B6D064620469847F3
:1029B000236805465B6D072120469847236800027F
:1029C00040EA05455B6D082120469847284303F0FF
:1029D000DDFF21A3D3E9002304F04EF804F00EFB41
:1029E000236800221B6D092105462046984723686D
:1029F0003B211F6D20465B6D984740F040023B2114
:102A00002046D2B2B847236820465B6D3B219847E9
:102A10008206F8D4124B3B21C4F8143323682046B5
:102A20001F6D5B6D984740F040023B212046D2B2BB
:102A3000B847236820465B6D3B2198478306F8D44E
:102A4000236820461B6D092132469847236820469B
:102A50009B6929469847F8BD0000000080844E40DD
:102A600000A1BC33AFF3008010B50023074ADC009F
:102A700052F83310884205D322449168884201D22B
:102A8000107910BD0133152BF0D1FEE740A10008ED
:102A90002DE9F04F85B01D469DF838309DF860C097
:102AA0000393164603689DF85C205B6902910192CE
:102AB000CDF800C00446BDF84080BDF844B09DF894
:102AC00048709DF84C909DF850A098470299019A43
:102AD000DDF800C011B1012969D03FE10F9B84F8F6
:102AE00032C3C4F82853C4F8243384F830A384F8DC
:102AF00031232846C4F8206384F82E7384F82F937A
:102B0000A4F82C8303F042FF02460B4696A1D1E9BC
:102B1000000104F0DBF804F071FA236885B22A0A98
:102B20001B6D2046022198472368EAB21B6D0321E2
:102B3000204698473046FFF797FF236802461B6DF3
:102B40001221204698470F98FFF78EFF2368024610
:102B50001B6D204613219847236820461B6D2521B5
:102B60004FEA1822984723685FFA88F21B6D2046C7
:102B700026219847236830211D6D20465B6D9847BC
:102B8000002F00F06F000CBF8023002340EA0A1AD8
:102B90004AEA030220463021D2B2A847002F00F0B3
:102BA000DD80236820461B6D32214A46CFE0092E86
:102BB00000D9FEE7039B0C2D84F855339DF8543063
:102BC000C4F84C6384F85B339DF85830C4F8505314
:102BD00084F8587384F8599384F85AA384F85C33C2
:102BE00084F85D2384F85EC31ED8052D08D9082E0D
:102BF00002D10C2D1ED11BE0072E07D10A2D08E0B3
:102C0000082E4FF0060515D0072E13D0062E02D140
:102C1000092D0DD80EE0052EFAD0042E01D1082D75
:102C2000F7E7032E06D803E0082E40F092800C252B
:102C3000012300E00023226884F85433136D1D2122
:102C4000526D2046019390470399204647EA41027E
:102C500042EA0612D2B21D21019B984723681E2129
:102C60001E6D20465B6D9847CBF3012242EA8A0A2B
:102C700000F008004AEA000A4AEA0512D2B22046E9
:102C80001E21B047236826211E6D20465B6D9847A4
:102C900094F8542320F0080040EAC202262120467E
:102CA000D2B2B047236820461B6D1F215FFA8BF21A
:102CB0009847236820461B6D20214FEA1822984729
:102CC000236820461B6D21215FFA88F298472FB1B7
:102CD000236820461B6D22214A46984794F85B33AF
:102CE00093B1236844211E6D20465B6D984760F0C8
:102CF0007F0244212046D2B2B047236820461B6D94
:102D0000242194F85C2398472368062D20461D6DE6
:102D10004FF031015B6D0DD1984700F0F802312181
:102D2000204642F00502A847236820461B6D372144
:102D30000C220CE0984700F0F8023121204642F0C6
:102D40000302A847236820461B6D37210A229847B3
:102D500004E0072E3FF46BAF0C2557E705B0BDE844
:102D6000F08F00BFAFF300800000000080847E4140
:102D70001FB5044602A880E80C008DE80C0003464D
:102D8000A16103CB064B21620699E061E362204614
:102D90000023636104B0BDE8104001F089BC00BFAE
:102DA00081260008000000002DE9F04190F8114351
:102DB00086B006460F4614B1012C2ED071E0036890
:102DC0004021D3F850805B6D90F83253984700F063
:102DD000030242F00C0230464021C04733684121D3
:102DE000D3F8508030465B6D984760F03E02412139
:102DF0003046D2B2C047336830465B6D35219847C4
:102E000000F03F0086F8460386F8384386F83943D9
:102E1000A6F84443A6F8424344E0036890F85D23D3
:102E20001C6D33215B6D32B1984740F04102332174
:102E30003046D2B206E0984700F0BE023321304659
:102E400042F00102A047336896F85B2396F85E5380
:102E50001B6D3046112152B11D2298473368304610
:102E60001C6D40215B6D984700F0330209E01F2282
:102E70009847336830461C6D40215B6D984700F0E1
:102E80003F0230464021A047336830461B6D0F217A
:102E900000229847336830461B6D0D210022984769
:102EA00000E00025D6F8700200214FF4807204F093
:102EB00061FF022386F8103367B1354A02AB92E80E
:102EC000030083E80300009706F52B7031460CCB16
:102ED000FFF74EFF336896F81123D3F8943030464D
:102EE000002A47D105219847002D48D1284B04AF2F
:102EF00093E8030087E80300B6F82C0303F056FDBF
:102F0000336804460D465B6D30462721984720F014
:102F1000F80003F04BFD00221E4B03F0FBFB0246C2
:102F20000B462046294603F0F5FB0022194B03F01F
:102F3000F1FB0022184B03F09FFD0446D6F828034E
:102F40000D4603F023FD02460B462046294603F0BA
:102F5000BDFE0DA3D3E9002303F08EFD04F04EF86F
:102F600006F5377800903146404697E80C00FFF7A9
:102F7000FFFE04E00DB1052100E00621984706B0F0
:102F8000BDE8F081AFF300800000000080842E4196
:102F9000E8A000080000F03F00002040AFF30080F0
:102FA0007FB590F8113304460D4613B1012B1FD0A5
:102FB0004BE0036840211E6D5B6D9847402100F097
:102FC00003022046B047236841211E6D20465B6DF9
:102FD0009847412100F03E022046B0472368204632
:102FE0005B6D3521984700F03F0084F846032CE0E4
:102FF000036890F85B231B6D1121C2B1F52298473D
:10300000236840211E6D20465B6D9847402100F0EB
:103010003F020A432046B047236840211E6D2046E8
:103020005B6D9847402100F0F30220460CE0F72248
:103030009847236840211E6D20465B6D98474021CC
:1030400000F03F020A432046B04705230B4A84F8AC
:10305000103302AB92E8030083E8030000950CCB29
:1030600004F51F702146FFF783FE23682046D3F83E
:1030700094300321984704B070BD00BFE8A0000859
:103080002DE9F043002389B08DF80F3090F810330C
:103090000646022B03D0052B00F0DF81F1E190F80A
:1030A00011431CB1012C00F02081EAE103683F21AB
:1030B0005B6D98478DF80F009DF80F3006F52B7764
:1030C00013F0020F33686ED11B6D30463E210B2288
:1030D0009847336830461B6D3F211022984796F879
:1030E0003233D6F80090002B47D1012386F81033F5
:1030F000AB4B0DF1100893E8030088E80300B6F825
:103100002C0303F053FCD9F8543004460D463046E6
:103110002721984720F0F80003F048FC0022A14B3B
:1031200003F0F8FA02460B462046294603F0F2FA6D
:1031300000229C4B03F0EEFA00229B4B03F09CFC18
:103140000446D6F828030D4603F020FC02460B4641
:103150002046294603F0BAFD8DA3D3E9002303F0EE
:103160008BFC03F04BFF06F537790090314648465B
:1031700098E80C00FFF7FCFD0CE00D21D9F8543065
:103180003046D9F85040984740F040020D21304673
:10319000D2B2A047384601F080FA7369002B00F0E4
:1031A0009A80984797E0B6F84223B6F84413F2B9EC
:1031B000E9B996F82E2332B95B6E304606F24231F9
:1031C0000122984705E05B6D304632219847A6F80A
:1031D0004203B6F8443396F842233068D6F87012AA
:1031E000D21A446E19443046D2B2A04707E0D6F84E
:1031F0007042521A5B6E30462144D2B29847B6F8FC
:103200004233D6F80090A6F8443396F83233002BB8
:1032100047D1012386F81033614B0DF1180893E86C
:10322000030088E80300B6F82C0303F0BFFBD9F8CD
:10323000543004460D4630462721984720F0F800C8
:1032400003F0B4FB0022574B03F064FA02460B462E
:103250002046294603F05EFA0022524B03F05AFA48
:103260000022514B03F008FC0446D6F828030D4613
:1032700003F08CFB02460B462046294603F026FD50
:1032800043A3D3E9002303F0F7FB03F0B7FE06F5F1
:10329000377900903146484698E80C00FFF768FD02
:1032A0000CE00D21D9F854303046D9F850409847F9
:1032B00040F040020D213046D2B2A047384601F01E
:1032C000ECF9F4683CB1D6F87002B6F8421396F9FE
:1032D0003A230023A047002386F8383386F8393391
:1032E000A6F84433A6F84233CBE0036812211B6DE5
:1032F00040229847336830465B6D122198478DF81D
:103300000F009DF80F3006F52B7813F0200F33686F
:103310000ED01B6D304612212022984796F85E335E
:103320000BB986F81043404601F0B7F97369A6E07F
:103330005B6D304619219847C0B24FFA80F9B9F158
:10334000000F86F8640308DAC9F10009C9F3870998
:10335000C9F100095FFA89F901E0C9F38709336807
:1033600030465B6D1A21984796F964330746002B67
:10337000D6F814230D4B00B24FEA27172DDA9A42E4
:1033800016D903F013FB04A3D3E9002314E000BF14
:103390000000000080842E410000000000A0634077
:1033A000E8A000080000F03F0000204040DD4A1F78
:1033B00003F0FCFA364B002203F0AAF90446384623
:1033C0000D4603F0F3FA02460B462046294603F069
:1033D000A1F904460D46484610E09A4205D903F08B
:1033E000E5FA29A3D3E9002303E003F0DFFA284B31
:1033F000002203F08DF904460D46384603F0D6FA54
:1034000002460B462046294603F084F903F0CEFD20
:10341000336886F865035B6D13213046984733683F
:1034200086F8660302465B6E3046D6F870129847FF
:1034300096F85E3313B9012386F81033404601F045
:103440002CF9F468ECB1D6F8700296F8661396F988
:10345000652396F96433A04713E000F51F7001F06F
:103460001CF996F81133012B05D1336830461B6DDA
:10347000122108229847012386F81033736803B19C
:10348000984709B0BDE8F0830000000000A0634049
:1034900000806440AFF3008010B5184B0446036011
:1034A000D0F8700203F000F8D4F8780202F0FCFFC4
:1034B00004F53770FDF724FD04F52B70FDF720FDB2
:1034C00004F51F70FDF71CFD04F5FC70FEF708F80D
:1034D00004F5CC70FEF704F804F59C70FEF700F8D4
:1034E00004F1D800FDF7FCFF04F17800FDF7F8FFC8
:1034F000034B20462362034B236010BDF8A1000854
:10350000B09E000880A0000810B50446FFF7C4FF75
:10351000204602F0C9FF204610BD0000F0B5002390
:1035200001229A400C681440944240F098804A6806
:1035300022F01002022A0FD103F00705AD000F2779
:10354000AF40DA0800EB8202166A26EA07070E6926
:10355000AE4047EA060515625A004E6803259540BD
:1035600006F0030696400768ED432F403E43066091
:103570004E6826F01006013E012E0ED8CE688768F0
:1035800096402F403E4386604E684768C6F300165B
:103590009E4027EA04073E434660C66835408E6871
:1035A000964045EA0602C2604A68D20057D503F049
:1035B0000306B6000F27B7402B4A156A45F00105F0
:1035C000156223F0030505F1804505F58035AA68ED
:1035D00022EA0707254A904216D002F580629042FF
:1035E00014D002F58062904212D002F580629042BF
:1035F00010D002F5806290420ED002F580629042B7
:1036000014BF0822072208E0002206E0012204E09D
:10361000022202E0032200E00422B2403A43AA6000
:10362000134A4F681668E543FF034CBF26432E40FC
:1036300016604F685668BF034CBF26432E40566045
:103640004F689668FF024CBF26432E4096604F6835
:10365000D668BF0254BF05EA06043443D460013380
:10366000102B7FF45DAFF0BD003802400000024037
:103670000004014030B5C360039B064D0361049B09
:1036800005604361059B41608361069B8260C36165
:1036900030BD00BF80A000087047000008B5094B8E
:1036A00003201A6842F004021A601A6842F002020B
:1036B0001A6001F001FB0F20FEF71EFAFFF7ECFF86
:1036C000002008BD003C0240024B1A6801321A601B
:1036D000704700BF98050020014B1868704700BF75
:1036E000980500201FB52E4A0368136090F9043036
:1036F000252B51D8DFE803F0131517191B1D1F21C7
:103700005050505050505050232550505050505011
:10371000505050503335373927292B2D2F31002366
:1037200024E0012322E0022320E003231EE00423FF
:103730001CE005231AE0062318E0072316E00823FF
:1037400014E0092312E00A2310E00B230EE00C23FF
:103750000CE00D230AE00E2308E00F2306E01223FD
:1037600004E0132302E0142300E015230193012356
:1037700001A902930A4802230393FEF779F8084847
:10378000FEF732F906480A21FEF73CF820B9044852
:10379000FEF76AF880B200E0002005B05DF804FB97
:1037A0009C05002070B506468EB008460C461E49A2
:1037B000FDF7F6FD3060013004D11C481C49312270
:1037C00002F00EFE20461849FDF7AEFD194B34718C
:1037D0001C68002C26D101251D6001A8022301933D
:1037E00004950A9401F046FB326813480260134ABC
:1037F000116A41F4007111624FF480614FF400329C
:103800004161102142608460C46004618161C261D1
:10381000046244628562C462056344638463C46372
:10382000FDF754FF0EB070BD84A90008B0A20008D7
:10383000C8A20008EC0500209C05002000380240CA
:1038400008B5FFF74FFFC0F3032343EA001080B22F
:1038500008BD000010B5044602F0D6FD014B1C6007
:1038600010BD00BFF405002038B502F001FE0E4C7B
:1038700023681BB9BDE8384002F0F0BD1D6802F0B6
:10388000D5FD281A002809DC226893682360074BBD
:103890001B68002BEBD050689847E8E7236818684E
:1038A000BDE8384002F0D0BDF0050020F40500204E
:1038B00038B5054672B680E806000A4A0023146847
:1038C00034B12068081A002802DB2346A468F7E711
:1038D00023B90846156002F0B7FD00E09D60AC60BA
:1038E00062B638BDF005002008B572B60C4A136800
:1038F00083420DD19B68136013B902F0AFFD0CE059
:10390000186802F0A1FD08E09A68824203D01346CD
:10391000002BF9D101E082689A6062B608BD00BF51
:10392000F005002010B50C4A946892682346B2F165
:10393000006F0DD1094B04F160420432D25843F8B4
:10394000042F074A9342F6D1034A4FF00053936085
:10395000103043F8201010BD00ED00E0FCFFFF1F09
:103960002001002008B5044B186803689B6B98473A
:10397000024B05221A7008BD600600206406002074
:1039800008B5044B186803689B6B9847024B0622E6
:103990001A7008BD600600206406002008B5074BB9
:1039A000186803689B6B9847054B064A1B880021E3
:1039B000D154054B03221A7008BD00BF60060020D9
:1039C00044010020600700206406002008B5044B75
:1039D000186803689B6B9847024B04221A7008BD55
:1039E000600600206406002010B50446FDF77AFA50
:1039F000204610BD1FB500238DF80D1090F8501013
:103A000000938DF80C3003AA0223C06CFEF7EEF889
:103A100005B05DF804FB1FB540238DF80C30002382
:103A20008DF80D1090F85010009303AA0223C06C7B
:103A3000FEF7DCF805B05DF804FB70B5402388B0F4
:103A40008DF80C30426C036C0446D31A9EB20025EC
:103A5000B54215D2226C00235119C85C03A9194440
:103A60000133102B4870F7D10023009394F85010C5
:103A7000E06C03AA11231035FEF7B8F8ADB2E7E702
:103A800008B070BD0EB403B538B1064B04AA1B686C
:103A90000399D868019205F059F802B05DF804EB7B
:103AA00003B07047AC0100202DE9F04198460C4B63
:103AB000074618680C4605681646AB6B9847094BD5
:103AC0003946224608481C8004F030F90749084B63
:103AD00002224E8181F80E801A70BDE8F08100BF8D
:103AE00060060020440100206007002074060020CA
:103AF0006406002038B590F90030044601330D46C5
:103B000004D105480549352202F06AFCE368626881
:103B100005B912041A6038BD189E0008309E0008CE
:103B200010B5094C94F90030013304D10748084915
:103B3000432202F055FCA3681A6863681A420CBF5E
:103B40000020012010BD00BF2C070020189E000897
:103B5000309E000810B5074B044603606433436091
:103B6000006C08B102F0A0FC2046FCF72FFC2046B8
:103B700010BD00BFA8A50008A0F10400FFF7EABF30
:103B800010B50446FFF7E6FF204602F08DFC204604
:103B900010BDA0F10400F3E710B5044B0446036028
:103BA00064334360FFF7D6FF204610BD50A30008E2
:103BB000A0F10400FFF7F0BF10B50446FFF7ECFFDB
:103BC000204602F071FC204610BDA0F10400F3E78E
:103BD00038B5142204460D46002104F0CBF82046E7
:103BE000294601F0F5F8204638BD00002DE9F341E3
:103BF000954A964C1388C3F30B07002F40F01381AE
:103C00001E0470D4924D6FEA43436FEA5343286811
:103C1000138000F010FF2868022380F82830E37B2F
:103C2000078447840BB98B4903E0012B0CBF8A49F9
:103C30008A4902F0BFF828680027102307844384CC
:103C4000874902F0B7F828680126242380F8286005
:103C500007844384834902F0ADF828682E23078443
:103C60004384814902F0A6F82868382307844384F6
:103C70007E4902F09FF82868022203688DE844001C
:103C80005E219F6C32460423B847286803270368E7
:103C900001960097D3F848C05C2104220823E0472E
:103CA00028680822036801960097D3F848C05C2171
:103CB0001346E04728680C220368009701969E6C23
:103CC0005C210823B04728686823038405234384C4
:103CD000674902F06FF82378642043F004032370EF
:103CE00001F08EFE9FE0634800F096FF00283BD075
:103CF0002378574EDD4305F00105306865F3000376
:103D00000122DBB280F8282043F004033822078424
:103D100042842370374685B1574B1B7853B15749BE
:103D2000574804F096FA574B55491868052203681E
:103D30005B6B98473868544914E0544902F03AF8EC
:103D400030681027036800970195D3F848C07821A0
:103D500008233A46E04730680223414980F828307A
:103D60000584478402F026F8B4F90A2040F6FF7370
:103D70009A42364E23D1DFF8D8804FF48053D8F8DA
:103D8000000010257381002703688DE8A0007821CA
:103D9000D3F848C02A460823E047D8F80000022399
:103DA00080F8283033784584DD0707844CBF3849D4
:103DB0002B4901F0FFFF237843F00403237022789E
:103DC000224B91072FD56FF341021A70204A02212E
:103DD0001068154680F828100021018410214184C4
:103DE0001989B3F90A2011F0010F0CBF29492A499A
:103DF000002AB8BF524201F0DDFF28684423038443
:103E0000102343842389B4F90C2013F0010F0CBF55
:103E100022492349002AB8BF524201F0CBFF237840
:103E200043F00403237023785A070AD5074A6FF337
:103E300082031370064B186802B0BDE8F04100F031
:103E4000E5BD02B0BDE8F081380600207406002010
:103E50009C060020C5A30008CCA30008D3A300083B
:103E6000DBA30008E6A30008FBA3000811A40008D8
:103E70001FA40008A0060020460100207DA5000820
:103E8000600700206006002025A4000834A4000874
:103E900043A400084EA4000856A400085EA400082D
:103EA00065A4000838B533480021FFF723FE01213F
:103EB000304800F0E7FE962001F0A2FD2E4B2F487F
:103EC0001C78621C1A70FFF7BBFC2D4B2D4A197829
:103ED00004F01F0422F8140011B100231C460AE06C
:103EE00001211970134602F13E01108823F8020FD8
:103EF0008B42FAD1F1E7995A0233402B0C44FAD1A4
:103F000000211C4800F0BEFE600903F04DF91E4977
:103F100003F0A2F903F016FB80B2B0F5486F09D3A5
:103F2000A0F548640A2394FBF3F4A4B2652C28BFDF
:103F3000642400E00024154D01232868144980F80A
:103F400028306823038405234384224601F032FF8E
:103F5000642C09D02868202101F020FF092C03D807
:103F60002868202101F01AFF2868BDE8384000F0D9
:103F70004DBD00BF4C0700208406002058060020DD
:103F800070060020F8050020CE40CE3D9C060020A3
:103F90006CA4000838B50C1A0346154604D0104628
:103FA0001946224603F0CBFE281938BD2DE9F0470B
:103FB00004460E4699461546002A6ED04768836827
:103FC000DB1B934232D3C1EB0708904599F8009070
:103FD00014D9C2EB070840463A463946FFF7DAFFE4
:103FE0006368B8EB06022B44636003D0B81A31460D
:103FF00003F0A5FE304649462A4613E0C8EB020509
:1040000049462A46384603F0B5FE626839462A44D6
:1040100062603046FFF7BEFF63683046434463602A
:1040200049464246BDE8F04703F0A4BE00683F1A87
:10403000FB43934202D21A4802F041FABA422CBF23
:1040400007EB020807EB0708B84538BF4FF0FF3809
:10405000C0EB010AB8F1000F04D0404602F010FA9C
:10406000074600E047462A4699F8001007EB0A0089
:1040700003F080FE31463A462068FFF78BFF616807
:1040800042193046FFF786FF0546206808B102F066
:104090000BFA276047446560A760BDE8F08700BF62
:1040A00071A400082DE9F04FA64DA74C91B0A74888
:1040B0000021FFF71FFD00211022284603F05AFEC1
:1040C00010222046002103F055FEA14B0120236061
:1040D0000923A3720C23E3720E2323730823637353
:1040E0000523E3730423A3739A4B20711A78E873B2
:1040F00098460AB1984900E09849FFF7C3FC0021AF
:104100009748FFF7F7FC974800F00AFE954800F043
:10411000E6FD642001F074FC542002F0B1F90021A6
:10412000044601F019FE40236383E3830123A38443
:1041300084F8283084F82A308B4B0026802204F142
:104140002C07236064332283A28363602684668401
:10415000E68484F8296038460821FFF739FD38469F
:104160003146FFF7C7FC10AB4FF4806204F140000A
:1041700026646664A66403F8016D3146FFF716FFF6
:104180007A4B2046236064336360794B0221E364F9
:10419000782384F8503000F073FB204600F012FBC7
:1041A000204600F033FC734BB2461C603746344661
:1041B0000A2001F025FC6B4800F0AAFD504503DD04
:1041C0000AF57A7AFFF76EFE6B4EFFF70FFDD6F811
:1041D0000090B346B9F1000F1BD14FF4647002F0A8
:1041E0004FF9664B04460093654B664A0193664956
:1041F000664BCDF80890CDF80C90FCF79DFD34602F
:1042000023682046DB68E97B98470A2001F0F8FB29
:104210004C463068422103685B6D98478146002810
:1042200075D101205A494A46FFF72CFC514A022118
:10423000106880F8281010214184A0F8209055497A
:104240000D9201F0B7FD0D9A106800F0DFFB6420BD
:1042500001F0D6FBDBF80000422103685B6D984754
:1042600008B9C820F4E7002C44D130683849036805
:1042700000249B69984700204749FFF703FC012071
:104280004649FFF7FFFB30680C22036801920822C1
:10429000039204220792424A4FF001094FF0090BA2
:1042A00004940594069408940992CDF800B0CDF8D2
:1042B0000890D3F828C0494623460E22E0473068CC
:1042C000082203680526029204220892CDF8009085
:1042D0000194039604940594069407940994CDF8E8
:1042E00028905C6A49460C235A46A04798F800304B
:1042F0007BB91DE0204B186810B103685B689847D4
:1043000000236420336001F07BFB012450E7ACB94B
:10431000ABE72448244903F09CFF2B78D8070DD540
:10432000154B20491868324603685B6B984705E0D7
:10433000114A1E49106803685B6C9847C7BB002789
:1043400047E000BF74060020480600202C0700202C
:10435000604FC7334601002088A40008ABA40008C2
:10436000880600203C060020A8A5000850A30008ED
:10437000400700209C060020600600209D390008B0
:10438000CD3900088139000865390008A93A0008CC
:10439000CDA40008ECA40008F7A400080CA50008B0
:1043A00080841E00600700207DA5000840420F00A9
:1043B000013FBFB26FB97249724803F04AFF2B78D0
:1043C000D907BCD5704B6F491868052203685B6B31
:1043D00098476E4C2378062B00F2CE8001A252F84B
:1043E00023F000BF0B430008794500080144000892
:1043F000D744000825450008C94400086545000861
:104400002B8998F8002001332B812B78DFF8A891B5
:1044100043F002032B705E4BDFF86CB11B881AB3BC
:10442000002B00F0A980574E5A493046042203F071
:1044300020FF002845D1FFF773FBD0F1010138BF01
:1044400000215548FFF756FBB2797379012003EB41
:1044500002239BB2A9F80C305049B9F90A201BB2CB
:10446000FFF710FB642787E0002B00F08580454EA6
:1044700043493046042203F0FCFE10BBFFF750FB1B
:10448000D0F1010138BF00214348FFF733FBB9F9F0
:104490000A2001204249FFF7F5FA3E49304603F071
:1044A000D8FEB9F80A300A20737143F30723B371B9
:1044B00001F0A6FADBF800003146036807225B6BC7
:1044C0004EE0DBF8000053E098F80030002B4DD1AF
:1044D0000120344948E001203349FFF7D3FA98F826
:1044E0000060DFF8A490AEB1FFF71AFBD0F1010134
:1044F00038BF00212848FFF7FDFA40F6FF73214836
:104500001F496B8103F0A5FE2B78DA0734D5D9F863
:10451000000021E0D9F80000244903685B6C98474B
:104520002670F2E601202249FFF7ACFA98F8003035
:10453000154E14484BB1124903F08BFE0A2001F0CE
:104540005FFA2B78DB0717D505E0124903F081FEEF
:104550000A2001F055FA306803680A495B6B0522AE
:10456000984709E013490120FFF78CFA064B1868B9
:1045700003680E495B6C984700232370C5E600BFB3
:104580007DA500086007002060060020640600206A
:1045900044010020C0A300082C0700201CA500082F
:1045A00034A5000848A5000852A5000840420F00A5
:1045B00061A500086EA500087406002013B512213D
:1045C0001B48FFF705FB1B4C0E211B48FFF700FBA8
:1045D0002A2300932046222321212C2200F0BEFA18
:1045E000164A2046164901F063FF164C16481C2156
:1045F000FFF7D8F815482521FFF7D4F814222046F4
:10460000002103F0B7FB20460D21114C00F0C4FB44
:10461000104800F08DFB204619211822FDF7BCFA46
:104620000D49204602B0BDE81040FDF7C7BA00BFF3
:104630002C070020A0060020880600203C01002056
:10464000E93900084C0700206806002058060020C1
:10465000400700203C060020400D030008B5074C31
:1046600005462368986803F0C7F82368D86803F004
:10467000C3F805B9FEE701F0B1FBFBE7AC01002090
:1046800010B5016943680446194401F057FD04F16F
:104690001400BDE8104001F0C1B910B5044601F0A6
:1046A00051FD04F114000021BDE8104001F0B2B941
:1046B00038B504460D4601F045FD256101F0B6FE12
:1046C00041192046BDE8384001F038BDB0F1804FB7
:1046D00003680ED01C4A90420BD002F580629042D3
:1046E00007D002F58062904203D002F57C429042EE
:1046F00016D14A6823F07003B0F1804F43EA0203F9
:1047000015D0114A904212D002F5806290420ED02C
:1047100002F5806290420AD002F57C42904206D0B7
:104720000A4A904203D002F58062904203D1CA68DF
:1047300023F44073134303608B68C3620B68836286
:1047400001234361704700BF00040040000C01409A
:1047500001238B408A4010B5046A9BB224EA03030C
:104760000362036A1343036210BD704710B5044629
:1047700080B190F835300BB9FFF7F7FF022384F8CA
:1047800035302068211DFFF7A1FF012384F8353063
:10479000002010BD012010BD10B5012204460068A4
:1047A000FFF7D6FF236800201A6842F001021A6062
:1047B00010BD08B503680029DB6C0CBFA621A7213A
:1047C000984708BD70470000002930B554DBB0F9A8
:1047D0001C408C4250DD002A4EDBB0F91E40944252
:1047E0004ADD90F8294004F00304022C80F82940A7
:1047F0003AD1048B013C611A448B09B2013CA21AE4
:1048000012B206E0012C04D1048B013CA41A0A4622
:1048100021B2012B194B4FF00805B0F9184002EAFC
:10482000030392FBF5F212B2006C04FB02110CD1EF
:10483000002B03DA013B63F00703013301221BB2B3
:1048400002FA03F3425C13430CE0002B03DA013B52
:1048500063F00703013301221BB202FA03F3425C47
:1048600022EA0303435430BD032CCBD1448B013CDB
:10487000641A114622B2CCE730BD00BF07000080A9
:1048800038B590F92C30044601330D4604D15D480B
:104890005D49352201F0A4FDA36B226B01201A6053
:1048A00001F0AEF894F92C30013304D15548564943
:1048B000352201F095FD226BA36B12041A600A20C9
:1048C00001F09EF894F92C30013304D14D484E4943
:1048D000352201F085FD226BA36B20461A60236808
:1048E000AE21DB6C984723682046DB6CD5219847C6
:1048F00023682046DB6C8021984723682046DB6CC8
:10490000A8219847A17E23680139DB6C2046C9B2F3
:10491000984723682046DB6CD321984723682046BC
:10492000DB6C0021984723682046DB6C40219847C8
:1049300023682046DB6C8D2198472368012D14BF26
:1049400014211021DB6C2046984723682046DB6C3D
:104950002021984723682046DB6C00219847236874
:104960002046DB6CA121984723682046DB6CC821D8
:10497000984723682046DB6CDA219847B4F91A205F
:104980002368202A14BF12210221DB6C204698479D
:1049900023682046DB6C81219847B4F91A202368EC
:1049A000202ADB6C04D0012D14BFCF219F2100E011
:1049B0008F212046984723682046DB6CD9219847F1
:1049C0002368012D14BFF12122212046DB6C98477A
:1049D00023682046DB6CDB21984723682046DB6C8C
:1049E0004021984723682046DB6CA4219847236820
:1049F0002046DB6CA621984723682046DB6CAF215C
:104A0000984738BD189E0008309E000810B503680E
:104A10000446DB6C0021984723682046DB6C10219C
:104A2000984723682046DB6C40219847236820463E
:104A30009B6D984710BD036C426C934203D00021DC
:104A400003F8011BF9E7704707B502460868496893
:104A50006B4603C311F0010F4FEA610018BF1158F4
:104A6000009B104418BFCB58984703B05DF804FB77
:104A700010B590F900300446013304D106480749C7
:104A8000432201F0ADFCA3681A6863681A420CBFA8
:104A90000020012010BD00BF189E0008309E0008B5
:104AA00037B504463030FFF7E3FF8DF8040004F11A
:104AB0004400FFF7DDFF8DF8050004F15800FFF713
:104AC000D7FF8DF8060004F16C00FFF7D1FF2346F5
:104AD0008DF80700002201A9515CC9B993F8801034
:104AE00003299CBF013183F8801093F880100429BA
:104AF0001ED1A11891F88800C50719D440F0010013
:104B000081F8880093F88410013183F884100FE055
:104B100093F8801011B1013983F8801093F8805018
:104B200035B9A11891F8880065F3000081F8880074
:104B30000132042A03F10103CDD103B030BD70B5B9
:104B400004460E4615460021142203F013F92046B0
:104B500031462A4600F023F9204670BDF7B50446D9
:104B600015460E461F4601F0D7FA234B204640F863
:104B7000143B002100F049FF314604F130000122CE
:104B8000FFF7DDFF294604F144000122FFF7D7FFBC
:104B9000394604F158000122FFF7D1FF04259DF9A1
:104BA000201004F16C000122FFF7C9FF2A4604F12E
:104BB0008000002103F0DEF82A4604F18400002181
:104BC00003F0D8F82A4604F18800002103F0D2F857
:104BD0000A4B0022009301926B4603CB084BE06125
:104BE00021622046A461E362626142F21071FFF724
:104BF0005FFD204603B0F0BD90A50008A14A000863
:104C0000494A0008014491F8840020B10138C0B23B
:104C100081F88400013070470121FFF7F3BF0000E5
:104C2000431C10B5044604D106480749272201F069
:104C3000D7FB20460021FCF7E5FC04F00F0401201F
:104C4000A04010BD1D9E000818A6000870B54B1CA2
:104C500004460D46217010D0C1F30310FCF792FCFE
:104C600006462846FFF7DCFF06F11003A36006F1B5
:104C7000180328366060E360266170BD90F900007B
:104C8000FCF7EEBC38B590F90030054601330C4610
:104C900004D107480749472201F0A2FB012C95F9EE
:104CA00000000CBF21460021BDE83840FCF7AABC3B
:104CB000189E000818A60008074A00F00700D368ED
:104CC00023F4E0631B041B0C43F0BF6343F4003385
:104CD00043EA0023D360704700ED00E0704710B551
:104CE0000368044623B901F0A1FB0123606023603F
:104CF00010BD10B50446006818B101F097FB636859
:104D0000C01A10BD10B58468FFF7F3FF204410BD32
:104D100008B5FFF7F7FF4FF47A7390FBF3F008BD87
:104D200010B5044601F082FB00236060A36010BD53
:104D300010B500230446036043608360FFF7F0FF73
:104D4000204610BD70B50E4604461546FFF77EFF9F
:104D5000013609D020460021FFF794FF204629465E
:104D6000BDE87040FFF78ABF70BD000038B590F90C
:104D70000030044601330D4604D10548054935226B
:104D800001F02EFBE368626805B912041A6038BDB1
:104D9000189E0008309E00080022FFF7D3BFFFF7DF
:104DA000D1BF70B50D4604461646FFF74FFF0135DB
:104DB0000DD020463146FFF7D9FF20460121FFF7ED
:104DC00061FF20460021BDE87040FFF757BF70BD6E
:104DD0000022FFF7E6BF0000094B036083686BB158
:104DE000084A1368834202D14368136070475A68C7
:104DF000824201D01346FAE742685A60704700BF0A
:104E000098A600088007002010B50446FFF7E4FFCD
:104E1000204601F049FB204610BD0000054B816093
:104E2000036000234360027319B1034B1A681860D2
:104E30004260704798A6000880070020F8B50B4B29
:104E400007461C680E4674B1A56855B12846394618
:104E5000324603F00EFA20B9284603F002FAB042B7
:104E600001D06468EFE72046F8BD00BF800700204E
:104E7000007B704770B503680446DD0704D42368DF
:104E8000980700F19B802DE1AC4B9A6802F00C0270
:104E9000082A07D09A6802F00C020C2A1FD19B68DE
:104EA000D9031CD54FF4003292FAA2F3B3FA83F37C
:104EB00043F02003C3F34213012BA04B0CBF1B682C
:104EC0005B6B92FAA2F2B2FA82F202F01F02D340B6
:104ED000DA07D4D56368012BD1D0012070BD984D7D
:104EE00000232B70FEF7F8FB06464FF4003292FACF
:104EF000A2F3B3FA83F343F02003C3F34213012B6D
:104F00008E4B0CBF1B685B6B92FAA2F2B2FA82F274
:104F100002F01F02D340DB0707D5FEF7DDFB801B45
:104F2000B0F5FA7FE1D9032070BD23792B70636857
:104F30000BB3FEF7D1FB05464FF4003292FAA2F311
:104F4000B3FA83F343F02003C3F34213012B7B4BEB
:104F50000CBF1B685B6B92FAA2F2B2FA82F202F00B
:104F60001F02D340D8078AD4FEF7B6FB401BB0F52A
:104F7000FA7FE1D9D7E7FEF7AFFB05464FF40032E1
:104F800092FAA2F3B3FA83F343F02003C3F342137C
:104F9000012B6A4B0CBF1B685B6B92FAA2F2B2FA50
:104FA00082F202F01F02D340D9077FF568AFFEF707
:104FB00093FB401BB0F5FA7FE0D9B4E75F4B9A68EA
:104FC00002F00C02042A07D09A6802F00C020C2AA4
:104FD0001ED19B68DA031BD4022292FAA2F3B3FA21
:104FE00083F343F02003C3F34213012B534B0CBF55
:104FF0001B685B6B92FAA2F2B2FA82F202F01F0215
:10500000D340DB0733D5E368012B7FF466AF2EE096
:10501000E2680123002A3AD093FAA3F2B2FA82F2AC
:10502000D2B2920002F1844202F58E021360FEF7C2
:1050300053FB0546022292FAA2F3B3FA83F343F03C
:105040002003C3F34213012B3C4B0CBF1B685B6B6B
:1050500092FAA2F2B2FA82F202F01F02D340DE0705
:1050600005D4FEF739FB401B6428E3D95BE7334BDB
:105070004FF4F850596890FAA0F0B0FA80F0226925
:10508000C0B2824021F4F8510A435A602AE093FAF0
:10509000A3F3B3FA83F3DBB29B0003F1844303F57C
:1050A0008E031A60FEF718FB0546022292FAA2F35D
:1050B000B3FA83F343F02003C3F34213012B1F4BD6
:1050C0000CBF1B685B6B92FAA2F2B2FA82F202F09A
:1050D0001F02D340D80705D5FEF7FEFA401B64280F
:1050E000E3D920E72368D90640F19A80134B226A5E
:1050F000596821F460410A435A609A6812F00C0F13
:1051000020D14FF4007292FAA2F1B1FA81F141F08C
:105110002001C1F3421101290CBF1B685B6B92FA9D
:10512000A2F2B2FA82F202F01F02D340DA073BD5B4
:10513000A369012B7FF4D1AE36E000BF00380240F6
:1051400002380240A2694FF48073002A3CD093FADF
:10515000A3F3B3FA83F3DBB29B0003F1844303F5BB
:105160008E0301221A60FEF7B7FA05464FF400726B
:1051700092FAA2F3B3FA83F343F02003C3F342138A
:10518000012BAC4B0CBF1B685B6B92FAA2F2B2FA1C
:1051900082F202F01F02D340DB0705D4FEF79CFA2F
:1051A000401B6428E2D9BEE6A24B4FF07F4059680D
:1051B00090FAA0F0B0FA80F0E269C0B2824021F02B
:1051C0007F410A435A602BE093FAA3F3B3FA83F3C7
:1051D000DBB29B0003F1844303F58E031A60FEF7F4
:1051E0007BFA05464FF4007292FAA2F3B3FA83F306
:1051F00043F02003C3F34213012B8E4B0CBF1B68FB
:105200005B6B92FAA2F2B2FA82F202F01F02D34072
:10521000DE0705D5FEF760FA401B6428E2D982E676
:1052200023681D0704D42368580740F1B08045E087
:1052300061690123804A01B393FAA3F1B1FA81F1C4
:10524000C9B242F82130FEF747FA0546022393FA25
:10525000A3F2B2FA82F2774A526B93FAA3F3B3FA4B
:1052600083F303F01F0322FA03F3D907DBD4FEF71D
:1052700033FA401B6428E9D955E693FAA3F3B3FA4D
:1052800083F3DBB242F82310FEF726FA0546022329
:1052900093FAA3F2B2FA82F2664A526B93FAA3F33C
:1052A000B3FA83F303F01F0322FA03F3DA07BAD544
:1052B000FEF712FA401B6428E9D934E65D4B5A6ABE
:1052C00042F080525A62A3F5E4331A6842F48072C5
:1052D0001A60FEF701FA0546584B1B68DB055AD5E4
:1052E0004FF4807292FAA2F2B2FA82F2524DD2B226
:1052F000002345F822304FF4806292FAA2F2B2FA0B
:1053000082F2D2B245F82230FEF7E6F906464FF4B3
:10531000007393FAA3F2B2FA82F2464A526B93FAFE
:10532000A3F1B1FA81F101F01F0122FA01F111F0AC
:10533000010136D1A3684FF48072002B38D192FA64
:10534000A2F2B2FA82F2D2B245F822304FF4806271
:1053500092FAA2F2B2FA82F2D2B245F82230A368EF
:10536000012B4AD1FEF7B8F905464FF4007393FAC2
:10537000A3F2B2FA82F22F4A526B93FAA3F3B3FA72
:1053800083F303F01F0322FA03F3DE072ED5636ACB
:10539000002B55D1BAE0FEF79FF9401B64289BD93A
:1053A000C1E5FEF799F9801BB0F5FA7FAFD9BAE5F0
:1053B000012B09D14FF4806090FAA0F0B0FA80F090
:1053C000C0B245F82010C3E792FAA2F2B2FA82F214
:1053D000D2B245F822104FF4806393FAA3F3B3FAE4
:1053E00083F30122DBB245F82320B8E7FEF774F916
:1053F000401BB0F5FA7FB8D995E5FEF76DF9054683
:105400004FF4007393FAA3F2B2FA82F2094A526B94
:1054100093FAA3F3B3FA83F303F01F0322FA03F31F
:10542000D807B4D5FEF758F9401BB0F5FA7FE7D995
:1054300079E500BF00380240800647420070004016
:10544000504A926802F00C020C2A3FF446AD022B3F
:105450004FF0807368D193FAA3F3B3FA83F3DBB20E
:105460009B0003F1844303F58E0300221A60FEF7CC
:1054700033F905464FF0007292FAA2F3B3FA83F3C0
:1054800043F02003C3F34213012B3E4B0CBF1B68B8
:105490005B6B92FAA2F2B2FA82F202F01F02D340E0
:1054A000D90735D4374BE16AA26A9868246B0A435E
:1054B000224320F47D0002439A604FF0807393FAF8
:1054C000A3F3B3FA83F3DBB29B0003F1844303F548
:1054D0008E0301221A60FEF7FFF804464FF00072B7
:1054E00092FAA2F3B3FA83F343F02003C3F3421317
:1054F000012B244B0CBF1B685B6B92FAA2F2B2FA31
:1055000082F202F01F02D340DA0707D5002070BDF7
:10551000FEF7E2F8401B6428ACD904E5FEF7DCF89E
:10552000001B6428DAD9FEE493FAA3F3B3FA83F3F9
:10553000DBB29B0003F1844303F58E0300221A6063
:10554000FEF7CAF804464FF0007292FAA2F3B3FADB
:1055500083F343F02003C3F34213012B094B0CBF29
:105560001B685B6B92FAA2F2B2FA82F202F01F029F
:10557000D340DB07CAD5FEF7AFF8001B6428E2D999
:10558000D1E400BF0038024070B5A24B04461A684F
:105590000D4602F00102914240F29A80012903D1A6
:1055A0001A6842F004021A601A6822F001022A43C3
:1055B0001A601B6803F00103AB4201D0012070BDEB
:1055C00023689A0706D5944BA268996821F0F001E8
:1055D0000A439A602368DB070BD423685E0740F117
:1055E00008818D4BE268996821F4E0610A439A6072
:1055F000FFE06368022B02D14FF4003109E0032B76
:1056000002D14FF0007104E0012B0CBF02214FF4D6
:10561000007191FAA1F2B2FA82F242F02002C2F3D2
:105620004212012A7C4A0CBF1268526B91FAA1F116
:10563000B1FA81F101F01F01CA40D507BED5764A03
:10564000916821F003010B439360FEF745F863680E
:105650000546022B0ED1704B9B6803F00C03082B00
:10566000BBD0FEF739F841F28833401B9842F2D99B
:10567000032070BD032B0DD1674B9B6803F00C0317
:105680000C2BAAD0FEF728F841F28833401B984231
:10569000F2D9EDE7012B0CD05F4B9B6813F00C0F98
:1056A0000ED19AE7FEF718F841F28833401B984272
:1056B000DED8594B9B6803F00C03042BF2D18CE726
:1056C000FEF70AF841F28833401B9842E4D9CFE74D
:1056D0000368980706D5504BA268996821F0F0013D
:1056E0000A439A602368D90707D4012D494B74D126
:1056F0001A6842F004021A606FE06368022B02D15C
:105700004FF4003109E0032B02D14FF0007104E0A7
:10571000012B0CBF02214FF4007191FAA1F2B2FAF1
:1057200082F242F02002C2F34212012A3A4A0CBF2E
:105730001268526B91FAA1F1B1FA81F101F01F01E7
:10574000CA40D2077FF53AAF334A916821F003018E
:105750000B439360FDF7C0FF63680646022B0DD133
:105760002D4B9B6803F00C03082BBED0FDF7B4FF54
:1057700041F28833801B9842F2D979E7032B0DD18F
:10578000254B9B6803F00C030C2BAED0FDF7A4FF58
:1057900041F28833801B9842F2D969E7012B0DD082
:1057A0001D4B9B6813F00C0F0FD19EE7FDF794FF84
:1057B00041F28833801B98423FF65AAF164B9B68E4
:1057C00003F00C03042BF1D18FE7FDF785FF41F2C5
:1057D0008833801B9842E3D94AE71A6822F0010215
:1057E0002A431A601B6803F00103AB427FF4E6AE64
:1057F000F3E623681B0707D5074B21699A6822F453
:10580000605242EAC1029A600F20FCF775F900204D
:1058100070BD00BF003C02400038024010B51E4B76
:105820009A6802F00C01082933D00C2912D00429FF
:105830002FD058684FF4604393FAA3F3B3FA83F37D
:10584000DBB200F46040D8404FF40043013003FA6B
:1058500000F010BD4FF4701494FAA4F4B4FA84F478
:105860004FF4400191FAA1F1B1FA81F102F4701004
:105870009B68E3B220FA03F3084802F44002C05CDC
:10588000CBB2DA40064B9B5CB0FBF3F0054B5843C0
:1058900010BD044810BD00BF00380240A0A600089B
:1058A000B9A600080024F40008B5FFF7B7FF094BBC
:1058B0009A68F02393FAA3F3B3FA83F302F0F002A9
:1058C000DBB222FA03F3044AD35CD840034B1860DE
:1058D00008BD00BF00380240A9A60008480100200A
:1058E00008B5FFF7E1FF084B9A684FF4E06393FABD
:1058F000A3F3B3FA83F302F4E062DBB222FA03F318
:10590000024AD35CD84008BD00380240A9A600086E
:1059100008B5FFF7C9FF084B9A684FF4605393FA34
:10592000A3F3B3FA83F302F46052DBB222FA03F377
:10593000024AD35CD84008BD00380240A9A600083E
:1059400010B50023036043600A7804462F2A13D160
:105950004A788AB1481C2060194623681A782F2A91
:1059600002D10133236004E01AB101330131236015
:10597000F3E7FFF763FA6060204610BD00687047E8
:1059800008B5406820B1FFF773FA431E58425841EA
:1059900008BD10B50446FFF7F3FF00B1606810BD05
:1059A00008B5406828B1FFF763FAD0F1010038BFAD
:1059B000002008BD10B50446FFF7F2FF10B1606883
:1059C00000B1043810BD4068003018BF0120704796
:1059D00038B5044600F02AFD054600F027FD401BBF
:1059E000A042FAD338BD000008B5044901F034FCE8
:1059F00001F082FDBDE80840FFF7EABF00247449CA
:105A00004FF47A735843FFF7E3BF0022426082618C
:105A100001607047002301604360704708B5036868
:105A200001460BB1984708BD406810B18B69083139
:105A3000984708BD00F000B810B51A4A1A4B916893
:105A400001F00C010C2919D8DFE801F0181818181A
:105A500007181818071818180900144A16E0906853
:105A6000134CC0F383409168205C92680F4AC1F3E5
:105A7000815142430131B2FBF1F207E052684FF429
:105A80000041C2F34232013201FA02F21A60054AC1
:105A900008499268C2F30312895C1A68CA401A6006
:105AA00010BD00BF00380240480100200024F4006F
:105AB000CDA60008BDA6000800B5022393B093FA56
:105AC000A3F2B2FA82F242F02002C2F34212012A99
:105AD0001A46234B0CBF1B685B6B92FAA2F2B2FA18
