:020000040800F2
:10000000008000206D4B0008BD4B0008BD4B000870
:10001000BD4B0008BD4B0008BD4B000800000000B0
:10002000000000000000000000000000BD4B0008C0
:10003000BD4B000800000000BD4B0008BD4B000890
:10004000BD4B0008BD4B0008BD4B0008BD4B000870
:10005000BD4B0008BD4B0008BD4B0008BD4B000860
:10006000BD4B0008BD4B0008BD4B0008BD4B000850
:10007000BD4B0008BD4B0008BD4B0008BD4B000840
:10008000BD4B0008BD4B0008BD4B0008BD4B000830
:10009000BD4B0008BD4B0008BD4B0008BD4B000820
:1000A00000000000BD4B0008BD4B0008BD4B000820
:1000B000BD4B0008BD4B0008BD4B0008BD4B000800
:1000C000BD4B0008BD4B0008BD4B0008BD4B0008F0
:1000D000BD4B0008BD4B0008BD4B0008BD4B0008E0
:1000E000BD4B0008BD4B0008BD4B0008BD4B0008D0
:1000F000BD4B000800000000BD4B0008BD4B0008D0
:100100000000000000000000BD4B0008BD4B0008CF
:10011000BD4B0008BD4B0008BD4B000800000000AF
:10012000BD4B0008000000000000000000000000BF
:1001300000000000000000005FF808F110B5054C59
:10014000237833B9044B13B10448AFF30080012383
:10015000237010BDC0010020000000004C7A000890
:1001600008B5064B1BB106480649AFF300800648A8
:10017000036813B1054B03B1984708BD00000000A8
:100180004C7A0008C4010020BC01002000000000DF
:1001900010B50446002839D090F851300BB903F05F
:1001A000B9FD022384F8513023681A6822F0400216
:1001B0001A60A1686268236841EA0200E26810439D
:1001C0002269104362691043E2691043226A1043B6
:1001D000A26A1043A26902F4007140EA01021A60A7
:1001E000618B626A236801F004010A435A60236844
:1001F000E26A00201A612368DA6922F40062DA6197
:10020000012384F8520084F8513010BD012010BD44
:1002100002680E4B1A6082685A60C2689A6002696E
:10022000DA6042691A6100229A6190F9192001325C
:1002300001D1082205E090F9182001320CBF0422F8
:100240000C2202485A6100F0D2BD00BFE00100203C
:10025000F8B504460E4608463549154600F02EFE10
:1002600034490746284600F029FE0146384600F08A
:1002700007FE2060013004D12F483049502204F09D
:1002800057FE23682E4A934206D12E4B1A6A42F437
:1002900080421A620023636023682B4A934206D18E
:1002A000284B5A6A42F400325A6201236360236881
:1002B000264A934206D1234B5A6A42F480225A625C
:1002C0000223636030461A4900F0BCFD28461949F4
:1002D00000F0B8FD721C03D03046012100F0BEFED4
:1002E0006B1C03D02846012100F0B8FE4FF4E13327
:1002F000A3600023E3602361636126766576204670
:10030000FFF786FF2368114A93420FD1104B012259
:100310001A60104B04F11805206861681A4603C280
:100320000834AC421346F7D120681060F8BD00BF16
:10033000C47700087C7700082C6E0008466E000821
:1003400000380140003802400044004000480040AE
:10035000DC0100201C0200200368034A13601868B7
:10036000C0F34010704700BFE001002038B50568B9
:1003700004462046FFF7F0FF0028FAD06868C0B2B4
:1003800038BD00000368034A13601868C0F3C0104A
:10039000704700BFE001002070B5056804460E46B6
:1003A0002046FFF7EFFF0028FAD0F6B26E6070BD6E
:1003B000044B1B6823B904481A211B22FFF748BFCE
:1003C000704700BFDC0100201C020020022808B595
:1003D0004FF000030ADD084AC11E52F8210042F81E
:1003E000213028B103685B68984708BD184608BDEE
:1003F0004FF0FF3008BD00BF38020020022870B562
:100400000C4615460FDC0E4B1B680BB9FFF7D0FFEF
:100410006619B44205D00B4814F8011BFFF7BCFF66
:10042000F7E7284670BD084B033853F8200018B191
:1004300003681B68984770BD4FF0FF3070BD00BF68
:10044000DC0100201C02002038020020022810B528
:100450000C460ADC0B4B1B680BB9FFF7A9FF0A48D7
:10046000FFF784FF2070012010BD084B033853F8BC
:10047000200018B103689B68984710BD4FF0FF300B
:1004800010BD00BFDC0100201C020020380200204B
:10049000022808B508DD074B033853F8200028B1BF
:1004A0000368DB68984708BD012008BD4FF0FF30A6
:1004B00008BD00BF38020020022808B508DD074B40
:1004C000033853F8200028B103681B69984708BD1A
:1004D000002008BD4FF0FF3008BD00BF38020020EB
:1004E000022808B504D84FF400534B60002008BD23
:1004F00005F0D6FC092303604FF0FF3008BD08B5B6
:10050000012005F0D3FC704708B504F019FAFFF795
:10051000FAFFBDE8084002F09FBF0000074A1368D9
:100520001844EFF30881884205D3054B0C221A606A
:100530004FF0FF30704710601846704740010020B0
:100540000408002090F86D02704710B50368044657
:10055000D3F888309847236820465B6F984710BDD2
:1005600070B5054600242B68074E5B69315D28464F
:1005700098472B6826441B6D28467178B27803345F
:1005800098472D2CEFD170BDBD6E0008704790F8D4
:100590006D32022B0CBF80200020704770477047DF
:1005A00090F80C338B4218BF80F80C137047012071
:1005B000704713B502AB03F8012D0268946D1A461B
:1005C0000123A04702B010BD13B503680DF1070267
:1005D000DC6D0123A0479DF8070002B010BD38B5BF
:1005E00004680D461346A46D00212A46A04738BD75
:1005F00038B504680D461346E46D00212A46A0472D
:1006000038BD000010B5034B0446036002F0C8FB80
:10061000204610BDF86E000810B50446FFF7F2FF43
:10062000204604F0E9FC204610BD07B502460868E4
:1006300049686B4603C311F0010F4FEA610018BF10
:100640001158009B104418BFCB58984703B05DF871
:1006500004FB90F86C2208B58A4209D080F86C122D
:10066000036811B9D3F8883001E0D3F88C3098478B
:1006700008BD000038B590F90030044601330D463E
:1006800004D105480549352204F052FCE36862684C
:1006900005B912041A6038BDB06F0008C86F0008B1
:1006A00010B50446203450300121FFF7E3FF204607
:1006B0000821002200F086F92046044900F08CF958
:1006C000BDE81040024804F015B900BF40420F00D9
:1006D000CDCCCC3D2DE9F041064600F150050C464D
:1006E00028460021203690461F46FFF7C3FF44F0FE
:1006F0008001304600F078F90024E3B2BB4206D214
:1007000018F80410304600F06FF90134F5E7284678
:100710000121BDE8F041FFF7ADBF2DE9F0410646EC
:1007200000F150050C4628460021203690461F4611
:10073000FFF7A0FF04F07F01304600F055F90024D8
:10074000E3B2BB4207D23046002100F04DF908F871
:1007500004000134F4E728460121BDE8F041FFF729
:1007600089BF10B500F164042046012103F0A6FA08
:1007700020460021FFF77EFF012004F0C7F8204645
:10078000002103F09BFABDE81040062004F0BEB83B
:100790001FB5044602A880E80C008DE80C00034653
:1007A000E16203CB074B616301212063236404F101
:1007B000180000230A46A36204B0BDE8104000F010
:1007C00045BA00BF2B0600082DE9F047044600F1AA
:1007D000780A0D46504604F1D809022100F0CCFBFE
:1007E00004F59C784846022100F0C6FB04F5CC775E
:1007F0004046022100F0C0FB04F5FC763846022199
:1008000000F0BAFB3046022100F0B6FB95E80C0080
:1008100050462146FFF7BCFF05F108034846214634
:100820000CCBFFF7B5FF05F11003404621460CCB7A
:10083000FFF7AEFF05F11803384621460CCB2035F3
:10084000FFF7A6FF95E80C0030462146FFF7A0FF12
:10085000BDE8F08770B590B0149D132600950696FC
:10086000159D28260796092601950896169D10269F
:100870000996112602950A96179D26260B960A269A
:1008800003950C961525232604950D9614252D26E3
:100890000E960595044601F057FC1E4B04F55A765A
:1008A00023602A463046002105F05BFD30464FF0BC
:1008B000FF3104F55F7603F08BFA2A4630460021BB
:1008C00005F04FFD4FF0FF31304603F081FA20462E
:1008D000FFF747FF032384F86D32204601F0E0FC68
:1008E0002046FFF732FE2046002101F009F8D4F837
:1008F00078122046FFF768FF2046FFF731FE2046BA
:10090000002101F023F80123204684F8103310B0B1
:1009100070BD00BFF86E0008014B0360704700BF58
:100920004870000810B5034B0446036004F064FBF4
:10093000204610BD487000082DE9F7439946144B36
:10094000054645F8043B04468846174628460021DC
:10095000202205F006FD082363620E4B0026E362A9
:100960004FF0FF330093284641463A464B46A66275
:1009700004F056F92846616AA26A334604F0E0F9A9
:100980002846E16A04F000FA204603B0BDE8F0838F
:100990004870000840420F0070B5094D04462B68AE
:1009A00083420BD0061D3046616AA26A002304F020
:1009B000C7F93046E16A04F0E7F92C6070BD00BF6A
:1009C00038030020034B8262416200221A60FFF765
:1009D000E3BF00BF38030020024B0022C1621A604F
:1009E000FFF7DABF3803002038B504460D46FFF79D
:1009F000D3FF201D2946BDE8384004F04DBA000061
:100A000010B5054B0446036002F0BBFF204604F01E
:100A10005FFA204610BD00BF9875000810B5034B63
:100A200004460360FFF7ECFF204610BD607000082D
:100A300010B50446FFF7E4FF204604F0DDFA204637
:100A400010BD10B50446FFF7E9FF204604F0D4FAC4
:100A5000204610BD143003F067BF0000F8B5154BF9
:100A60004C2606FB00360F4634460025BD4220D0FA
:100A7000012303FA05F13268114217D0626B0E4868
:100A800003FA02F2D0F814C0E16912EA0C0F0DD09B
:100A90004261606850B109690A42084A03D113688B
:100AA0000221984702E01268194690470135043444
:100AB000DCE7F8BD3C0300200004014050050020A5
:100AC00000200121FFF7CABF01200146FFF7C6BF82
:100AD00002200121FFF7C2BF03200121FFF7BEBFA3
:100AE00004200121FFF7BABF05200146FFF7B6BF7A
:100AF00006200146FFF7B2BF2DE9F74F01924A1CCD
:100B000080460F4664D001F00F0909F1FF32C1F3AE
:100B100003100E2A09D8DFE802F00C1014181C1C70
:100B20001C1C1C202020202020002B4E00250624E9
:100B300016E02A4E0125072412E0294E022508243A
:100B40000EE0284E032509240AE0274E04250A2436
:100B500006E0264E0525172402E0254E062528240A
:100B6000009300F00DFA4FFA84FA834607213846C5
:100B700000F046FA3146504602F058FB012604F0D8
:100B80001F0006FA00F01B494FEA5A1241F82200F2
:100B90004C21C8F804504D431749184A51F8291000
:100BA00000208E4088F80C7088F80040C8F80800D3
:100BB0005459571934435451009B07EB81014B6042
:100BC000019A0F4BC1F81CB0C1F834901A6000E0D4
:100BD000084603B0BDE8F08FC10A0008C90A000842
:100BE000D10A0008D90A0008E10A0008E90A000849
:100BF000F10A000800E100E0707000083C030020EA
:100C00005005002070B5436805464C22007B5A43CE
:100C10000C4B00F00F0053F8203001269E400A498B
:100C200088588C1804EB830320EA060000248850BF
:100C30005C60DC615C6395F90C00214600F0E0F932
:100C4000AC6070BD707000083C030020A2B10129A7
:100C500005D18368023B012B08D981601EE002297F
:100C60001FD1836823F00203012B03D10323836088
:100C7000082117E0816007E0012907D18368023B62
:100C8000012B0DD80223836007210BE0022908D134
:100C9000836823F00203012B02D18360062101E067
:100CA00082600C2190F90C0000F0AAB92DE9F843FC
:100CB0000368C2681969044621F440510A431A6165
:100CC0000268A1680069D3680843616923F4164388
:100CD0000843E16923F00C0301430B43D36023680D
:100CE000A269596921F440710A435A61E369256890
:100CF000B3F5004F3C4B32D19D424FF0190615D150
:100D000003F0D4FD7043636864275B00B0FBF3F825
:100D100003F0CCFD70436368B8FBF7F85B004FEA63
:100D20000818B0FBF3F903F0C1FD14E003F0A6FDD1
:100D30007043636864275B00B0FBF3F803F09EFD2B
:100D400070436368B8FBF7F85B004FEA0818B0FB24
:100D5000F3F903F093FD636870435B0031E09D425B
:100D60004FF0190615D103F0A1FD704363686427A5
:100D70009B00B0FBF3F803F099FD70436368B8FB88
:100D8000F7F89B004FEA0818B0FBF3F903F08EFD6B
:100D900014E003F073FD7043636864279B00B0FBAD
:100DA000F3F803F06BFD70436368B8FBF7F89B0042
:100DB0004FEA0818B0FBF3F903F060FD7043636875
:100DC0009B00B0FBF3F6B6FBF7F607FB16994FEA6C
:100DD000091909F13209B9FBF7F707F00F0747EADC
:100DE0000807AF60BDE8F88300380140704710B5D0
:100DF000044628B390F839300BB9FFF7F7FF022308
:100E000084F8393023682046DA6822F40052DA6028
:100E1000FFF74CFF236800201A6922F490421A6100
:100E200023685A6922F02A025A612368DA6842F478
:100E30000052DA60012384F83A0084F8393010BD9A
:100E4000012010BD10B50446013001D110BD0C3198
:100E500091F900305A1C0BD0A342F8D12046896882
:100E600000F0CEF820460021BDE8104000F0F6B8B2
:100E70000248BDE8104000F015B900BFB07000088E
:100E8000884208B50AD0431C07D0013106D0044877
:100E900000F008F94FF0FF3008BD084608BD00BF5C
:100EA000C170000891F900305A1C05D0834201D16D
:100EB000486870470C31F5E718467047421C10B57A
:100EC000044607D0FFF7EEFF431C044602D1024858
:100ED00000F0E8F8204610BDD270000810B5044AB2
:100EE000044640F8182BFFF78DFE204610BD00BFCA
:100EF0000071000810B50446FFF7F0FF204604F02B
:100F00007BF8204610BD012902D0022902D070478B
:100F1000283000E0443003F007BD0000F8B5144B62
:100F2000054645F8043B04460E4604F118072846DA
:100F30000021142205F015FA10223846002105F090
:100F400010FA04F12800002103F0E5FC04F144004C
:100F5000002103F0E0FC3146064A23463846FFF7FD
:100F6000CBFD2846314602F033FF2046F8BD00BFD6
:100F700000710008070F0008043002F09BBE00005B
:100F800008B5072828D8DFE800F0040B1219272736
:100F90002720144B1448DA6942F00102DA6108BDD7
:100FA000104B1248DA6942F00202DA6108BD0D4BBB
:100FB0000F48DA6942F00402DA6108BD094B0D48B6
:100FC000DA6942F00802DA6108BD064B0A48DA69BC
:100FD00042F02002DA6108BD084800F063F8002002
:100FE00008BD00BF0038024000000240000402407B
:100FF00000080240000C0240001402400871000882
:1010000030B5431C87B005460C4604D11048114941
:10101000592203F08DFFC5F30310FFF7B1FF05F070
:101020000F05012303FA05F50B4B04F00F0253F8EB
:10103000223001A90293C4F302130393C4F3C3142F
:10104000032301950493059401F0ECFE07B030BD35
:10105000B56F0008297100089C710008431C70B529
:1010600004460D4604D10D480D497E2203F060FF71
:10107000C4F30310FFF784FF04F00F06730003228C
:101080009A40032D28BF002505FA03F3C16821EA21
:101090000202C260C2681343C36070BDB56F00082E
:1010A000297100080FB407B5054B04AA1B6852F854
:1010B000041BD868019205F0DFFB012004F0F6FE66
:1010C000AC0100207047000070B50446002800F015
:1010D0008A8090F8493033B9444B1A6A42F00102D1
:1010E0001A62FFF7EFFF424B022284F8492058684A
:1010F000616820F44030014359604FF4007393FA63
:10110000A3F3B3FA83F3656A92FAA2F2B2FA82F217
:10111000E16BDBB29940D2B205FA02F2E06866698F
:101120000643206A304340EA01031343626B102AEE
:1011300002D0A16B0A43134322681168490622D4E6
:10114000A169E0690B43A16826690843E16A012EA1
:1011500014BF00264FF48076012940EA06000DD125
:1011600065B94FF4604191FAA1F1B1FA81F1256BB3
:10117000C9B2013D8D4040F40060284355681D49C7
:1011800029400143516021681B4A886802401A4384
:101190008A602269012A22680ED1106B4FF0F8751F
:1011A00095FAA5F5B5FA85F5A16AEDB20139A94020
:1011B00020F0F870014302E0116B21F0F871116327
:1011C000226891680D4A0A409A4205D10020012305
:1011D000E06484F8493070BD042384F84930E36C3E
:1011E00043F00103E364012070BD00BF00380240FA
:1011F00000270140FF16FCFC89F1FFC0FEFF80BF05
:1012000070B504460D4601F0EBFE064623681A68E9
:10121000920710D4691CFAD03DB9032384F84930F1
:10122000002384F84830012070BD01F0D9FE801BF6
:10123000A842EBD9F1E7A26912B96FF012021A6065
:1012400094F84930042B0BD094F84930352B07D053
:1012500094F84930252B0CBF3523152384F84930E9
:10126000002070BD0368986D7047000070B590F85D
:101270004830012B00F08D80012380F848304A6807
:101280000368062A4FEA82050C680BD82A44053AFF
:101290001F25954094401E6C26EA050545EA040288
:1012A0001A6434E00C2A0BD82A44233A1F259540AF
:1012B0009440DE6B26EA050545EA0402DA6326E07F
:1012C000122A0BD82A44413A1F25954094409E6B20
:1012D00026EA050545EA04029A6318E0182A0BD8A5
:1012E0002A445F3A1F25954094405E6B26EA050527
:1012F00045EA04025A630AE02A447D3A1F259540D4
:1013000094401E6B26EA050545EA04021A630B6841
:10131000092B0DD803EB430307259D400268546950
:1013200024EA05058C6804FA03F32B43536122E099
:10133000132B0ED803EB43031E3B07259D40026889
:10134000146924EA05058C689C4045EA040313618E
:1013500011E01A2B0ED803EB43033C3B07259D40BD
:101360000268D46824EA05058C689C4045EA0403B9
:10137000D36000E000BF0B68103B012B04D8064B84
:101380005A6842F400025A60002380F84830184638
:1013900070BD022070BD00BF0027014070B503681A
:1013A00004461A68520601D5002070BD9A6842F0C2
:1013B00001029A6001F014FE064623681B6813F0D0
:1013C0004005F1D101F00CFE801B0228F5D9042361
:1013D00084F84930E36C84F8485043F00103E36437
:1013E000012070BD10B590F848300446012B21D083
:1013F000012380F84830FFF7D1FF012816D094F878
:1014000049306FF00202222B0CBF3223122384F8E2
:1014100049300023E36423681A6023689A6812F055
:10142000405F03D19A6842F080429A60002384F8BA
:10143000483010BD022010BD38B5104B1A681C464C
:10144000D26812F0020F01D001F0DAFD2368DA68E9
:10145000520711D56FF00402094D1A615C6A2B68BE
:10146000E31AB3F57A7F07D301F0B2FD034B04F51D
:101470007A721B682C609A6338BD00BF5805002043
:101480005405002038B51F4B1F4C5A6A002542F006
:1014900008025A629A6942F008029A619A6922F037
:1014A00008029A6103F04EFA184B204623604FF071
:1014B000FF33E360164B25611A68164BA560B2FB3B
:1014C000F3F3013B636002F0C5FA2E20124901F0EC
:1014D000ADFE124B4FF480425A602946204602F07E
:1014E000CFFA2046042102F0CBFA23680C495A6A4D
:1014F00028460A6002F57A729A63DA6842F00402BA
:10150000DA6038BD0038024058050020000C004069
:101510004801002040420F003914000800E100E0BB
:1015200054050020014B0360704700BFD8710008CC
:1015300090F86D02704780F86D12704790F81003B4
:10154000704700000000000038B50446C0F81413CE
:10155000084603F0BFFF0EA3D3E9002304F05AF9B5
:1015600004F0F0FA23680546C5F3074220461B6DD8
:101570000621984723682046C5F307221B6D0721E3
:101580009847236820461B6D0821EAB2984738BD6A
:101590000000000080844E402DE9F04F87B0029398
:1015A0009DF84830044603939DF858300191049308
:1015B0009DF86030164605930368109F5B69119D86
:1015C000BDF84C809DF850909DF854A09847236832
:1015D00009215B6D20469847236802465B6D4D21CB
:1015E00000922046984721688346D1F880302046F3
:1015F000D4F814139847009A02F07F021043C2B245
:1016000042F07002110622D5112ECBBF4BF007031A
:101610000BF0F8035FFA83FB43F0040B0BF00701B8
:10162000072922F00F0208D1042E03DD142EA8BFD3
:10163000142600E00526711F07E0012E03DD112EA0
:10164000A8BF112600E00226B11E0A430AE0731C5F
:1016500003DB0E2EA8BF0E2601E04FF0FF36721CF2
:1016600042F070022168D2B20B6D204609219847E2
:1016700022682046D2F850C04D215A46E047019BCF
:1016800013B1012B69D02EE1029B84F81863C4F8D2
:101690001C33059BC4F8285384F83133199B84F814
:1016A00030A3C4F834330298C4F82073A4F82C8310
:1016B00084F82E9303F00EFF8DA3D3E9002304F0EA
:1016C000A9F804F03FFA236886B2320A20461B6D5F
:1016D000042198472368F2B21B6D204605219847E4
:1016E000284603F0F7FE02460B4683A1D1E900012C
:1016F00004F090F804F026FA236885B22A0A2046FE
:101700001B6D0221984723682046EAB21B6D032116
:101710009847236820464FEA18221B6D25219847D9
:1017200023685FFA88F220461B6D262198472368BC
:1017300020461D6D30215B6D9847B9F1000F00F018
:101740006F0040EA0A1A0CBF802300234AEA030212
:1017500020463021D2B2A847C5E0092F84F848635B
:1017600000D9FEE7039B0C2D84F85533049BC4F885
:101770004C7384F85B339DF85C30C4F8505384F8A4
:101780005C33059BA4F8568384F85D33199B84F879
:10179000589384F85AA3C4F860331DD8052D08D98E
:1017A000082F02D10C2D1DD119E0072F06D10A2DCB
:1017B00007E0082F15D0072F13D00625062F02D1DA
:1017C000092D0CD80EE0052FFAD0042F01D1082DD9
:1017D000F7E7032F06D802E0082F7FD10C2501235D
:1017E00001E00625002384F85433049B93B1236859
:1017F00044211E6D20465B6D984760F07F024421B6
:101800002046D2B2B047236820461B6D242194F8AD
:101810005C23984723681D211E6D20465B6D984709
:10182000039B204649EA430949EA0712D2B21D2127
:10183000B04723681E211E6D20465B6D98474FEA16
:101840008A0A4AEA051A00F00B004AEA0002D2B2FC
:1018500020461E21B047236826211E6D20465B6D61
:10186000984794F8542320F0080040EAC202262149
:101870002046D2B2B047236820461B6D20214FEA94
:1018800018229847236820461B6D21215FFA88F2B1
:1018900098472368062D20461D6D4FF031015B6D82
:1018A0000DD1984700F0F8023121204642F00502A0
:1018B000A847236820461B6D37210C220CE098476F
:1018C00000F0F8023121204642F00302A8472368C5
:1018D00020461B6D37210A22984704E0072F3FF46A
:1018E0007DAF0C256AE707B0BDE8F08FAFF300804D
:1018F0000000000080844E400000000080847E4193
:1019000070B590F8743204468B420D461DD084F8B1
:1019100074120368D3F8843039B1002198472368E2
:10192000032DD3F89030204601D1012100E00021A1
:101930009847236801211E6D20465B6D984700F093
:10194000F802012120462A43B04770BD70B590F8D7
:10195000113304468B420D464AD084F811130368B4
:101960000129D3F894304FF0000117D0984723682D
:1019700001211D6D20465B6D9847012100F07F021B
:101980002046A847236820461B6D40210022984727
:10199000236820461B6D4121302228E098472368A8
:1019A00029461E6D20465B6D984760F07F022946F0
:1019B0002046D2B2B047236800221B6D204630215A
:1019C0009847236831211D6D20465B6D9847312172
:1019D00000F07F022046A847236820461B6D402167
:1019E00000229847236820461B6D4121002298471A
:1019F00070BD704710B5034B0446036003F0FCFA5A
:101A0000204610BDD871000810B5044600F51F70BF
:101A100001F0B7FF04F52B7001F0B3FF23682046F7
:101A2000D3F894300021984710BD10B5044600F556
:101A30001F7001F0A6FF04F52B7001F0A2FF2368D0
:101A40002046D3F894300121984710BD70B590F826
:101A500010330446022B02D0052B3BD070BD90F80A
:101A6000115315B1012D2BD070BDB0F842338BB995
:101A7000B0F8443373B990F82E2303682AB95B6E2B
:101A800000F242310122984704E05B6D3221984711
:101A9000A4F84203B4F84253B4F8443394F846230C
:101AA000ED1A95422068D4F8701206DD456E19448F
:101AB0002046A84794F8462320E0466E204622E0C0
:101AC00000F52B7001F05DFF236984F810530BB310
:101AD000984770BD90F81133E3B9B0F84253B0F8AD
:101AE000443390F84723ED1A95420668D0F87012F7
:101AF00008DD356E1944A84794F84723B4F84433F9
:101B0000134405E0366E1944EAB2B047B4F84233E4
:101B1000A4F8443370BD000038B590F81023044693
:101B2000022A02D0052A41D038BD90F8113313B1F2
:101B3000012B34D038BDB0F83853012D4CD100F50D
:101B4000377001F01EFF236884F839535B6D112153
:101B50002046984740104042236884F83A035B6D62
:101B60001B2120469847236805465B6D1C212046B3
:101B7000984740EA052003F0BDFC19A3D3E90023F0
:101B800003F01EFD03F0B6FF2368C4F83C035B6D51
:101B900020460C219847400984F8400338BD90F84E
:101BA0005B33CBB1036812211B6D0AE090F811334F
:101BB000012B11D190F85B3373B1036812211B6DB7
:101BC00002229847A5693DB1236820465B6D1C2120
:101BD000984700F03F00A84738BD00BFAFF3008032
:101BE0000000000080844E402DE9F0410568044665
:101BF00098466B6917460E46984725682046AB699C
:101C00003946984722682046D2F8943005219847F3
:101C1000012002F07BFE22683146D36C20469847B3
:101C200022680546936B204698474545CCBF002067
:101C30000120BDE8F08170B5036804465B690121AD
:101C40009847236820461B6D1121FF22984723687F
:101C50002046D3F894300521984700252E460120D0
:101C600002F054FE236820465B6D2C21984700F05B
:101C70000100A8400135202D46EA0006EFD1236877
:101C800020469B6B9847304670BDF7B590F81153CE
:101C9000012704460E468DF8072080F8107303686C
:101CA00015B1BD422BD06CE09DF8072090F82E13A3
:101CB000A0F84453A0F8422329B91B6E0DF1070187
:101CC0003A46984702E01B6D322198479DF807304D
:101CD00031465A1E3F2A88BF202384F847332368A1
:101CE00094F847231B6E20469847B4F8443394F881
:101CF0004723D4F834131344A4F8443342E090F853
:101D00005D231D6D33215B6D2AB19847332100F0AF
:101D1000BE02204606E0984700F0BE02332120466E
:101D200042F00102A8479DF80720236884F8662343
:101D30001B6D204622219847236820461B6D0E21EB
:101D400000229847236820461B6D0D2100229847EA
:101D5000236820465B6D0121984730F0F80306D1D7
:101D600023682046DB6B9847012002F0CFFD2368F3
:101D700031461B6E20469DF807209847D4F8601323
:101D800000E00021236820469B6C984703B0F0BD1B
:101D90002DE9F84F8046164611B1012955D0DEE0F5
:101DA000036827215B6DB0F82C43984720F0F800BA
:101DB0000130204403F09EFB98F82E3300220BB133
:101DC000002300E06C4B03F049FAD8F800300446D9
:101DD0005B6D0D4640463021984730F0F90314BF43
:101DE000654B002300222046294603F037FA0446BB
:101DF00030460D4603F07EFB02460B462046294640
:101E000003F02CFA98F83033002213B14FF08043DE
:101E100000E0002303F022FA0022584B03F0D0FB2D
:101E20000446D8F828030D4603F054FB02460B463F
:101E30002046294603F0EEFC4BA3D3E9002303F030
:101E4000BFFBBDE8F84F03F0E3B8D0F84C33092BE3
:101E500005D84B4A02EBC303D3E9004501E0002457
:101E60000025D8F850730120B84003F043FB024628
:101E70000B462046294603F0CDFC02460B460020C7
:101E80003D4903F0C7FC0446B8F856030D4603F07D
:101E900031FB00223B4B03F0E1F922462B4603F0D5
:101EA0008FFB4FEA870998F858338B4698F85A13F6
:101EB000C9F11C02002B02EB011202EBC60682469E
:101EC0000CBF00201420301A03F004FB98F85433A0
:101ED0000646002B0CBF00200820C0EB09000F466F
:101EE00003F0F8FA02460B463046394603F092FCFE
:101EF00003F08EF8064698F855030F46043003F0B9
:101F0000F9FA02460B463046394603F059FB0022E7
:101F1000002306460F4603F0E3FD30B13046394654
:101F20000022164B03F09AF901E0144900202246E2
:101F30002B4603F045FB02460B465046594603F03C
:101F40008DF909A3D3E9002303F03AFB08A3D3E9F1
:101F5000002303F083F9BDE8F84F03F0E9B800204F
:101F60000021BDE8F88F00BF0000000080842E41F2
:101F70002B8716D9CEF7EF3F0000F03F000020403E
:101F8000487200080000114007B502460868496819
:101F90006B4603C311F0010F4FEA610018BF1158DF
:101FA000009B104418BFCB58984703B05DF804FB62
:101FB00038B590F811330446012B17D10368FA2283
:101FC0001B6D11219847236840211D6D20465B6DD4
:101FD0009847402100F03F022046A8470721236888
:101FE00084F81013D3F894302046984738BD000089
:101FF00008B511B1012907D021E0036811215B6DFB
:1020000098474010404218E01149D0F81423036863
:102010008A425B6D4FF01B0106D9984703F06AFABC
:1020200009A3D3E9002304E0984703F063FA094BBE
:10203000002203F011F903F05DFD80B201E04FF6DC
:10204000FF7000B208BD00BF0000000000A06340A8
:1020500040DD4A1F0080644070B590F8115304467B
:10206000012D17D1036812215B6D9847236810F08A
:1020700001061B6D20464FF0120105D0052298473E
:10208000E3693BB1284604E004229847E3690BB1B9
:102090003046984770BD90F811332BB990F838331B
:1020A00013B9012380F83833704738B590F81033EE
:1020B0000446022B02D0052B2FD038BD90F81133E7
:1020C0004BBB80F8383380F83933A0F84433A0F89C
:1020D000423303683E211B6D0B229847236820463C
:1020E0001B6D3F211022984794F8323363B1236867
:1020F00020461D6D0D215B6D984740F040020D217B
:102100002046D2B2A84706E0012384F8103304F534
:10211000377001F036FC236903E0012380F81033A7
:10212000836803B1984738BD10B5044602F0E6FE57
:10213000044A204640F8142B002102F0ECFB204614
:1021400010BD00BF987500087FB5089D0446009536
:10215000099D04F1500601950A9D02950B9D03957A
:1021600000F00CFF4C4B204640F8203B4FF0FF3373
:10217000142500939DF930109DF938309DF93420D5
:10218000FEF7DAFB2A463046002104F0EAF8304632
:102190009DF93C1004F1640601F036FE2A463046F3
:1021A000002104F0DEF830469DF9401001F010FEE9
:1021B0009DF9441004F17800FEF7B0FE9DF9481037
:1021C00004F1D800FEF7AAFE9DF94C1004F59C70AE
:1021D000FEF7A4FE9DF9501004F5CC70FEF79EFEAC
:1021E00004F516769DF9541004F5FC70FEF796FE82
:1021F0002A463046002104F0B4F8284D9DF95810C5
:102200003046002601F0E4FD84F86C6204F51F708E
:10221000FFF78AFFC4F87C5204F52B70FFF784FFA8
:10222000C4F8AC5204F53770FFF77EFFC4F8DC52F7
:102230000A2002F06BFB84F80C634FF4807002F00C
:10224000E4FE0125C4F8700284F87452302002F0D4
:10225000DCFE9823C4F8780280E82800D4F87832AD
:102260009C229A60DD60D4F87832A0221A615D6108
:10227000D4F87832A4229A61DD61D4F87832A822A9
:102280001A625D62D4F8783220469E62DE6284F87B
:10229000105304B070BD00BF507300086070000898
:1022A000F8B5036809215B6D044698472368062149
:1022B0005B6D064620469847236805465B6D0721FF
:1022C000204698472368000240EA05455B6D0821D7
:1022D00020469847284303F0FDF821A3D3E90023C3
:1022E00003F06EF903F02EFC236800221B6D092118
:1022F00005462046984723683B211F6D20465B6DAD
:10230000984740F040023B212046D2B2B8472368AC
:1023100020465B6D3B2198478206F8D4124B3B2147
:10232000C4F81433236820461F6D5B6D984740F056
:1023300040023B212046D2B2B847236820465B6D5D
:102340003B2198478306F8D4236820461B6D09215A
:1023500032469847236820469B6929469847F8BD2E
:102360000000000080844E4000A1BC33AFF3008029
:1023700010B50023074ADC0052F83310884205D319
:1023800022449168884201D2107910BD0133152B87
:10239000F0D1FEE7987200082DE9F04F85B01D4698
:1023A0009DF838309DF860C00393164603689DF889
:1023B0005C205B6902910192CDF800C00446BDF833
:1023C0004080BDF844B09DF848709DF84C909DF851
:1023D00050A098470299019ADDF800C011B1012977
:1023E00069D03FE10F9B84F832C3C4F82853C4F886
:1023F000243384F830A384F831232846C4F82063BA
:1024000084F82E7384F82F93A4F82C8303F062F8D9
:1024100002460B4696A1D1E9000103F0FBF903F057
:1024200091FB236885B22A0A1B6D2046022198473A
:102430002368EAB21B6D0321204698473046FFF718
:1024400097FF236802461B6D1221204698470F987C
:10245000FFF78EFF236802461B6D20461321984725
:10246000236820461B6D25214FEA182298472368D0
:102470005FFA88F21B6D2046262198472368302199
:102480001D6D20465B6D9847002F00F06F000CBF5C
:102490008023002340EA0A1A4AEA03022046302138
:1024A000D2B2A847002F00F0DD80236820461B6DC4
:1024B00032214A46CFE0092E00D9FEE7039B0C2DBE
:1024C00084F855339DF85430C4F84C6384F85B337A
:1024D0009DF85830C4F8505384F8587384F85993D1
:1024E00084F85AA384F85C3384F85D2384F85EC3CF
:1024F0001ED8052D08D9082E02D10C2D1ED11BE0A7
:10250000072E07D10A2D08E0082E4FF0060515D03A
:10251000072E13D0062E02D1092D0DD80EE0052E60
:10252000FAD0042E01D1082DF7E7032E06D803E0D8
:10253000082E40F092800C25012300E00023226841
:1025400084F85433136D1D21526D2046019390473A
:102550000399204647EA410242EA0612D2B21D21FF
:10256000019B984723681E211E6D20465B6D98478E
:10257000CBF3012242EA8A0A00F008004AEA000A84
:102580004AEA0512D2B220461E21B047236826210E
:102590001E6D20465B6D984794F8542320F0080088
:1025A00040EAC20226212046D2B2B0472368204624
:1025B0001B6D1F215FFA8BF29847236820461B6D25
:1025C00020214FEA18229847236820461B6D2121BD
:1025D0005FFA88F298472FB1236820461B6D2221AD
:1025E0004A46984794F85B3393B1236844211E6DA3
:1025F00020465B6D984760F07F0244212046D2B2AE
:10260000B047236820461B6D242194F85C2398472B
:102610002368062D20461D6D4FF031015B6D0DD1F5
:10262000984700F0F8023121204642F00502A84701
:10263000236820461B6D37210C220CE0984700F0E0
:10264000F8023121204642F00302A84723682046C1
:102650001B6D37210A22984704E0072E3FF46BAF29
:102660000C2557E705B0BDE8F08F00BFAFF3008041
:102670000000000080847E411FB5044602A880E867
:102680000C008DE80C000346A16103CB064B2162D0
:102690000699E061E36220460023636104B0BDE86F
:1026A000104001F079B900BF891F00080000000048
:1026B0002DE9F04190F8114386B006460F4614B15B
:1026C000012C2ED071E003684021D3F850805B6D5F
:1026D00090F83253984700F0030242F00C02304663
:1026E0004021C04733684121D3F8508030465B6DAC
:1026F000984760F03E0241213046D2B2C04733686D
:1027000030465B6D3521984700F03F0086F8460360
:1027100086F8384386F83943A6F84443A6F842437E
:1027200044E0036890F85D231C6D33215B6D32B18A
:10273000984740F0410233213046D2B206E0984734
:1027400000F0BE023321304642F00102A047336858
:1027500096F85B2396F85E531B6D3046112152B1FB
:102760001D229847336830461C6D40215B6D9847A9
:1027700000F0330209E01F229847336830461C6D91
:1027800040215B6D984700F03F0230464021A04752
:10279000336830461B6D0F2100229847336830465E
:1027A0001B6D0D210022984700E00025D6F870022D
:1027B00000214FF4807203F0D4FD022386F8103319
:1027C00067B1354A02AB92E8030083E80300009743
:1027D00006F52B7031460CCBFFF74EFF336896F8A9
:1027E0001123D3F894303046002A47D10521984769
:1027F000002D48D1284B04AF93E8030087E803007D
:10280000B6F82C0302F076FE336804460D465B6D85
:1028100030462721984720F0F80002F06BFE002296
:102820001E4B02F01BFD02460B462046294602F0D5
:1028300015FD0022194B02F011FD0022184B02F089
:10284000BFFE0446D6F828030D4602F043FE0246BA
:102850000B462046294602F0DDFF0DA3D3E90023F5
:1028600002F0AEFE03F06EF906F5377800903146BF
:10287000404697E80C00FFF7FFFE04E00DB105218C
:1028800000E00621984706B0BDE8F081AFF3008074
:102890000000000080842E41407200080000F03FDC
:1028A00000002040AFF300807FB590F8113304465C
:1028B0000D4613B1012B1FD04BE0036840211E6D64
:1028C0005B6D9847402100F003022046B047236823
:1028D00041211E6D20465B6D9847412100F03E026C
:1028E0002046B047236820465B6D3521984700F0AD
:1028F0003F0084F846032CE0036890F85B231B6DCF
:102900001121C2B1F5229847236840211E6D20464F
:102910005B6D9847402100F03F020A432046B047D4
:10292000236840211E6D20465B6D9847402100F0D2
:10293000F30220460CE0F7229847236840211E6DE1
:1029400020465B6D9847402100F03F020A43204635
:10295000B04705230B4A84F8103302AB92E803001A
:1029600083E8030000950CCB04F51F702146FFF7A8
:1029700083FE23682046D3F894300321984704B09F
:1029800070BD00BF407200082DE9F043002389B0FC
:102990008DF80F3090F810330646022B03D0052B2C
:1029A00000F0DF81F1E190F811431CB1012C00F03F
:1029B0002081EAE103683F215B6D98478DF80F00A5
:1029C0009DF80F3006F52B7713F0020F33686ED1A8
:1029D0001B6D30463E210B229847336830461B6DF5
:1029E0003F211022984796F83233D6F80090002BFA
:1029F00047D1012386F81033AB4B0DF1100893E853
:102A0000030088E80300B6F82C0302F073FDD9F840
:102A1000543004460D4630462721984720F0F800F0
:102A200002F068FD0022A14B02F018FC02460B46A2
:102A30002046294602F012FC00229C4B02F00EFCBC
:102A400000229B4B02F0BCFD0446D6F828030D463D
:102A500002F040FD02460B462046294602F0DAFE0F
:102A60008DA3D3E9002302F0ABFD03F06BF806F56C
:102A7000377900903146484698E80C00FFF7FCFD96
:102A80000CE00D21D9F854303046D9F85040984721
:102A900040F040020D213046D2B2A047384600F047
:102AA00070FF7369002B00F09A80984797E0B6F8A2
:102AB0004223B6F84413F2B9E9B996F82E2332B995
:102AC0005B6E304606F242310122984705E05B6DAD
:102AD000304632219847A6F84203B6F8443396F8B8
:102AE00042233068D6F87012D21A446E1944304628
:102AF000D2B2A04707E0D6F87042521A5B6E304659
:102B00002144D2B29847B6F84233D6F80090A6F8DE
:102B1000443396F83233002B47D1012386F8103323
:102B2000614B0DF1180893E8030088E80300B6F83C
:102B30002C0302F0DFFCD9F8543004460D46304631
:102B40002721984720F0F80002F0D4FC0022574BD0
:102B500002F084FB02460B462046294602F07EFB2B
:102B60000022524B02F07AFB0022514B02F028FD6A
:102B70000446D6F828030D4602F0ACFC02460B468C
:102B80002046294602F046FE43A3D3E9002302F083
:102B900017FD02F0D7FF06F5377900903146484619
:102BA00098E80C00FFF768FD0CE00D21D9F85430CF
:102BB0003046D9F85040984740F040020D21304649
:102BC000D2B2A047384600F0DCFEF4683CB1D6F83B
:102BD0007002B6F8421396F93A230023A047002367
:102BE00086F8383386F83933A6F84433A6F84233EA
:102BF000CBE0036812211B6D4022984733683046B2
:102C00005B6D122198478DF80F009DF80F3006F587
:102C10002B7813F0200F33680ED01B6D3046122135
:102C20002022984796F85E330BB986F81043404649
:102C300000F0A7FE7369A6E05B6D30461921984746
:102C4000C0B24FFA80F9B9F1000F86F8640308DAD0
:102C5000C9F10009C9F38709C9F100095FFA89F9C7
:102C600001E0C9F38709336830465B6D1A21984744
:102C700096F964330746002BD6F814230D4B00B2A7
:102C80004FEA27172DDA9A4216D902F033FC04A333
:102C9000D3E9002314E000BF0000000080842E412F
:102CA0000000000000A06340407200080000F03FF8
:102CB0000000204040DD4A1F02F01CFC364B002281
:102CC00002F0CAFA044638460D4602F013FC0246EA
:102CD0000B462046294602F0C1FA04460D464846F6
:102CE00010E09A4205D902F005FC29A3D3E900239C
:102CF00003E002F0FFFB284B002202F0ADFA04468D
:102D00000D46384602F0F6FB02460B4620462946A1
:102D100002F0A4FA02F0EEFE336886F865035B6DFC
:102D2000132130469847336886F8660302465B6E87
:102D30003046D6F87012984796F85E3313B90123DF
:102D400086F81033404600F01CFEF468ECB1D6F86B
:102D5000700296F8661396F9652396F96433A047D6
:102D600013E000F51F7000F00CFE96F81133012BF4
:102D700005D1336830461B6D122108229847012384
:102D800086F81033736803B1984709B0BDE8F08343
:102D90000000000000A0634000806440AFF30080AA
:102DA00010B5184B04460360D0F8700202F024F905
:102DB000D4F8780202F020F904F53770FDF72EFE02
:102DC00004F52B70FDF72AFE04F51F70FDF726FEB3
:102DD00004F5FC70FEF782F804F5CC70FEF77EF87F
:102DE00004F59C70FEF77AF804F1D800FEF776F847
:102DF00004F17800FEF772F8034B20462362034B80
:102E0000236010BD5073000848700008D871000896
:102E100010B50446FFF7C4FF204602F0EDF8204647
:102E200010BD0000F0B5002301229A400C68144048
:102E3000944240F098804A6822F01002022A0FD192
:102E400003F00705AD000F27AF40DA0800EB820260
:102E5000166A26EA07070E69AE4047EA06051562BC
:102E60005A004E680325954006F003069640076811
:102E7000ED432F403E4306604E6826F01006013EAB
:102E8000012E0ED8CE68876896402F403E4386605C
:102E90004E684768C6F300169E4027EA04073E4383
:102EA0004660C66835408E68964045EA0602C260B4
:102EB0004A68D20057D503F00306B6000F27B74083
:102EC0002B4A156A45F00105156223F0030505F14B
:102ED000804505F58035AA6822EA0707254A904211
:102EE00016D002F58062904214D002F580629042C2
:102EF00012D002F58062904210D002F580629042BA
:102F00000ED002F58062904214BF0822072208E02A
:102F1000002206E0012204E0022202E0032200E097
:102F20000422B2403A43AA60134A4F681668E54348
:102F3000FF034CBF26432E4016604F685668BF0300
:102F40004CBF26432E4056604F689668FF024CBF28
:102F500026432E4096604F68D668BF0254BF05EAEC
:102F600006043443D4600133102B7FF45DAFF0BD11
:102F700000380240000002400004014030B5C36048
:102F8000039B064D0361049B05604361059B416003
:102F90008361069B8260C36130BD00BFD8710008A9
:102FA0007047000008B5094B03201A6842F004027C
:102FB0001A601A6842F002021A6000F099FE0F20AF
:102FC000FEF760FAFFF7ECFF002008BD003C02406E
:102FD000024B1A6801321A60704700BF900500204A
:102FE000014B1868704700BF9005002010B50446DB
:102FF00001F0B2FF014B1C6010BD00BF980500201E
:1030000038B501F0DDFF0E4C23681BB9BDE8384030
:1030100001F0CCBF1D6801F0B1FF281A002809DCBF
:10302000226893682360074B1B68002BEBD0506825
:103030009847E8E723681868BDE8384001F0ACBF5E
:10304000940500209805002038B5054672B680E842
:1030500006000A4A0023146834B12068081A0028C0
:1030600002DB2346A468F7E723B90846156001F0A0
:1030700093FF00E09D60AC6062B638BD940500200F
:1030800008B572B60C4A136883420DD19B68136071
:1030900013B901F08BFF0CE0186801F07DFF08E028
:1030A0009A68824203D01346002BF9D101E082686E
:1030B0009A6062B608BD00BF940500201FB52E4A75
:1030C0000368136090F90430252B51D8DFE803F032
:1030D000131517191B1D1F215050505050505050A0
:1030E00023255050505050505050505033353739A0
:1030F00027292B2D2F31002324E0012322E0022356
:1031000020E003231EE004231CE005231AE006232D
:1031100018E0072316E0082314E0092312E00A232D
:1031200010E00B230EE00C230CE00D230AE00E232D
:1031300008E00F2306E0122304E0132302E0142327
:1031400000E015230193012301A902930A480223F9
:103150000393FEF78BF80848FEF744F906480A2166
:10316000FEF74EF820B90448FEF77CF880B200E084
:10317000002005B05DF804FB9C05002070B50646F4
:103180008EB008460C461E49FDF798FE30600130AF
:1031900004D11C481C49312201F0CAFE20461849BE
:1031A000FDF750FE194B34711C68002C26D1012507
:1031B0001D6001A80223019304950A9400F028FEE3
:1031C000326813480260134A116A41F400711162B7
:1031D0004FF480614FF400324161102142608460FD
:1031E000C46004618161C261046244628562C46238
:1031F000056344638463C463FDF766FF0EB070BD6E
:10320000547800080874000820740008EC050020B9
:103210009C0500200038024008B5FFF74FFFC0F3BF
:10322000032343EA001080B208BD000010B50C4A29
:10323000946892682346B2F1006F0DD1094B04F1F6
:1032400060420432D25843F8042F074A9342F6D121
:10325000034A4FF000539360103043F8201010BD24
:1032600000ED00E0FCFFFF1F2001002008B5044B2B
:10327000186803689B6B9847024B05221A7008BDBB
:10328000180600201C06002008B5044B18680368C7
:103290009B6B9847024B06221A7008BD1806002047
:1032A0001C06002008B5074B186803689B6B9847FD
:1032B000054B064A1B880021D154054B03221A7086
:1032C00008BD00BF18060020440100201D06002094
:1032D0001C06002008B5044B186803689B6B9847D0
:1032E000024B04221A7008BD180600201C0600209C
:1032F00010B50446FDF784FB204610BD0EB403B59F
:1033000038B1064B04AA1B680399D868019203F0F0
:10331000B3FA02B05DF804EB03B07047AC010020D3
:103320002DE9F04198460C4B074618680C46056895
:103330001646AB6B9847094B3946224608481C8015
:1033400003F006F80749084B02224E8181F80E80EF
:103350001A70BDE8F08100BF18060020440100206B
:103360001D060020400600201C06002038B590F9FC
:103370000030044601330D4604D105480549352285
:1033800001F0D6FDE368626805B912041A6038BD21
:10339000B06F0008C86F000810B5094C94F90030F0
:1033A000013304D107480849432201F0C1FDA36855
:1033B0001A6863681A420CBF0020012010BD00BFCC
:1033C0003C070020B06F0008C86F0008064A138849
:1033D000C3F30B0131B9190404D46FEA43436FEA14
:1033E00053431380704700BFF205002010B5154805
:1033F0000021FFF7BBFF0121124800F05FFC96207F
:1034000001F084FA104B11481C78621C1A70FFF707
:1034100003FF0F4B0F4A197804F01F0422F8140021
:1034200029B108480021BDE8104000F047BC012147
:103430001970134602F13E01108823F8020F8B42E7
:10344000FAD1EEE7500700205006002010060020B9
:10345000F0050020680600202DE9F04FA948AA4C8D
:103460008DB00021FFF782FF00211022A74802F053
:1034700078FF20460021102202F073FFA44BA54FD5
:1034800023600923A3720C23E3720E232373082302
:1034900063730523E3730423A3733B780120207136
:1034A0000BB19D4900E09D49FFF728FF00219C4892
:1034B000FFF75CFF9B4800F04FFC9A4800F02BFCA4
:1034C0004FF4FA7001F022FA0025A9462E460A2090
:1034D00001F01CFA934800F037FC484503DD09F57C
:1034E0007A79FFF783FF904CFFF770FFD4F80080E4
:1034F000A246B8F1000F1CD14FF4647001F068FDD2
:103500008A4B054600938A4B8A4901938A4A8B4B22
:10351000CDF80880CDF80C80FDF79CF925602B686C
:103520007A4A2846DB68D17B98470A2001F0EEF9F9
:1035300045462068422103685B6D98470246002893
:1035400064D101207E49FFF7D9FEDAF8000042215C
:1035500003685B6D984718B9C82001F0D7F9F4E704
:10356000002D46D120686A4903684FF00C0B9B6917
:10357000984700207349FFF7C1FE01207249FFF709
:10358000BDFE2068092203688DE804080422079222
:103590006E4A00254FF001084FF0080ACDF80CA044
:1035A00004950595069508950992CDF80880D3F8FD
:1035B00028C041462B460E22E047206804220368BB
:1035C000CDF808A04FF0050A0892CDF800800195CB
:1035D000CDF80CA004950595069507950995CDF8AD
:1035E00028805D6A41465B460922A8473B787BB943
:1035F0001EE04D4B186810B103685B6898470023C4
:103600006420236001F082F9012560E7B5B9A9E7DC
:103610004F49504802F0DDFF3C4B1B78D9070DD5D0
:10362000414B4C491868524603685B6B984705E06C
:103630003D4A4949106803685B6C98470EB90026FB
:1036400010E0013EB6B26EB94248414902F0C1FFF6
:103650002E4B1B78DA07F2D520683E490368052215
:103660005B6B98473D4D2B78062B00F2048101A23D
:1036700052F823F009360008773800089136000820
:10368000D937000827380008CD370008653800080A
:10369000DFF878803A78B8F808300133A8F80830B5
:1036A00098F8003043F0020388F800302C4B1B8858
:1036B000002A5BD0002B00F0DE80DFF898A02949BB
:1036C0005046042202F095FF002840F0CF80FFF71B
:1036D00063FED0F1010138BF00210A48FFF746FE22
:1036E0009AF806209AF80530012003EB02239BB2DA
:1036F000A8F80C301C49B8F90A201BB2FFF7FEFDF0
:103700006426B8E03C0700200006002040060020A8
:10371000A0BCD919640700209E740008C174000879
:1037200054060020F405002018060020A5320008E9
:10373000D53200086D3200088932000821330008B4
:10374000E3740008027500081775000880841E00E5
:10375000997400081D06002040420F001C0600203E
:10376000440100208875000827750008002B00F030
:103770008280DFF820A141495046042202F039FF3F
:10378000002873D1FFF708FED0F1010138BF0021F6
:103790003B48FFF7EBFDB8F90A2001203949FFF754
:1037A000ADFD3949504602F014FFB8F80A300A203E
:1037B0008AF8053043F307238AF8063001F0A6F8AB
:1037C00020685146036807225B6B49E03B78002B79
:1037D0004CD101202D4947E001202D49FFF78EFDF6
:1037E00097F80080B8F1000F15D0FFF7D5FDD0F1A4
:1037F000010138BF00212248DFF8A480FFF7B6FDA1
:1038000040F6FF7323481D49A8F80A3002F0E1FE94
:1038100098F8003016E020681F4903685B6C9847F1
:1038200085F80080F0E601201C49FFF767FD3B7832
:10383000184853B1114902F0CCFE0A2001F066F895
:10384000174B1B78DB0716D505E00F4902F0C1FEC8
:103850000A2001F05BF820680E49036805225B6BC3
:10386000984708E00F490120FFF748FD20680A4902
:1038700003685B6C984700232B70C5E699740008B9
:103880003C0700203F750008887500085375000844
:103890005D7500081D06002040420F006C75000891
:1038A000400600207975000837B51D4D14242246C6
:1038B0002846002102F055FD28461A4D122100F03D
:1038C000A3FA22462846002102F04BFD28460E218D
:1038D000154D00F099FA2A2300932846222321212E
:1038E0002C2200F065F9114A2846114901F088FBA5
:1038F000104D11481C21FFF741FC10482521FFF70E
:103900003DFC22462846002102F02BFD28460D21D1
:1039100000F05EFA0A4803B0BDE8304000F024BA77
:103920003C07002054060020B00600203C01002087
:10393000F132000850070020A806002010060020E1
:10394000F405002008B5074C05462368986802F086
:103950006FFB2368D86802F06BFB05B9FEE701F046
:103960002FF9FBE7AC01002010B50169436804465C
:10397000194401F0D5FA04F11400BDE8104000F03C
:10398000D3BF10B5044601F0CFFA04F114000021B2
:10399000BDE8104000F0C4BF38B504460D4601F044
:1039A000C3FA256101F0EAFA41192046BDE8384022
:1039B00001F0B6BAB0F1804F03680ED01C4A9042B5
:1039C0000BD002F58062904207D002F580629042EF
:1039D00003D002F57C42904216D14A6823F070036E
:1039E000B0F1804F43EA020315D0114A904212D041
:1039F00002F5806290420ED002F5806290420AD0B9
:103A000002F57C42904206D00A4A904203D002F569
:103A10008062904203D1CA6823F440731343036069
:103A20008B68C3620B68836201234361704700BFE8
:103A300000040040000C014001238B408A4010B577
:103A4000046A9BB224EA03030362036A134303621A
:103A500010BD704710B5044680B190F835300BB9F1
:103A6000FFF7F7FF022384F835302068211DFFF7A8
:103A7000A1FF012384F83530002010BD012010BDC6
:103A800010B5012204460068FFF7D6FF2368002026
:103A90001A6842F001021A6010BD07B502460868B4
:103AA00049686B4603C311F0010F4FEA610018BF6C
:103AB0001158009B104418BFCB58984703B05DF8CD
:103AC00004FB000010B590F900300446013304D126
:103AD00006480749432201F02BFAA3681A68636875
:103AE0001A420CBF0020012010BD00BFB06F0008BB
:103AF000C86F000837B504463030FFF7E3FF8DF894
:103B0000040004F14400FFF7DDFF8DF8050004F127
:103B10005800FFF7D7FF8DF8060004F16C00FFF79F
:103B2000D1FF23468DF80700002201A9515CC9B9D5
:103B300093F8801003299CBF013183F8801093F81B
:103B4000801004291ED1A11891F88800C50719D446
:103B500040F0010081F8880093F88410013183F867
:103B600084100FE093F8801011B1013983F88010B0
:103B700093F8805035B9A11891F8880065F30000DA
:103B800081F888000132042A03F10103CDD103B08A
:103B900030BD70B504460E4615460021142202F0D1
:103BA000E0FB204631462A4600F015F9204670BD5C
:103BB000F7B5044615460E461F4601F09FF9234B04
:103BC000204640F8143B002100F0A5FE314604F1E8
:103BD00030000122FFF7DDFF294604F144000122F5
:103BE000FFF7D7FF394604F158000122FFF7D1FF54
:103BF00004259DF9201004F16C000122FFF7C9FF94
:103C00002A4604F18000002102F0ABFB2A4604F1B1
:103C10008400002102F0A5FB2A4604F1880000215F
:103C200002F09FFB0A4B0022009301926B4603CBEC
:103C3000084BE06121622046A461E362626142F2C6
:103C40001071FFF7A9FE204603B0F0BD987500087B
:103C5000F53A00089B3A0008431C10B5044604D10D
:103C600006480749272201F063F920460021FDF7A5
:103C7000C7F904F00F040120A04010BDB56F000883
:103C8000A875000870B54B1C04460D46217010D075
:103C9000C1F30310FDF774F906462846FFF7DCFF71
:103CA00006F11003A36006F1180328366060E36094
:103CB000266170BD90F90000FDF7D0B938B590F9D4
:103CC0000030054601330C4604D107480749472216
:103CD00001F02EF9012C95F900000CBF21460021BE
:103CE000BDE83840FDF78CB9B06F0008A875000832
:103CF000074A00F00700D36823F4E0631B041B0CA1
:103D000043F0BF6343F4003343EA0023D3607047BA
:103D100000ED00E0704710B50368044623B901F0D8
:103D20002DF901236060236010BD10B504460068C2
:103D300018B101F023F96368C01A10BD10B584688A
:103D4000FFF7F3FF204410BD08B5FFF7F7FF4FF46E
:103D50007A7390FBF3F008BD10B5044601F00EF93C
:103D600000236060A36010BD10B50023044603600B
:103D700043608360FFF7F0FF204610BD70B50E462C
:103D800004461546FFF77EFF013609D02046002184
:103D9000FFF794FF20462946BDE87040FFF78ABF31
:103DA00070BD000038B590F90030044601330D466F
:103DB00004D105480549352201F0BAF8E368626884
:103DC00005B912041A6038BDB06F0008C86F00084A
:103DD0000022FFF7D3BFFFF7D1BF70B50D460446F1
:103DE0001646FFF74FFF01350DD020463146FFF74D
:103DF000D9FF20460121FFF761FF20460021BDE8E1
:103E00007040FFF757BF70BD0022FFF7E6BF00000C
:103E100070B503680446DD0704D42368980700F1F1
:103E20009B802DE1AC4B9A6802F00C02082A07D067
:103E30009A6802F00C020C2A1FD19B68D9031CD58A
:103E40004FF4003292FAA2F3B3FA83F343F0200363
:103E5000C3F34213012BA04B0CBF1B685B6B92FAA0
:103E6000A2F2B2FA82F202F01F02D340DA07D4D5EE
:103E70006368012BD1D0012070BD984D00232B70B9
:103E8000FFF7AEF806464FF4003292FAA2F3B3FA07
:103E900083F343F02003C3F34213012B8E4B0CBF7B
:103EA0001B685B6B92FAA2F2B2FA82F202F01F0276
:103EB000D340DB0707D5FFF793F8801BB0F5FA7FF7
:103EC000E1D9032070BD23792B7063680BB3FFF732
:103ED00087F805464FF4003292FAA2F3B3FA83F35F
:103EE00043F02003C3F34213012B7B4B0CBF1B6831
:103EF0005B6B92FAA2F2B2FA82F202F01F02D34096
:103F0000D8078AD4FFF76CF8401BB0F5FA7FE1D9E7
:103F1000D7E7FFF765F805464FF4003292FAA2F3AF
:103F2000B3FA83F343F02003C3F34213012B6A4B2C
:103F30000CBF1B685B6B92FAA2F2B2FA82F202F03B
:103F40001F02D340D9077FF568AFFFF749F8401B40
:103F5000B0F5FA7FE0D9B4E75F4B9A6802F00C0243
:103F6000042A07D09A6802F00C020C2A1ED19B6822
:103F7000DA031BD4022292FAA2F3B3FA83F343F0DA
:103F80002003C3F34213012B534B0CBF1B685B6B25
:103F900092FAA2F2B2FA82F202F01F02D340DB07D9
:103FA00033D5E368012B7FF466AF2EE0E26801238E
:103FB000002A3AD093FAA3F2B2FA82F2D2B2920075
:103FC00002F1844202F58E021360FFF709F80546FC
:103FD000022292FAA2F3B3FA83F343F02003C3F36D
:103FE0004213012B3C4B0CBF1B685B6B92FAA2F295
:103FF000B2FA82F202F01F02D340DE0705D4FEF7C8
:10400000EFFF401B6428E3D95BE7334B4FF4F850D4
:10401000596890FAA0F0B0FA80F02269C0B28240EC
:1040200021F4F8510A435A602AE093FAA3F3B3FA51
:1040300083F3DBB29B0003F1844303F58E031A6024
:10404000FEF7CEFF0546022292FAA2F3B3FA83F3FB
:1040500043F02003C3F34213012B1F4B0CBF1B681B
:104060005B6B92FAA2F2B2FA82F202F01F02D34024
:10407000D80705D5FEF7B4FF401B6428E3D920E735
:104080002368D90640F19A80134B226A596821F4BB
:1040900060410A435A609A6812F00C0F20D14FF425
:1040A000007292FAA2F1B1FA81F141F02001C1F35C
:1040B000421101290CBF1B685B6B92FAA2F2B2FAA3
:1040C00082F202F01F02D340DA073BD5A369012B2D
:1040D0007FF4D1AE36E000BF003802400238024023
:1040E000A2694FF48073002A3CD093FAA3F3B3FA89
:1040F00083F3DBB29B0003F1844303F58E030122BB
:104100001A60FEF76DFF05464FF4007292FAA2F3B3
:10411000B3FA83F343F02003C3F34213012BAC4BF8
:104120000CBF1B685B6B92FAA2F2B2FA82F202F049
:104130001F02D340DB0705D4FEF752FF401B642863
:10414000E2D9BEE6A24B4FF07F40596890FAA0F04A
:10415000B0FA80F0E269C0B2824021F07F410A43A8
:104160005A602BE093FAA3F3B3FA83F3DBB29B001C
:1041700003F1844303F58E031A60FEF731FF054611
:104180004FF4007292FAA2F3B3FA83F343F02003E0
:10419000C3F34213012B8E4B0CBF1B685B6B92FA6F
:1041A000A2F2B2FA82F202F01F02D340DE0705D576
:1041B000FEF716FF401B6428E2D982E623681D073C
:1041C00004D42368580740F1B08045E061690123B9
:1041D000804A01B393FAA3F1B1FA81F1C9B242F86E
:1041E0002130FEF7FDFE0546022393FAA3F2B2FA50
:1041F00082F2774A526B93FAA3F3B3FA83F303F094
:104200001F0322FA03F3D907DBD4FEF7E9FE401BB4
:104210006428E9D955E693FAA3F3B3FA83F3DBB242
:1042200042F82310FEF7DCFE0546022393FAA3F2C0
:10423000B2FA82F2664A526B93FAA3F3B3FA83F3AB
:1042400003F01F0322FA03F3DA07BAD5FEF7C8FE1C
:10425000401B6428E9D934E65D4B5A6A42F080522B
:104260005A62A3F5E4331A6842F480721A60FEF7CA
:10427000B7FE0546584B1B68DB055AD54FF48072D4
:1042800092FAA2F2B2FA82F2524DD2B2002345F86B
:1042900022304FF4806292FAA2F2B2FA82F2D2B2E3
:1042A00045F82230FEF79CFE06464FF4007393FA61
:1042B000A3F2B2FA82F2464A526B93FAA3F1B1FA30
:1042C00081F101F01F0122FA01F111F0010136D153
:1042D000A3684FF48072002B38D192FAA2F2B2FA9E
:1042E00082F2D2B245F822304FF4806292FAA2F202
:1042F000B2FA82F2D2B245F82230A368012B4AD139
:10430000FEF76EFE05464FF4007393FAA3F2B2FA7D
:1043100082F22F4A526B93FAA3F3B3FA83F303F0BA
:104320001F0322FA03F3DE072ED5636A002B55D153
:10433000BAE0FEF755FE401B64289BD9C1E5FEF7A5
:104340004FFE801BB0F5FA7FAFD9BAE5012B09D13A
:104350004FF4806090FAA0F0B0FA80F0C0B245F857
:104360002010C3E792FAA2F2B2FA82F2D2B245F872
:1043700022104FF4806393FAA3F3B3FA83F301227C
:10438000DBB245F82320B8E7FEF72AFE401BB0F564
:10439000FA7FB8D995E5FEF723FE05464FF4007382
:1043A00093FAA3F2B2FA82F2094A526B93FAA3F398
:1043B000B3FA83F303F01F0322FA03F3D807B4D54B
:1043C000FEF70EFE401BB0F5FA7FE7D979E500BF96
:1043D000003802408006474200700040504A926810
:1043E00002F00C020C2A3FF446AD022B4FF0807312
:1043F00068D193FAA3F3B3FA83F3DBB29B0003F122
:10440000844303F58E0300221A60FEF7E9FD05469A
:104410004FF0007292FAA2F3B3FA83F343F0200351
:10442000C3F34213012B3E4B0CBF1B685B6B92FA2C
:10443000A2F2B2FA82F202F01F02D340D90735D4B9
:10444000374BE16AA26A9868246B0A43224320F43E
:104450007D0002439A604FF0807393FAA3F3B3FA9E
:1044600083F3DBB29B0003F1844303F58E03012247
:104470001A60FEF7B5FD04464FF0007292FAA2F3FF
:10448000B3FA83F343F02003C3F34213012B244B0D
:104490000CBF1B685B6B92FAA2F2B2FA82F202F0D6
:1044A0001F02D340DA0707D5002070BDFEF798FD44
:1044B000401B6428ACD904E5FEF792FD001B64287C
:1044C000DAD9FEE493FAA3F3B3FA83F3DBB29B00E9
:1044D00003F1844303F58E0300221A60FEF780FD8A
:1044E00004464FF0007292FAA2F3B3FA83F343F05A
:1044F0002003C3F34213012B094B0CBF1B685B6BFA
:1045000092FAA2F2B2FA82F202F01F02D340DB0763
:10451000CAD5FEF765FD001B6428E2D9D1E400BFCF
:104520000038024070B5A24B04461A680D4602F0EE
:104530000102914240F29A80012903D11A6842F0A7
:1045400004021A601A6822F001022A431A601B68EA
:1045500003F00103AB4201D0012070BD23689A072C
:1045600006D5944BA268996821F0F0010A439A603D
:104570002368DB070BD423685E0740F108818D4B6D
:10458000E268996821F4E0610A439A60FFE0636899
:10459000022B02D14FF4003109E0032B02D14FF07E
:1045A000007104E0012B0CBF02214FF4007191FA5D
:1045B000A1F2B2FA82F242F02002C2F34212012AC0
:1045C0007C4A0CBF1268526B91FAA1F1B1FA81F1E9
:1045D00001F01F01CA40D507BED5764A916821F087
:1045E00003010B439360FEF7FBFC63680546022B57
:1045F0000ED1704B9B6803F00C03082BBBD0FEF769
:10460000EFFC41F28833401B9842F2D9032070BD81
:10461000032B0DD1674B9B6803F00C030C2BAAD026
:10462000FEF7DEFC41F28833401B9842F2D9EDE7F9
:10463000012B0CD05F4B9B6813F00C0F0ED19AE747
:10464000FEF7CEFC41F28833401B9842DED8594B2E
:104650009B6803F00C03042BF2D18CE7FEF7C0FC3F
:1046600041F28833401B9842E4D9CFE703689807AA
:1046700006D5504BA268996821F0F0010A439A6070
:104680002368D90707D4012D494B74D11A6842F029
:1046900004021A606FE06368022B02D14FF400310C
:1046A00009E0032B02D14FF0007104E0012B0CBF95
:1046B00002214FF4007191FAA1F2B2FA82F242F0B3
:1046C0002002C2F34212012A3A4A0CBF1268526B0E
:1046D00091FAA1F1B1FA81F101F01F01CA40D207AC
:1046E0007FF53AAF334A916821F003010B439360A1
:1046F000FEF776FC63680646022B0DD12D4B9B68B6
:1047000003F00C03082BBED0FEF76AFC41F288339D
:10471000801B9842F2D979E7032B0DD1254B9B687A
:1047200003F00C030C2BAED0FEF75AFC41F2883399
:10473000801B9842F2D969E7012B0DD01D4B9B6875
:1047400013F00C0F0FD19EE7FEF74AFC41F28833BD
:10475000801B98423FF65AAF164B9B6803F00C0340
:10476000042BF1D18FE7FEF73BFC41F28833801B2D
:104770009842E3D94AE71A6822F001022A431A60F4
:104780001B6803F00103AB427FF4E6AEF3E6236857
:104790001B0707D5074B21699A6822F4605242EA49
:1047A000C1029A600F20FCF76DFE002070BD00BFB3
:1047B000003C02400038024010B51E4B9A6802F0DF
:1047C0000C01082933D00C2912D004292FD05868A5
:1047D0004FF4604393FAA3F3B3FA83F3DBB200F42C
:1047E0006040D8404FF40043013003FA00F010BDA0
:1047F0004FF4701494FAA4F4B4FA84F44FF4400122
:1048000091FAA1F1B1FA81F102F470109B68E3B260
:1048100020FA03F3084802F44002C05CCBB2DA404D
:10482000064B9B5CB0FBF3F0054B584310BD0448AE
:1048300010BD00BF003802401D7600083676000823
:104840000024F40008B5FFF7B7FF094B9A68F0237E
:1048500093FAA3F3B3FA83F302F0F002DBB222FA85
:1048600003F3044AD35CD840034B186008BD00BF73
:1048700000380240267600084801002008B5FFF7FE
:10488000E1FF084B9A684FF4E06393FAA3F3B3FA9D
:1048900083F302F4E062DBB222FA03F3024AD35C50
:1048A000D84008BD003802402676000808B5FFF75A
:1048B000C9FF084B9A684FF4605393FAA3F3B3FA15
:1048C00083F302F46052DBB222FA03F3024AD35CB0
:1048D000D84008BD003802402676000838B50446A6
:1048E00000F04CFB054600F049FB401BA042FAD308
:1048F00038BD000008B5044901F044F901F092FA0E
:10490000BDE80840FFF7EABF002474494FF47A730A
:104910005843FFF7E3BF00224260826101607047A5
:10492000002301604360704708B5036801460BB17E
:10493000984708BD406810B18B690831984708BD99
:1049400000F000B810B51A4A1A4B916801F00C013A
:104950000C2919D8DFE801F01818181807181818CA
:10496000071818180900144A16E09068134CC0F391
:1049700083409168205C92680F4AC1F381514243A1
:104980000131B2FBF1F207E052684FF40041C2F38B
:104990004232013201FA02F21A60054A084992686D
:1049A000C2F30312895C1A68CA401A6010BD00BFC6
:1049B00000380240480100200024F4004A76000834
:1049C0003A76000800B5022393B093FAA3F2B2FA44
:1049D00082F242F02002C2F34212012A1A46234B0D
:1049E0000CBF1B685B6B92FAA2F2B2FA82F202F081
:1049F0001F02D340D90701D5002034E01B4B5A6A6F
:104A000042F080525A62A3F5E4331A6822F4C0528D
:104A100042F400621A600323059308B9012300E001
:104A2000052306930023089302230E934FF480334B
:104A30000F934FF40023109305A84FF40003119334
:104A4000FFF7E6F90028D7D10F2203230290039045
:104A50000490012168468DE80C00FFF763FDD0F15A
:104A6000010038BF002013B05DF804FB003802409D
:104A700030B51B4B1B4D5A6A93B042F080525A62BC
:104A80002B68002423F4C05343F400632B600323FA
:104A900005930123089302230E934FF48023109370
:104AA00005A84FF4800306940F941193FFF7B0F913
:104AB00098B96B6813F01003FBD10F2103228DE826
:104AC000060068460121029303930493FFF72AFD31
:104AD000D0F1010038BF002000E0204613B030BD07
:104AE000003802400070004008B50020FFF76AFF60
:104AF00018B9FFF7BDFF00B9FEE708BD10B5164CA9
:104B0000236843F480732360A268144B1340A360AE
:104B100023684FF0006223F0885323F001132360D1
:104B2000236823F480232360A36823F47D03A36018
:104B30000023E3600A4B9A600A4B0B4A1A60FEF7A7
:104B400031FAFFF7D1FFA36943F00803A361A3691A
:104B500023F00803A36110BD003802400CC0FF8899
:104B600000ED00E0480100200024F400002100F0E6
:104B700004B80D4B5B58435004310C480C4B4218A1
:104B80009A42FFF4F6AF0B4A00F003B8002342F854
:104B9000043B094B9A42FFF4F9AFFFF7AFFF01F076
:104BA00047FBFBF7B1FC7047507A00083C0100203E
:104BB000C0010020C001002008080020FFF7FEBF50
:104BC00008B572B69620FFF7A1FE9620FFF79EFE6D
:104BD000F8E7000010B5114C036823601A6822F052
:104BE00040021A60036963608369E361C26800235D
:104BF000A36062618268A36222610722E262426866
:104C00002362E26042692046A2616362FBF7C0FA58
:104C100023681A6842F040021A6010BD680700203D
:104C20002DE9F74F0446884608463B4991461F4602
:104C30009DF93060FCF742F9384903464846019334
:104C4000FCF73CF9364905463846FCF737F9354953
:104C500083463046FCF732F9019B294682461846C6
:104C6000FCF70EF9514605465846FCF709F901468E
:104C70002846FCF705F92060013004D12A482B4969
:104C80004D2200F055F92368294A934204D1294B5B
:104C90001A6A42F480521A622368274A934204D166
:104CA000244B5A6A42F480425A622368234A934250
:104CB00004D1204B5A6A42F400425A6240461649D7
:104CC000FCF7C0F848461549FCF7BCF838461449CB
:104CD000FCF7B8F838230025A361731C6560A56054
:104CE000E56084F81C9084F81D80A777E67706D1EC
:104CF0004FF4827323614FF40073636105E0304623
:104D00000849FCF79FF825616561204603B0BDE8BE
:104D1000F04FFFF75FBF00BF0C780008F87600087F
:104D20004077000850790008537600086B76000839
:104D3000003001400038024000380040003C004094
:104D400010290CBF4FF400610021012A416004D0FA
:104D5000022A05D03AB9826008E00021816005E0AE
:104D60008260002202E0022282600122C2602BB92E
:104D70004FF4827303614FF4007301E00023036179
:104D80004361FFF727BF0000364B1A68364B9A4243
:104D90003BD1364A914201DC382305E0A1F574335A
:104DA000903B934203D830238361FFF713BFA1F5F3
:104DB000F4232F4AA3F59073934201D82823F3E7F5
:104DC000A1F574232B4AA3F51073934201D8202335
:104DD000EAE7A1F5F413284AA3F59063934201D8BA
:104DE0001823E1E7A1F57413244AA3F51063934255
:104DF00001D81023D8E7A1F5F401214BA1F590517A
:104E0000994294BF08230023CEE71E4B9942C3DD8D
:104E1000A1F52F331C4AA3F548739342C3D9A1F5DA
:104E2000AA231A4AA3F5E6639342C7D9A1F537230B
:104E30000E4AA3F5D8739342C9D9A1F574230E4A3B
:104E4000A3F510739342CBD9A1F53713104AA3F5FC
:104E5000D8639342CDD9A1F5B701A1F558610D4BA7
:104E6000CEE700BF480100200048E8018FD00300D2
:104E70001FA107003F420F007F841E00FF083D0076
:104E8000FF117A001FBF02000F9802007F1A060070
:104E9000BFC62D007F8D5B0030B505680268084BEA
:104EA0001A6092681C4612F0020FF7D089B2E960CE
:104EB0000268036899682360CB07FAD5D06830BDD3
:104EC0006807002008B503689B68984708BD000084
:104ED00010B5044A044640F8042BFEF7D1F82046EA
:104EE00010BD00BFE876000810B50446FFF7F0FFDC
:104EF000204600F081F8204610BD000010B5064B9A
:104F000004460360002343608360C3600348FEF7E8
:104F10006DF8204610BD00BFE8760008C54E0008B9
:104F200002460430FEF790B80430FEF7A9B800003E
:104F300013B50B460649044609680092C868224624
:104F4000044901F045F902B0BDE81040FFF738BE52
:104F5000AC01002080790008054B186830B90122A7
:104F60001A60044A044B1A60FCF78CBA704700BF01
:104F7000F4070020000C0040BC07002008B5044BDB
:104F80001B680BB9FFF7E8FF024B586A08BD00BF6A
:104F9000F4070020000C0040034B1B685863DA68DC
:104FA00042F00202DA607047BC070020034B1B6826
:104FB000DA6822F00202DA60704700BFBC07002006
:104FC000024B6FF002021B681A617047BC07002099
:104FD00010B5002814BF04460124204601F09AF9B8
:104FE00030B9044B1B680BB900F042FF9847F4E757
:104FF00010BD00BFF807002008B101F093B9704759
:1050000003460846194600F03BBFFFF7E1BF00002A
:105010002DE9F84FC1F30A57A7F2FF36132E0246C7
:105020000B4604460D4689468A46804622DC002E01
:1050300054DB3D4F374107EA010C5CEA000C1ED0FF
:1050400037A3D3E9002300F009F90022002300F080
:1050500047FD58B1002D05DD4FF4801A4AFA06F6D7
:1050600006EB050A2AEA07094FF0000840464946C0
:10507000BDE8F88F332E06DDB6F5806F43D01046BD
:105080001946BDE8F88FA7F2134C4FF0FF3B2BFAFF
:105090000CFB1BEA000FF2D021A3D3E9002300F0A0
:1050A000DDF80022002300F01BFD0028DED0002DDB
:1050B0000DDD142E09D0C7F5866703374FF00108C0
:1050C00008FA07F818EB040801D305F1010A28EAE9
:1050D0000B08D14640464946BDE8F88F10A3D3E9F6
:1050E000002300F0BBF80022002300F0F9FC0028A8
:1050F000BCD0002D0DDB55EA040808D0DFF82C9059
:105100004FF00008B2E700F0A9F8BDE8F88FC146FB
:10511000ACE74FF000084FF00049A7E7AFF300807D
:105120009C7500883CE4377EFFFF0F000000F03FD5
:105130002DE9F84FC1F30A57A7F2FF36132E0246A6
:105140000B4604460D4689468A4680461CDC002EE6
:1051500040DB3D4F374107EA010C5CEA000C18D0F8
:1051600037A3D3E9002300F079F80022002300F0F0
:10517000B7FC28B1002D42DB2AEA07094FF00008EE
:1051800040464946BDE8F88F332E06DDB6F5806F00
:1051900031D010461946BDE8F88FA7F2134C4FF0F6
:1051A000FF3B2BFA0CFB1BEA000FF2D024A3D3E940
:1051B000002300F053F80022002300F091FC0028A7
:1051C000DED0002D22DB28EA0B08D14640464946B6
:1051D000BDE8F88F1AA3D3E9002300F03FF80022BE
:1051E000002300F07DFC0028CAD0002D1CDB4FF00E
:1051F0000008C146C4E700F031F8BDE8F88F4FF46D
:10520000801A4AFA06F606EB050AB5E7142E14D002
:10521000C7F586670123033703FA07F717EB04087E
:1052200028BF05EB030ACEE725F00042074B2243D7
:1052300018BF99464FF00008A2E705F1010AC2E73E
:105240009C7500883CE4377EFFFF0F000000F0BF34
:1052500081F0004102E000BF83F0004330B54FEA27
:1052600041044FEA430594EA050F08BF90EA020F94
:105270001FBF54EA000C55EA020C7FEA645C7FEA27
:10528000655C00F0E2804FEA5454D4EB5555B8BF4A
:105290006D420CDD2C4480EA020281EA030382EABB
:1052A000000083EA010180EA020281EA0303362D4D
:1052B00088BF30BD11F0004F4FEA01314FF4801C20
:1052C0004CEA113102D0404261EB410113F0004F32
:1052D0004FEA03334CEA133302D0524263EB4303E9
:1052E00094EA050F00F0A780A4F10104D5F1200E87
:1052F0000DDB02FA0EFC22FA05F2801841F10001E2
:1053000003FA0EF2801843FA05F359410EE0A5F1B5
:1053100020050EF1200E012A03FA0EFC28BF4CF0E6
:10532000020C43FA05F3C01851EBE37101F000459C
:1053300007D54FF0000EDCF1000C7EEB00006EEBA9
:105340000101B1F5801F1BD3B1F5001F0CD3490833
:105350005FEA30004FEA3C0C04F101044FEA44528A
:1053600012F5800F80F09A80BCF1004F08BF5FEA11
:10537000500C50F1000041EB045141EA050130BDF1
:105380005FEA4C0C404141EB010111F4801FA4F194
:105390000104E9D191F0000F04BF01460020B1FAE9
:1053A00081F308BF2033A3F10B03B3F120020CDA21
:1053B0000C3208DD02F1140CC2F10C0201FA0CF0FF
:1053C00021FA02F10CE002F11402D8BFC2F1200C64
:1053D00001FA02F120FA0CFCDCBF41EA0C0190401A
:1053E000E41AA2BF01EB0451294330BD6FEA040463
:1053F0001F3C1CDA0C340EDC04F11404C4F120024E
:1054000020FA04F001FA02F340EA030021FA04F35F
:1054100045EA030130BDC4F10C04C4F1200220FAB6
:1054200002F001FA04F340EA0300294630BD21FAF4
:1054300004F0294630BD94F0000F83F4801306BFBA
:1054400081F480110134013D4EE77FEA645C18BFAE
:105450007FEA655C29D094EA050F08BF90EA020F45
:1054600005D054EA000C04BF1946104630BD91EA3D
:10547000030F1EBF0021002030BD5FEA545C05D140
:105480004000494128BF41F0004130BD14F580047F
:105490003CBF01F5801130BD01F0004545F0FE41F3
:1054A00041F470014FF0000030BD7FEA645C1ABF28
:1054B000194610467FEA655C1CBF0B46024650EA5F
:1054C000013406BF52EA033591EA030F41F400218B
:1054D00030BD00BF90F0000F04BF0021704730B511
:1054E0004FF4806404F132044FF000054FF00001E6
:1054F00050E700BF90F0000F04BF0021704730B5A7
:105500004FF4806404F1320410F0004548BF40427B
:105510004FF000013EE700BF42004FEAE2014FEAD0
:1055200031014FEA02701FBF12F07F4393F07F4FAB
:1055300081F06051704792F0000F14BF93F07F4FDD
:10554000704730B54FF4607401F0004521F0004120
:1055500020E700BF50EA010208BF704730B54FF0A6
:1055600000050AE050EA010208BF704730B511F0AB
:10557000004502D5404261EB41014FF4806404F1E3
:1055800032045FEA915C3FF4DCAE4FF003025FEA65
:10559000DC0C18BF03325FEADC0C18BF033202EBED
:1055A000DC02C2F1200300FA03FC20FA02F001FA47
:1055B00003FE40EA0E0021FA02F11444C1E600BFE6
:1055C00070B54FF0FF0C4CF4E06C1CEA11541DBF99
:1055D0001CEA135594EA0C0F95EA0C0F00F0DEF864
:1055E0002C4481EA030621EA4C5123EA4C5350EA49
:1055F000013518BF52EA033541F4801143F480139A
:1056000038D0A0FB02CE4FF00005E1FB02E506F02A
:105610000042E0FB03E54FF00006E1FB03569CF07F
:10562000000F18BF4EF0010EA4F1FF04B6F5007F85
:1056300064F5407404D25FEA4E0E6D4146EB0606F7
:1056400042EAC62141EA55514FEAC52040EA5E5080
:105650004FEACE2EB4F1FD0C88BFBCF5E06F1ED82A
:10566000BEF1004F08BF5FEA500E50F1000041EB61
:10567000045170BD06F0004646EA010140EA02000E
:1056800081EA0301B4EB5C04C2BFD4EB0C0541EA30
:10569000045170BD41F480114FF0000E013C00F345
:1056A000AB8014F1360FDEBF002001F0004170BD69
:1056B000C4F10004203C35DA0C341BDC04F1140482
:1056C000C4F1200500FA05F320FA04F001FA05F20E
:1056D00040EA020001F0004221F0004110EBD370DB
:1056E00021FA04F642EB06015EEA430E08BF20EA07
:1056F000D37070BDC4F10C04C4F1200500FA04F3AA
:1057000020FA05F001FA04F240EA020001F000413B
:1057100010EBD37041F100015EEA430E08BF20EAAE
:10572000D37070BDC4F1200500FA05F24EEA020EF6
:1057300020FA04F301FA05F243EA020321FA04F025
:1057400001F0004121FA04F220EA020000EBD370DC
:105750005EEA430E08BF20EAD37070BD94F0000FDC
:105760000FD101F00046400041EB010111F4801F10
:1057700008BF013CF7D041EA060195F0000F18BFC1
:10578000704703F00046520043EB030313F4801FFD
:1057900008BF013DF7D043EA0603704794EA0C0FB7
:1057A0000CEA135518BF95EA0C0F0CD050EA4106CD
:1057B00018BF52EA4306D1D181EA030101F000414A
:1057C0004FF0000070BD50EA410606BF1046194672
:1057D00052EA430619D094EA0C0F02D150EA01367E
:1057E00013D195EA0C0F05D152EA03361CBF1046BF
:1057F00019460AD181EA030101F0004141F0FE415E
:1058000041F470014FF0000070BD41F0FE4141F4E1
:10581000780170BD70B54FF0FF0C4CF4E06C1CEAE1
:1058200011541DBF1CEA135594EA0C0F95EA0C0F96
:1058300000F0A7F8A4EB050481EA030E52EA033551
:105840004FEA013100F088804FEA03334FF0805572
:1058500045EA131343EA12634FEA022245EA11159F
:1058600045EA10654FEA00260EF000419D4208BF50
:10587000964244F1FD0404F5407402D25B084FEAFD
:105880003202B61A65EB03055B084FEA32024FF4A9
:1058900080104FF4002CB6EB020E75EB030E22BF06
:1058A000B61A754640EA0C005B084FEA3202B6EBC6
:1058B000020E75EB030E22BFB61A754640EA5C0075
:1058C0005B084FEA3202B6EB020E75EB030E22BF05
:1058D000B61A754640EA9C005B084FEA3202B6EB06
:1058E000020E75EB030E22BFB61A754640EADC00C5
:1058F00055EA060E18D04FEA051545EA16754FEA27
:1059000006164FEAC30343EA52734FEAC2025FEA44
:105910001C1CC0D111F4801F0BD141EA00014FF0D3
:1059200000004FF0004CB6E711F4801F04BF0143A4
:105930000020B4F1FD0C88BFBCF5E06F3FF6AFAEC0
:10594000B5EB030C04BFB6EB020C5FEA500C50F150
:10595000000041EB045170BD0EF0004E4EEA1131D3
:1059600014EB5C04C2BFD4EB0C0541EA045170BDDA
:1059700041F480114FF0000E013C90E645EA060E1E
:105980008DE60CEA135594EA0C0F08BF95EA0C0F4C
:105990003FF43BAF94EA0C0F0AD150EA01347FF494
:1059A00034AF95EA0C0F7FF425AF104619462CE76B
:1059B00095EA0C0F06D152EA03353FF4FDAE1046CE
:1059C000194622E750EA410618BF52EA43067FF41F
:1059D000C5AE50EA41047FF40DAF52EA43057FF4AF
:1059E000EBAE12E74FF0FF3C06E000BF4FF0010CBA
:1059F00002E000BF4FF0010C4DF804CD4FEA410C1E
:105A00007FEA6C5C4FEA430C18BF7FEA6C5C1BD0EA
:105A100001B050EA410C0CBF52EA430C91EA030F6B
:105A200002BF90EA020F0020704710F1000F91EAC8
:105A3000030F58BF994208BF90422CBFD8176FEA96
:105A4000E37040F0010070474FEA410C7FEA6C5C64
:105A500002D150EA013C07D14FEA430C7FEA6C5C6B
:105A6000D6D152EA033CD3D05DF8040B704700BF97
:105A70008446104662468C461946634600E000BFE5
:105A800001B5FFF7B7FF002848BF10F1000F01BDB7
:105A90004DF808EDFFF7F4FF0CBF012000205DF882
:105AA00008FB00BF4DF808EDFFF7EAFF34BF012007
:105AB00000205DF808FB00BF4DF808EDFFF7E0FFA0
:105AC00094BF012000205DF808FB00BF4DF808EDF1
:105AD000FFF7CEFF94BF012000205DF808FB00BF58
